{
  "_format": "hh-sol-artifact-1",
  "contractName": "Escrow",
  "sourceName": "contracts/Escrow.sol",
  "abi": [
    {
      "inputs": [],
      "stateMutability": "nonpayable",
      "type": "constructor"
    },
    {
      "anonymous": false,
      "inputs": [
        {
          "indexed": true,
          "internalType": "uint256",
          "name": "id",
          "type": "uint256"
        },
        {
          "indexed": false,
          "internalType": "uint256",
          "name": "amount",
          "type": "uint256"
        }
      ],
      "name": "PaymentDeposited",
      "type": "event"
    },
    {
      "anonymous": false,
      "inputs": [
        {
          "indexed": true,
          "internalType": "uint256",
          "name": "id",
          "type": "uint256"
        }
      ],
      "name": "PaymentReleased",
      "type": "event"
    },
    {
      "anonymous": false,
      "inputs": [
        {
          "indexed": true,
          "internalType": "uint256",
          "name": "id",
          "type": "uint256"
        }
      ],
      "name": "Refunded",
      "type": "event"
    },
    {
      "anonymous": false,
      "inputs": [
        {
          "indexed": true,
          "internalType": "address",
          "name": "supplyChain",
          "type": "address"
        }
      ],
      "name": "SupplyChainSet",
      "type": "event"
    },
    {
      "anonymous": false,
      "inputs": [
        {
          "indexed": true,
          "internalType": "uint256",
          "name": "id",
          "type": "uint256"
        },
        {
          "indexed": true,
          "internalType": "uint256",
          "name": "productId",
          "type": "uint256"
        },
        {
          "indexed": true,
          "internalType": "address",
          "name": "buyer",
          "type": "address"
        },
        {
          "indexed": false,
          "internalType": "address",
          "name": "seller",
          "type": "address"
        }
      ],
      "name": "TransactionCreated",
      "type": "event"
    },
    {
      "inputs": [
        {
          "internalType": "uint256",
          "name": "_productId",
          "type": "uint256"
        },
        {
          "internalType": "address",
          "name": "_seller",
          "type": "address"
        }
      ],
      "name": "createTransaction",
      "outputs": [],
      "stateMutability": "nonpayable",
      "type": "function"
    },
    {
      "inputs": [
        {
          "internalType": "uint256",
          "name": "_productId",
          "type": "uint256"
        }
      ],
      "name": "depositPayment",
      "outputs": [],
      "stateMutability": "payable",
      "type": "function"
    },
    {
      "inputs": [
        {
          "internalType": "uint256",
          "name": "_productId",
          "type": "uint256"
        }
      ],
      "name": "getTransaction",
      "outputs": [
        {
          "internalType": "uint256",
          "name": "",
          "type": "uint256"
        },
        {
          "internalType": "uint256",
          "name": "",
          "type": "uint256"
        },
        {
          "internalType": "address",
          "name": "",
          "type": "address"
        },
        {
          "internalType": "address",
          "name": "",
          "type": "address"
        },
        {
          "internalType": "uint256",
          "name": "",
          "type": "uint256"
        },
        {
          "internalType": "enum Escrow.Status",
          "name": "",
          "type": "uint8"
        }
      ],
      "stateMutability": "view",
      "type": "function"
    },
    {
      "inputs": [
        {
          "internalType": "uint256",
          "name": "_productId",
          "type": "uint256"
        }
      ],
      "name": "getTransactionIdByProduct",
      "outputs": [
        {
          "internalType": "uint256",
          "name": "",
          "type": "uint256"
        }
      ],
      "stateMutability": "view",
      "type": "function"
    },
    {
      "inputs": [],
      "name": "owner",
      "outputs": [
        {
          "internalType": "address",
          "name": "",
          "type": "address"
        }
      ],
      "stateMutability": "view",
      "type": "function"
    },
    {
      "inputs": [
        {
          "internalType": "uint256",
          "name": "",
          "type": "uint256"
        }
      ],
      "name": "productToTxn",
      "outputs": [
        {
          "internalType": "uint256",
          "name": "",
          "type": "uint256"
        }
      ],
      "stateMutability": "view",
      "type": "function"
    },
    {
      "inputs": [
        {
          "internalType": "uint256",
          "name": "_productId",
          "type": "uint256"
        }
      ],
      "name": "refund",
      "outputs": [],
      "stateMutability": "nonpayable",
      "type": "function"
    },
    {
      "inputs": [
        {
          "internalType": "uint256",
          "name": "_productId",
          "type": "uint256"
        }
      ],
      "name": "releasePayment",
      "outputs": [],
      "stateMutability": "nonpayable",
      "type": "function"
    },
    {
      "inputs": [
        {
          "internalType": "address",
          "name": "_supplyChain",
          "type": "address"
        }
      ],
      "name": "setSupplyChain",
      "outputs": [],
      "stateMutability": "nonpayable",
      "type": "function"
    },
    {
      "inputs": [],
      "name": "supplyChain",
      "outputs": [
        {
          "internalType": "address",
          "name": "",
          "type": "address"
        }
      ],
      "stateMutability": "view",
      "type": "function"
    },
    {
      "inputs": [],
      "name": "transactionCount",
      "outputs": [
        {
          "internalType": "uint256",
          "name": "",
          "type": "uint256"
        }
      ],
      "stateMutability": "view",
      "type": "function"
    },
    {
      "inputs": [
        {
          "internalType": "uint256",
          "name": "",
          "type": "uint256"
        }
      ],
      "name": "transactions",
      "outputs": [
        {
          "internalType": "uint256",
          "name": "id",
          "type": "uint256"
        },
        {
          "internalType": "uint256",
          "name": "productId",
          "type": "uint256"
        },
        {
          "internalType": "address",
          "name": "buyer",
          "type": "address"
        },
        {
          "internalType": "address",
          "name": "seller",
          "type": "address"
        },
        {
          "internalType": "uint256",
          "name": "amount",
          "type": "uint256"
        },
        {
          "internalType": "enum Escrow.Status",
          "name": "status",
          "type": "uint8"
        }
      ],
      "stateMutability": "view",
      "type": "function"
    }
  ],
  "bytecode": "0x608060405234801561001057600080fd5b5033600260006101000a81548173ffffffffffffffffffffffffffffffffffffffff021916908373ffffffffffffffffffffffffffffffffffffffff160217905550611c3b806100616000396000f3fe6080604052600436106100a75760003560e01c806388685cd91161006457806388685cd9146101d657806388d84b66146101ff5780638da5cb5b1461022a5780639ace38c214610255578063ad6d313714610297578063b77bf600146102c0576100a7565b806313b23d10146100ac578063278ecde1146100e95780632c32baef1461011257806333ea3dc81461014f5780636b749c47146101915780637cf4c543146101ad575b600080fd5b3480156100b857600080fd5b506100d360048036038101906100ce9190611305565b6102eb565b6040516100e09190611341565b60405180910390f35b3480156100f557600080fd5b50610110600480360381019061010b9190611305565b610308565b005b34801561011e57600080fd5b5061013960048036038101906101349190611305565b610599565b6040516101469190611341565b60405180910390f35b34801561015b57600080fd5b5061017660048036038101906101719190611305565b6105b1565b60405161018896959493929190611414565b60405180910390f35b6101ab60048036038101906101a69190611305565b610771565b005b3480156101b957600080fd5b506101d460048036038101906101cf91906114a1565b6109ea565b005b3480156101e257600080fd5b506101fd60048036038101906101f89190611305565b610d49565b005b34801561020b57600080fd5b50610214610fd8565b60405161022191906114e1565b60405180910390f35b34801561023657600080fd5b5061023f610ffe565b60405161024c91906114e1565b60405180910390f35b34801561026157600080fd5b5061027c60048036038101906102779190611305565b611024565b60405161028e96959493929190611414565b60405180910390f35b3480156102a357600080fd5b506102be60048036038101906102b991906114fc565b6110ad565b005b3480156102cc57600080fd5b506102d56112c4565b6040516102e29190611341565b60405180910390f35b600060046000838152602001908152602001600020549050919050565b60006004600083815260200190815260200160002054905060008103610363576040517f08c379a000000000000000000000000000000000000000000000000000000000815260040161035a90611586565b60405180910390fd5b60006003600083815260200190815260200160002090508060030160009054906101000a900473ffffffffffffffffffffffffffffffffffffffff1673ffffffffffffffffffffffffffffffffffffffff163373ffffffffffffffffffffffffffffffffffffffff161461040c576040517f08c379a0000000000000000000000000000000000000000000000000000000008152600401610403906115f2565b60405180910390fd5b600160038111156104205761041f61139d565b5b8160050160009054906101000a900460ff1660038111156104445761044361139d565b5b14610484576040517f08c379a000000000000000000000000000000000000000000000000000000000815260040161047b9061165e565b60405180910390fd5b60008160040154116104cb576040517f08c379a00000000000000000000000000000000000000000000000000000000081526004016104c2906116ca565b60405180910390fd5b60038160050160006101000a81548160ff021916908360038111156104f3576104f261139d565b5b02179055508060020160009054906101000a900473ffffffffffffffffffffffffffffffffffffffff1673ffffffffffffffffffffffffffffffffffffffff166108fc82600401549081150290604051600060405180830381858888f19350505050158015610566573d6000803e3d6000fd5b50817f3d2a04f53164bedf9a8a46353305d6b2d2261410406df3b41f99ce6489dc003c60405160405180910390a2505050565b60046020528060005260406000206000915090505481565b60008060008060008060006004600089815260200190815260200160002054905060008103610615576040517f08c379a000000000000000000000000000000000000000000000000000000000815260040161060c90611586565b60405180910390fd5b6000600360008381526020019081526020016000206040518060c001604052908160008201548152602001600182015481526020016002820160009054906101000a900473ffffffffffffffffffffffffffffffffffffffff1673ffffffffffffffffffffffffffffffffffffffff1673ffffffffffffffffffffffffffffffffffffffff1681526020016003820160009054906101000a900473ffffffffffffffffffffffffffffffffffffffff1673ffffffffffffffffffffffffffffffffffffffff1673ffffffffffffffffffffffffffffffffffffffff168152602001600482015481526020016005820160009054906101000a900460ff1660038111156107245761072361139d565b5b60038111156107365761073561139d565b5b815250509050806000015181602001518260400151836060015184608001518560a00151975097509750975097509750505091939550919395565b600060046000838152602001908152602001600020549050600081036107cc576040517f08c379a00000000000000000000000000000000000000000000000000000000081526004016107c390611586565b60405180910390fd5b60006003600083815260200190815260200160002090508060020160009054906101000a900473ffffffffffffffffffffffffffffffffffffffff1673ffffffffffffffffffffffffffffffffffffffff163373ffffffffffffffffffffffffffffffffffffffff1614610875576040517f08c379a000000000000000000000000000000000000000000000000000000000815260040161086c90611736565b60405180910390fd5b600060038111156108895761088861139d565b5b8160050160009054906101000a900460ff1660038111156108ad576108ac61139d565b5b146108ed576040517f08c379a00000000000000000000000000000000000000000000000000000000081526004016108e49061165e565b60405180910390fd5b60003411610930576040517f08c379a0000000000000000000000000000000000000000000000000000000008152600401610927906117a2565b60405180910390fd5b6000816004015414610977576040517f08c379a000000000000000000000000000000000000000000000000000000000815260040161096e9061180e565b60405180910390fd5b34816004018190555060018160050160006101000a81548160ff021916908360038111156109a8576109a761139d565b5b0217905550817f6a7ac62510e3fd37d671bbf21ff3561ac1ba8b56ab899d4e30790a4ba4324e85346040516109dd9190611341565b60405180910390a2505050565b60008211610a2d576040517f08c379a0000000000000000000000000000000000000000000000000000000008152600401610a249061187a565b60405180910390fd5b600073ffffffffffffffffffffffffffffffffffffffff168173ffffffffffffffffffffffffffffffffffffffff1603610a9c576040517f08c379a0000000000000000000000000000000000000000000000000000000008152600401610a93906118e6565b60405180910390fd5b6000600460008481526020019081526020016000205414610af2576040517f08c379a0000000000000000000000000000000000000000000000000000000008152600401610ae990611952565b60405180910390fd5b8073ffffffffffffffffffffffffffffffffffffffff163373ffffffffffffffffffffffffffffffffffffffff1603610b60576040517f08c379a0000000000000000000000000000000000000000000000000000000008152600401610b57906119be565b60405180910390fd5b600080815480929190610b7290611a0d565b91905055506040518060c0016040528060005481526020018381526020013373ffffffffffffffffffffffffffffffffffffffff1681526020018273ffffffffffffffffffffffffffffffffffffffff1681526020016000815260200160006003811115610be357610be261139d565b5b8152506003600080548152602001908152602001600020600082015181600001556020820151816001015560408201518160020160006101000a81548173ffffffffffffffffffffffffffffffffffffffff021916908373ffffffffffffffffffffffffffffffffffffffff16021790555060608201518160030160006101000a81548173ffffffffffffffffffffffffffffffffffffffff021916908373ffffffffffffffffffffffffffffffffffffffff1602179055506080820151816004015560a08201518160050160006101000a81548160ff02191690836003811115610cd157610cd061139d565b5b021790555090505060005460046000848152602001908152602001600020819055503373ffffffffffffffffffffffffffffffffffffffff16826000547fcb75c9296484fe6502ce355f95715161189c26f09a8bc8f9c1da7327d06c0dce84604051610d3d91906114e1565b60405180910390a45050565b600160009054906101000a900473ffffffffffffffffffffffffffffffffffffffff1673ffffffffffffffffffffffffffffffffffffffff163373ffffffffffffffffffffffffffffffffffffffff1614610dd9576040517f08c379a0000000000000000000000000000000000000000000000000000000008152600401610dd090611aa1565b60405180910390fd5b60006004600083815260200190815260200160002054905060008103610e34576040517f08c379a0000000000000000000000000000000000000000000000000000000008152600401610e2b90611586565b60405180910390fd5b600060036000838152602001908152602001600020905060016003811115610e5f57610e5e61139d565b5b8160050160009054906101000a900460ff166003811115610e8357610e8261139d565b5b14610ec3576040517f08c379a0000000000000000000000000000000000000000000000000000000008152600401610eba9061165e565b60405180910390fd5b6000816004015411610f0a576040517f08c379a0000000000000000000000000000000000000000000000000000000008152600401610f01906116ca565b60405180910390fd5b60028160050160006101000a81548160ff02191690836003811115610f3257610f3161139d565b5b02179055508060030160009054906101000a900473ffffffffffffffffffffffffffffffffffffffff1673ffffffffffffffffffffffffffffffffffffffff166108fc82600401549081150290604051600060405180830381858888f19350505050158015610fa5573d6000803e3d6000fd5b50817f7094d01aa39ef767229e67850ef530b588b0dc1576b827e94f51a1f06300743460405160405180910390a2505050565b600160009054906101000a900473ffffffffffffffffffffffffffffffffffffffff1681565b600260009054906101000a900473ffffffffffffffffffffffffffffffffffffffff1681565b60036020528060005260406000206000915090508060000154908060010154908060020160009054906101000a900473ffffffffffffffffffffffffffffffffffffffff16908060030160009054906101000a900473ffffffffffffffffffffffffffffffffffffffff16908060040154908060050160009054906101000a900460ff16905086565b600260009054906101000a900473ffffffffffffffffffffffffffffffffffffffff1673ffffffffffffffffffffffffffffffffffffffff163373ffffffffffffffffffffffffffffffffffffffff161461113d576040517f08c379a000000000000000000000000000000000000000000000000000000000815260040161113490611b0d565b60405180910390fd5b600073ffffffffffffffffffffffffffffffffffffffff168173ffffffffffffffffffffffffffffffffffffffff16036111ac576040517f08c379a00000000000000000000000000000000000000000000000000000000081526004016111a390611b79565b60405180910390fd5b600073ffffffffffffffffffffffffffffffffffffffff16600160009054906101000a900473ffffffffffffffffffffffffffffffffffffffff1673ffffffffffffffffffffffffffffffffffffffff161461123d576040517f08c379a000000000000000000000000000000000000000000000000000000000815260040161123490611be5565b60405180910390fd5b80600160006101000a81548173ffffffffffffffffffffffffffffffffffffffff021916908373ffffffffffffffffffffffffffffffffffffffff1602179055508073ffffffffffffffffffffffffffffffffffffffff167ffcd4a59d20f583acd2a724a6dda492d07e9e34a51860a094eb572417f27de70460405160405180910390a250565b60005481565b600080fd5b6000819050919050565b6112e2816112cf565b81146112ed57600080fd5b50565b6000813590506112ff816112d9565b92915050565b60006020828403121561131b5761131a6112ca565b5b6000611329848285016112f0565b91505092915050565b61133b816112cf565b82525050565b60006020820190506113566000830184611332565b92915050565b600073ffffffffffffffffffffffffffffffffffffffff82169050919050565b60006113878261135c565b9050919050565b6113978161137c565b82525050565b7f4e487b7100000000000000000000000000000000000000000000000000000000600052602160045260246000fd5b600481106113dd576113dc61139d565b5b50565b60008190506113ee826113cc565b919050565b60006113fe826113e0565b9050919050565b61140e816113f3565b82525050565b600060c0820190506114296000830189611332565b6114366020830188611332565b611443604083018761138e565b611450606083018661138e565b61145d6080830185611332565b61146a60a0830184611405565b979650505050505050565b61147e8161137c565b811461148957600080fd5b50565b60008135905061149b81611475565b92915050565b600080604083850312156114b8576114b76112ca565b5b60006114c6858286016112f0565b92505060206114d78582860161148c565b9150509250929050565b60006020820190506114f6600083018461138e565b92915050565b600060208284031215611512576115116112ca565b5b60006115208482850161148c565b91505092915050565b600082825260208201905092915050565b7f5472616e73616374696f6e206e6f7420666f756e640000000000000000000000600082015250565b6000611570601583611529565b915061157b8261153a565b602082019050919050565b6000602082019050818103600083015261159f81611563565b9050919050565b7f4f6e6c792073656c6c6572000000000000000000000000000000000000000000600082015250565b60006115dc600b83611529565b91506115e7826115a6565b602082019050919050565b6000602082019050818103600083015261160b816115cf565b9050919050565b7f496e76616c696420737461746500000000000000000000000000000000000000600082015250565b6000611648600d83611529565b915061165382611612565b602082019050919050565b600060208201905081810360008301526116778161163b565b9050919050565b7f4e6f2066756e6473206465706f73697465640000000000000000000000000000600082015250565b60006116b4601283611529565b91506116bf8261167e565b602082019050919050565b600060208201905081810360008301526116e3816116a7565b9050919050565b7f4f6e6c7920627579657200000000000000000000000000000000000000000000600082015250565b6000611720600a83611529565b915061172b826116ea565b602082019050919050565b6000602082019050818103600083015261174f81611713565b9050919050565b7f416d6f756e74203e203000000000000000000000000000000000000000000000600082015250565b600061178c600a83611529565b915061179782611756565b602082019050919050565b600060208201905081810360008301526117bb8161177f565b9050919050565b7f416c72656164792066756e646564000000000000000000000000000000000000600082015250565b60006117f8600e83611529565b9150611803826117c2565b602082019050919050565b60006020820190508181036000830152611827816117eb565b9050919050565b7f496e76616c69642070726f647563742049440000000000000000000000000000600082015250565b6000611864601283611529565b915061186f8261182e565b602082019050919050565b6000602082019050818103600083015261189381611857565b9050919050565b7f496e76616c69642073656c6c6572000000000000000000000000000000000000600082015250565b60006118d0600e83611529565b91506118db8261189a565b602082019050919050565b600060208201905081810360008301526118ff816118c3565b9050919050565b7f416c726561647920657869737473000000000000000000000000000000000000600082015250565b600061193c600e83611529565b915061194782611906565b602082019050919050565b6000602082019050818103600083015261196b8161192f565b9050919050565b7f427579657220616e642073656c6c65722073616d650000000000000000000000600082015250565b60006119a8601583611529565b91506119b382611972565b602082019050919050565b600060208201905081810360008301526119d78161199b565b9050919050565b7f4e487b7100000000000000000000000000000000000000000000000000000000600052601160045260246000fd5b6000611a18826112cf565b91507fffffffffffffffffffffffffffffffffffffffffffffffffffffffffffffffff8203611a4a57611a496119de565b5b600182019050919050565b7f4f6e6c7920537570706c79436861696e00000000000000000000000000000000600082015250565b6000611a8b601083611529565b9150611a9682611a55565b602082019050919050565b60006020820190508181036000830152611aba81611a7e565b9050919050565b7f4f6e6c79206f776e657200000000000000000000000000000000000000000000600082015250565b6000611af7600a83611529565b9150611b0282611ac1565b602082019050919050565b60006020820190508181036000830152611b2681611aea565b9050919050565b7f496e76616c696420537570706c79436861696e00000000000000000000000000600082015250565b6000611b63601383611529565b9150611b6e82611b2d565b602082019050919050565b60006020820190508181036000830152611b9281611b56565b9050919050565b7f416c726561647920736574000000000000000000000000000000000000000000600082015250565b6000611bcf600b83611529565b9150611bda82611b99565b602082019050919050565b60006020820190508181036000830152611bfe81611bc2565b905091905056fea2646970667358221220c167d9579785bdfba78bc9f7749bd0c0c50ef25978fefa45009305a5f1c05c1864736f6c63430008140033",
  "linkReferences": {},
  "deployedLinkReferences": {}
}