{
  "_format": "hh-sol-artifact-1",
  "contractName": "Escrow",
  "sourceName": "contracts/Escrow.sol",
  "abi": [
    {
      "anonymous": false,
      "inputs": [
        {
          "indexed": false,
          "internalType": "uint256",
          "name": "id",
          "type": "uint256"
        },
        {
          "indexed": false,
          "internalType": "uint256",
          "name": "amount",
          "type": "uint256"
        }
      ],
      "name": "PaymentDeposited",
      "type": "event"
    },
    {
      "anonymous": false,
      "inputs": [
        {
          "indexed": false,
          "internalType": "uint256",
          "name": "id",
          "type": "uint256"
        }
      ],
      "name": "PaymentReleased",
      "type": "event"
    },
    {
      "anonymous": false,
      "inputs": [
        {
          "indexed": false,
          "internalType": "uint256",
          "name": "id",
          "type": "uint256"
        }
      ],
      "name": "Refunded",
      "type": "event"
    },
    {
      "anonymous": false,
      "inputs": [
        {
          "indexed": false,
          "internalType": "uint256",
          "name": "id",
          "type": "uint256"
        },
        {
          "indexed": false,
          "internalType": "uint256",
          "name": "productId",
          "type": "uint256"
        },
        {
          "indexed": false,
          "internalType": "address",
          "name": "buyer",
          "type": "address"
        },
        {
          "indexed": false,
          "internalType": "address",
          "name": "seller",
          "type": "address"
        }
      ],
      "name": "TransactionCreated",
      "type": "event"
    },
    {
      "inputs": [
        {
          "internalType": "uint256",
          "name": "_productId",
          "type": "uint256"
        },
        {
          "internalType": "address",
          "name": "_seller",
          "type": "address"
        }
      ],
      "name": "createTransaction",
      "outputs": [],
      "stateMutability": "nonpayable",
      "type": "function"
    },
    {
      "inputs": [
        {
          "internalType": "uint256",
          "name": "_productId",
          "type": "uint256"
        }
      ],
      "name": "depositPayment",
      "outputs": [],
      "stateMutability": "payable",
      "type": "function"
    },
    {
      "inputs": [
        {
          "internalType": "uint256",
          "name": "_productId",
          "type": "uint256"
        }
      ],
      "name": "getTransaction",
      "outputs": [
        {
          "internalType": "uint256",
          "name": "",
          "type": "uint256"
        },
        {
          "internalType": "uint256",
          "name": "",
          "type": "uint256"
        },
        {
          "internalType": "address",
          "name": "",
          "type": "address"
        },
        {
          "internalType": "address",
          "name": "",
          "type": "address"
        },
        {
          "internalType": "uint256",
          "name": "",
          "type": "uint256"
        },
        {
          "internalType": "enum Escrow.Status",
          "name": "",
          "type": "uint8"
        }
      ],
      "stateMutability": "view",
      "type": "function"
    },
    {
      "inputs": [
        {
          "internalType": "uint256",
          "name": "",
          "type": "uint256"
        }
      ],
      "name": "productToTxn",
      "outputs": [
        {
          "internalType": "uint256",
          "name": "",
          "type": "uint256"
        }
      ],
      "stateMutability": "view",
      "type": "function"
    },
    {
      "inputs": [
        {
          "internalType": "uint256",
          "name": "_productId",
          "type": "uint256"
        }
      ],
      "name": "refund",
      "outputs": [],
      "stateMutability": "nonpayable",
      "type": "function"
    },
    {
      "inputs": [
        {
          "internalType": "uint256",
          "name": "_productId",
          "type": "uint256"
        }
      ],
      "name": "releasePayment",
      "outputs": [],
      "stateMutability": "nonpayable",
      "type": "function"
    },
    {
      "inputs": [
        {
          "internalType": "address",
          "name": "_supplyChain",
          "type": "address"
        }
      ],
      "name": "setSupplyChain",
      "outputs": [],
      "stateMutability": "nonpayable",
      "type": "function"
    },
    {
      "inputs": [],
      "name": "supplyChain",
      "outputs": [
        {
          "internalType": "address",
          "name": "",
          "type": "address"
        }
      ],
      "stateMutability": "view",
      "type": "function"
    },
    {
      "inputs": [],
      "name": "transactionCount",
      "outputs": [
        {
          "internalType": "uint256",
          "name": "",
          "type": "uint256"
        }
      ],
      "stateMutability": "view",
      "type": "function"
    },
    {
      "inputs": [
        {
          "internalType": "uint256",
          "name": "",
          "type": "uint256"
        }
      ],
      "name": "transactions",
      "outputs": [
        {
          "internalType": "uint256",
          "name": "id",
          "type": "uint256"
        },
        {
          "internalType": "uint256",
          "name": "productId",
          "type": "uint256"
        },
        {
          "internalType": "address",
          "name": "buyer",
          "type": "address"
        },
        {
          "internalType": "address",
          "name": "seller",
          "type": "address"
        },
        {
          "internalType": "uint256",
          "name": "amount",
          "type": "uint256"
        },
        {
          "internalType": "enum Escrow.Status",
          "name": "status",
          "type": "uint8"
        }
      ],
      "stateMutability": "view",
      "type": "function"
    }
  ],
  "bytecode": "0x608060405234801561001057600080fd5b50611447806100206000396000f3fe6080604052600436106100915760003560e01c806388685cd91161005957806388685cd91461018357806388d84b66146101ac5780639ace38c2146101d7578063ad6d313714610219578063b77bf6001461024257610091565b8063278ecde1146100965780632c32baef146100bf57806333ea3dc8146100fc5780636b749c471461013e5780637cf4c5431461015a575b600080fd5b3480156100a257600080fd5b506100bd60048036038101906100b89190610e03565b61026d565b005b3480156100cb57600080fd5b506100e660048036038101906100e19190610e03565b61047e565b6040516100f39190610e3f565b60405180910390f35b34801561010857600080fd5b50610123600480360381019061011e9190610e03565b610496565b60405161013596959493929190610f12565b60405180910390f35b61015860048036038101906101539190610e03565b610613565b005b34801561016657600080fd5b50610181600480360381019061017c9190610f9f565b610803565b005b34801561018f57600080fd5b506101aa60048036038101906101a59190610e03565b610a2f565b005b3480156101b857600080fd5b506101c1610c3e565b6040516101ce9190610fdf565b60405180910390f35b3480156101e357600080fd5b506101fe60048036038101906101f99190610e03565b610c64565b60405161021096959493929190610f12565b60405180910390f35b34801561022557600080fd5b50610240600480360381019061023b9190610ffa565b610ced565b005b34801561024e57600080fd5b50610257610dc2565b6040516102649190610e3f565b60405180910390f35b60006002600083815260200190815260200160002054905060006001600083815260200190815260200160002090508060030160009054906101000a900473ffffffffffffffffffffffffffffffffffffffff1673ffffffffffffffffffffffffffffffffffffffff163373ffffffffffffffffffffffffffffffffffffffff161461032e576040517f08c379a000000000000000000000000000000000000000000000000000000000815260040161032590611084565b60405180910390fd5b6001600381111561034257610341610e9b565b5b8160050160009054906101000a900460ff16600381111561036657610365610e9b565b5b146103a6576040517f08c379a000000000000000000000000000000000000000000000000000000000815260040161039d906110f0565b60405180910390fd5b60038160050160006101000a81548160ff021916908360038111156103ce576103cd610e9b565b5b02179055508060020160009054906101000a900473ffffffffffffffffffffffffffffffffffffffff1673ffffffffffffffffffffffffffffffffffffffff166108fc82600401549081150290604051600060405180830381858888f19350505050158015610441573d6000803e3d6000fd5b507f3d2a04f53164bedf9a8a46353305d6b2d2261410406df3b41f99ce6489dc003c826040516104719190610e3f565b60405180910390a1505050565b60026020528060005260406000206000915090505481565b6000806000806000806000600260008981526020019081526020016000205490506000600160008381526020019081526020016000206040518060c001604052908160008201548152602001600182015481526020016002820160009054906101000a900473ffffffffffffffffffffffffffffffffffffffff1673ffffffffffffffffffffffffffffffffffffffff1673ffffffffffffffffffffffffffffffffffffffff1681526020016003820160009054906101000a900473ffffffffffffffffffffffffffffffffffffffff1673ffffffffffffffffffffffffffffffffffffffff1673ffffffffffffffffffffffffffffffffffffffff168152602001600482015481526020016005820160009054906101000a900460ff1660038111156105c6576105c5610e9b565b5b60038111156105d8576105d7610e9b565b5b815250509050806000015181602001518260400151836060015184608001518560a00151975097509750975097509750505091939550919395565b60006002600083815260200190815260200160002054905060006001600083815260200190815260200160002090508060020160009054906101000a900473ffffffffffffffffffffffffffffffffffffffff1673ffffffffffffffffffffffffffffffffffffffff163373ffffffffffffffffffffffffffffffffffffffff16146106d4576040517f08c379a00000000000000000000000000000000000000000000000000000000081526004016106cb9061115c565b60405180910390fd5b600060038111156106e8576106e7610e9b565b5b8160050160009054906101000a900460ff16600381111561070c5761070b610e9b565b5b1461074c576040517f08c379a0000000000000000000000000000000000000000000000000000000008152600401610743906110f0565b60405180910390fd5b6000341161078f576040517f08c379a0000000000000000000000000000000000000000000000000000000008152600401610786906111c8565b60405180910390fd5b34816004018190555060018160050160006101000a81548160ff021916908360038111156107c0576107bf610e9b565b5b02179055507f6a7ac62510e3fd37d671bbf21ff3561ac1ba8b56ab899d4e30790a4ba4324e8582346040516107f69291906111e8565b60405180910390a1505050565b6000600260008481526020019081526020016000205414610859576040517f08c379a00000000000000000000000000000000000000000000000000000000081526004016108509061125d565b60405180910390fd5b60008081548092919061086b906112ac565b91905055506040518060c0016040528060005481526020018381526020013373ffffffffffffffffffffffffffffffffffffffff1681526020018273ffffffffffffffffffffffffffffffffffffffff16815260200160008152602001600060038111156108dc576108db610e9b565b5b8152506001600080548152602001908152602001600020600082015181600001556020820151816001015560408201518160020160006101000a81548173ffffffffffffffffffffffffffffffffffffffff021916908373ffffffffffffffffffffffffffffffffffffffff16021790555060608201518160030160006101000a81548173ffffffffffffffffffffffffffffffffffffffff021916908373ffffffffffffffffffffffffffffffffffffffff1602179055506080820151816004015560a08201518160050160006101000a81548160ff021916908360038111156109ca576109c9610e9b565b5b021790555090505060005460026000848152602001908152602001600020819055507fcb75c9296484fe6502ce355f95715161189c26f09a8bc8f9c1da7327d06c0dce600054833384604051610a2394939291906112f4565b60405180910390a15050565b600360009054906101000a900473ffffffffffffffffffffffffffffffffffffffff1673ffffffffffffffffffffffffffffffffffffffff163373ffffffffffffffffffffffffffffffffffffffff1614610abf576040517f08c379a0000000000000000000000000000000000000000000000000000000008152600401610ab690611385565b60405180910390fd5b600060026000838152602001908152602001600020549050600060016000838152602001908152602001600020905060016003811115610b0257610b01610e9b565b5b8160050160009054906101000a900460ff166003811115610b2657610b25610e9b565b5b14610b66576040517f08c379a0000000000000000000000000000000000000000000000000000000008152600401610b5d906110f0565b60405180910390fd5b60028160050160006101000a81548160ff02191690836003811115610b8e57610b8d610e9b565b5b02179055508060030160009054906101000a900473ffffffffffffffffffffffffffffffffffffffff1673ffffffffffffffffffffffffffffffffffffffff166108fc82600401549081150290604051600060405180830381858888f19350505050158015610c01573d6000803e3d6000fd5b507f7094d01aa39ef767229e67850ef530b588b0dc1576b827e94f51a1f06300743482604051610c319190610e3f565b60405180910390a1505050565b600360009054906101000a900473ffffffffffffffffffffffffffffffffffffffff1681565b60016020528060005260406000206000915090508060000154908060010154908060020160009054906101000a900473ffffffffffffffffffffffffffffffffffffffff16908060030160009054906101000a900473ffffffffffffffffffffffffffffffffffffffff16908060040154908060050160009054906101000a900460ff16905086565b600073ffffffffffffffffffffffffffffffffffffffff16600360009054906101000a900473ffffffffffffffffffffffffffffffffffffffff1673ffffffffffffffffffffffffffffffffffffffff1614610d7e576040517f08c379a0000000000000000000000000000000000000000000000000000000008152600401610d75906113f1565b60405180910390fd5b80600360006101000a81548173ffffffffffffffffffffffffffffffffffffffff021916908373ffffffffffffffffffffffffffffffffffffffff16021790555050565b60005481565b600080fd5b6000819050919050565b610de081610dcd565b8114610deb57600080fd5b50565b600081359050610dfd81610dd7565b92915050565b600060208284031215610e1957610e18610dc8565b5b6000610e2784828501610dee565b91505092915050565b610e3981610dcd565b82525050565b6000602082019050610e546000830184610e30565b92915050565b600073ffffffffffffffffffffffffffffffffffffffff82169050919050565b6000610e8582610e5a565b9050919050565b610e9581610e7a565b82525050565b7f4e487b7100000000000000000000000000000000000000000000000000000000600052602160045260246000fd5b60048110610edb57610eda610e9b565b5b50565b6000819050610eec82610eca565b919050565b6000610efc82610ede565b9050919050565b610f0c81610ef1565b82525050565b600060c082019050610f276000830189610e30565b610f346020830188610e30565b610f416040830187610e8c565b610f4e6060830186610e8c565b610f5b6080830185610e30565b610f6860a0830184610f03565b979650505050505050565b610f7c81610e7a565b8114610f8757600080fd5b50565b600081359050610f9981610f73565b92915050565b60008060408385031215610fb657610fb5610dc8565b5b6000610fc485828601610dee565b9250506020610fd585828601610f8a565b9150509250929050565b6000602082019050610ff46000830184610e8c565b92915050565b6000602082840312156110105761100f610dc8565b5b600061101e84828501610f8a565b91505092915050565b600082825260208201905092915050565b7f4f6e6c792073656c6c6572000000000000000000000000000000000000000000600082015250565b600061106e600b83611027565b915061107982611038565b602082019050919050565b6000602082019050818103600083015261109d81611061565b9050919050565b7f496e76616c696420737461746500000000000000000000000000000000000000600082015250565b60006110da600d83611027565b91506110e5826110a4565b602082019050919050565b60006020820190508181036000830152611109816110cd565b9050919050565b7f4f6e6c7920627579657200000000000000000000000000000000000000000000600082015250565b6000611146600a83611027565b915061115182611110565b602082019050919050565b6000602082019050818103600083015261117581611139565b9050919050565b7f416d6f756e74203e203000000000000000000000000000000000000000000000600082015250565b60006111b2600a83611027565b91506111bd8261117c565b602082019050919050565b600060208201905081810360008301526111e1816111a5565b9050919050565b60006040820190506111fd6000830185610e30565b61120a6020830184610e30565b9392505050565b7f416c726561647920657869737473000000000000000000000000000000000000600082015250565b6000611247600e83611027565b915061125282611211565b602082019050919050565b600060208201905081810360008301526112768161123a565b9050919050565b7f4e487b7100000000000000000000000000000000000000000000000000000000600052601160045260246000fd5b60006112b782610dcd565b91507fffffffffffffffffffffffffffffffffffffffffffffffffffffffffffffffff82036112e9576112e861127d565b5b600182019050919050565b60006080820190506113096000830187610e30565b6113166020830186610e30565b6113236040830185610e8c565b6113306060830184610e8c565b95945050505050565b7f4f6e6c7920537570706c79436861696e00000000000000000000000000000000600082015250565b600061136f601083611027565b915061137a82611339565b602082019050919050565b6000602082019050818103600083015261139e81611362565b9050919050565b7f416c726561647920736574000000000000000000000000000000000000000000600082015250565b60006113db600b83611027565b91506113e6826113a5565b602082019050919050565b6000602082019050818103600083015261140a816113ce565b905091905056fea26469706673582212207f3c53ddd292461732d0759f04fd6ff4640190946e8d4f0aec07ce7087e337c564736f6c63430008140033",
  "linkReferences": {},
  "deployedLinkReferences": {}
}