{
  "_format": "hh-sol-artifact-1",
  "contractName": "Escrow",
  "sourceName": "contracts/Escrow.sol",
  "abi": [
    {
      "anonymous": false,
      "inputs": [
        {
          "indexed": false,
          "internalType": "uint256",
          "name": "id",
          "type": "uint256"
        }
      ],
      "name": "PaymentDeposited",
      "type": "event"
    },
    {
      "anonymous": false,
      "inputs": [
        {
          "indexed": false,
          "internalType": "uint256",
          "name": "id",
          "type": "uint256"
        }
      ],
      "name": "PaymentReleased",
      "type": "event"
    },
    {
      "anonymous": false,
      "inputs": [
        {
          "indexed": false,
          "internalType": "uint256",
          "name": "id",
          "type": "uint256"
        }
      ],
      "name": "Refunded",
      "type": "event"
    },
    {
      "anonymous": false,
      "inputs": [
        {
          "indexed": false,
          "internalType": "uint256",
          "name": "id",
          "type": "uint256"
        },
        {
          "indexed": false,
          "internalType": "address",
          "name": "buyer",
          "type": "address"
        },
        {
          "indexed": false,
          "internalType": "address",
          "name": "seller",
          "type": "address"
        },
        {
          "indexed": false,
          "internalType": "uint256",
          "name": "amount",
          "type": "uint256"
        }
      ],
      "name": "TransactionCreated",
      "type": "event"
    },
    {
      "inputs": [
        {
          "internalType": "uint256",
          "name": "_id",
          "type": "uint256"
        }
      ],
      "name": "confirmDelivery",
      "outputs": [],
      "stateMutability": "nonpayable",
      "type": "function"
    },
    {
      "inputs": [
        {
          "internalType": "address",
          "name": "_seller",
          "type": "address"
        }
      ],
      "name": "createTransaction",
      "outputs": [],
      "stateMutability": "nonpayable",
      "type": "function"
    },
    {
      "inputs": [
        {
          "internalType": "uint256",
          "name": "_id",
          "type": "uint256"
        }
      ],
      "name": "depositPayment",
      "outputs": [],
      "stateMutability": "payable",
      "type": "function"
    },
    {
      "inputs": [
        {
          "internalType": "uint256",
          "name": "_id",
          "type": "uint256"
        }
      ],
      "name": "getTransaction",
      "outputs": [
        {
          "internalType": "uint256",
          "name": "",
          "type": "uint256"
        },
        {
          "internalType": "address",
          "name": "",
          "type": "address"
        },
        {
          "internalType": "address",
          "name": "",
          "type": "address"
        },
        {
          "internalType": "uint256",
          "name": "",
          "type": "uint256"
        },
        {
          "internalType": "enum Escrow.Status",
          "name": "",
          "type": "uint8"
        }
      ],
      "stateMutability": "view",
      "type": "function"
    },
    {
      "inputs": [
        {
          "internalType": "uint256",
          "name": "_id",
          "type": "uint256"
        }
      ],
      "name": "refund",
      "outputs": [],
      "stateMutability": "nonpayable",
      "type": "function"
    },
    {
      "inputs": [],
      "name": "transactionCount",
      "outputs": [
        {
          "internalType": "uint256",
          "name": "",
          "type": "uint256"
        }
      ],
      "stateMutability": "view",
      "type": "function"
    },
    {
      "inputs": [
        {
          "internalType": "uint256",
          "name": "",
          "type": "uint256"
        }
      ],
      "name": "transactions",
      "outputs": [
        {
          "internalType": "uint256",
          "name": "id",
          "type": "uint256"
        },
        {
          "internalType": "address",
          "name": "buyer",
          "type": "address"
        },
        {
          "internalType": "address",
          "name": "seller",
          "type": "address"
        },
        {
          "internalType": "uint256",
          "name": "amount",
          "type": "uint256"
        },
        {
          "internalType": "enum Escrow.Status",
          "name": "status",
          "type": "uint8"
        }
      ],
      "stateMutability": "view",
      "type": "function"
    }
  ],
  "bytecode": "0x608060405234801561001057600080fd5b5061105e806100206000396000f3fe6080604052600436106100705760003560e01c80639ace38c21161004e5780639ace38c2146100fb578063a23927ee1461013c578063b77bf60014610165578063fd84cb971461019057610070565b8063278ecde11461007557806333ea3dc81461009e5780636b749c47146100df575b600080fd5b34801561008157600080fd5b5061009c60048036038101906100979190610b3f565b6101b9565b005b3480156100aa57600080fd5b506100c560048036038101906100c09190610b3f565b6103b1565b6040516100d6959493929190610c33565b60405180910390f35b6100f960048036038101906100f49190610b3f565b610502565b005b34801561010757600080fd5b50610122600480360381019061011d9190610b3f565b6106d7565b604051610133959493929190610c33565b60405180910390f35b34801561014857600080fd5b50610163600480360381019061015e9190610cb2565b61075a565b005b34801561017157600080fd5b5061017a610906565b6040516101879190610cdf565b60405180910390f35b34801561019c57600080fd5b506101b760048036038101906101b29190610b3f565b61090c565b005b60006001600083815260200190815260200160002090508060020160009054906101000a900473ffffffffffffffffffffffffffffffffffffffff1673ffffffffffffffffffffffffffffffffffffffff163373ffffffffffffffffffffffffffffffffffffffff1614610262576040517f08c379a000000000000000000000000000000000000000000000000000000000815260040161025990610d57565b60405180910390fd5b6001600381111561027657610275610bbc565b5b8160040160009054906101000a900460ff16600381111561029a57610299610bbc565b5b146102da576040517f08c379a00000000000000000000000000000000000000000000000000000000081526004016102d190610dc3565b60405180910390fd5b60038160040160006101000a81548160ff0219169083600381111561030257610301610bbc565b5b02179055508060010160009054906101000a900473ffffffffffffffffffffffffffffffffffffffff1673ffffffffffffffffffffffffffffffffffffffff166108fc82600301549081150290604051600060405180830381858888f19350505050158015610375573d6000803e3d6000fd5b507f3d2a04f53164bedf9a8a46353305d6b2d2261410406df3b41f99ce6489dc003c826040516103a59190610cdf565b60405180910390a15050565b600080600080600080600160008881526020019081526020016000206040518060a0016040529081600082015481526020016001820160009054906101000a900473ffffffffffffffffffffffffffffffffffffffff1673ffffffffffffffffffffffffffffffffffffffff1673ffffffffffffffffffffffffffffffffffffffff1681526020016002820160009054906101000a900473ffffffffffffffffffffffffffffffffffffffff1673ffffffffffffffffffffffffffffffffffffffff1673ffffffffffffffffffffffffffffffffffffffff168152602001600382015481526020016004820160009054906101000a900460ff1660038111156104bd576104bc610bbc565b5b60038111156104cf576104ce610bbc565b5b81525050905080600001518160200151826040015183606001518460800151955095509550955095505091939590929450565b60006001600083815260200190815260200160002090508060010160009054906101000a900473ffffffffffffffffffffffffffffffffffffffff1673ffffffffffffffffffffffffffffffffffffffff163373ffffffffffffffffffffffffffffffffffffffff16146105ab576040517f08c379a00000000000000000000000000000000000000000000000000000000081526004016105a290610e2f565b60405180910390fd5b600060038111156105bf576105be610bbc565b5b8160040160009054906101000a900460ff1660038111156105e3576105e2610bbc565b5b14610623576040517f08c379a000000000000000000000000000000000000000000000000000000000815260040161061a90610dc3565b60405180910390fd5b60003411610666576040517f08c379a000000000000000000000000000000000000000000000000000000000815260040161065d90610e9b565b60405180910390fd5b34816003018190555060018160040160006101000a81548160ff0219169083600381111561069757610696610bbc565b5b02179055507f49bd70090edab93c612ae021b6f3fa28a2aa80bf732b19d31a90eae8c5125bc1826040516106cb9190610cdf565b60405180910390a15050565b60016020528060005260406000206000915090508060000154908060010160009054906101000a900473ffffffffffffffffffffffffffffffffffffffff16908060020160009054906101000a900473ffffffffffffffffffffffffffffffffffffffff16908060030154908060040160009054906101000a900460ff16905085565b60008081548092919061076c90610eea565b91905055506040518060a0016040528060005481526020013373ffffffffffffffffffffffffffffffffffffffff1681526020018273ffffffffffffffffffffffffffffffffffffffff16815260200160008152602001600060038111156107d7576107d6610bbc565b5b81525060016000805481526020019081526020016000206000820151816000015560208201518160010160006101000a81548173ffffffffffffffffffffffffffffffffffffffff021916908373ffffffffffffffffffffffffffffffffffffffff16021790555060408201518160020160006101000a81548173ffffffffffffffffffffffffffffffffffffffff021916908373ffffffffffffffffffffffffffffffffffffffff1602179055506060820151816003015560808201518160040160006101000a81548160ff021916908360038111156108bb576108ba610bbc565b5b02179055509050507fe9097a4f4eddc0e5906640fcd9e1193c9db52771536ca4c8b06ab4c40aa045d2600054338360006040516108fb9493929190610f77565b60405180910390a150565b60005481565b60006001600083815260200190815260200160002090508060010160009054906101000a900473ffffffffffffffffffffffffffffffffffffffff1673ffffffffffffffffffffffffffffffffffffffff163373ffffffffffffffffffffffffffffffffffffffff16146109b5576040517f08c379a00000000000000000000000000000000000000000000000000000000081526004016109ac90611008565b60405180910390fd5b600160038111156109c9576109c8610bbc565b5b8160040160009054906101000a900460ff1660038111156109ed576109ec610bbc565b5b14610a2d576040517f08c379a0000000000000000000000000000000000000000000000000000000008152600401610a2490610dc3565b60405180910390fd5b60028160040160006101000a81548160ff02191690836003811115610a5557610a54610bbc565b5b02179055508060020160009054906101000a900473ffffffffffffffffffffffffffffffffffffffff1673ffffffffffffffffffffffffffffffffffffffff166108fc82600301549081150290604051600060405180830381858888f19350505050158015610ac8573d6000803e3d6000fd5b507f7094d01aa39ef767229e67850ef530b588b0dc1576b827e94f51a1f06300743482604051610af89190610cdf565b60405180910390a15050565b600080fd5b6000819050919050565b610b1c81610b09565b8114610b2757600080fd5b50565b600081359050610b3981610b13565b92915050565b600060208284031215610b5557610b54610b04565b5b6000610b6384828501610b2a565b91505092915050565b610b7581610b09565b82525050565b600073ffffffffffffffffffffffffffffffffffffffff82169050919050565b6000610ba682610b7b565b9050919050565b610bb681610b9b565b82525050565b7f4e487b7100000000000000000000000000000000000000000000000000000000600052602160045260246000fd5b60048110610bfc57610bfb610bbc565b5b50565b6000819050610c0d82610beb565b919050565b6000610c1d82610bff565b9050919050565b610c2d81610c12565b82525050565b600060a082019050610c486000830188610b6c565b610c556020830187610bad565b610c626040830186610bad565b610c6f6060830185610b6c565b610c7c6080830184610c24565b9695505050505050565b610c8f81610b9b565b8114610c9a57600080fd5b50565b600081359050610cac81610c86565b92915050565b600060208284031215610cc857610cc7610b04565b5b6000610cd684828501610c9d565b91505092915050565b6000602082019050610cf46000830184610b6c565b92915050565b600082825260208201905092915050565b7f4f6e6c792073656c6c65722063616e20726566756e6400000000000000000000600082015250565b6000610d41601683610cfa565b9150610d4c82610d0b565b602082019050919050565b60006020820190508181036000830152610d7081610d34565b9050919050565b7f496e76616c696420737461746500000000000000000000000000000000000000600082015250565b6000610dad600d83610cfa565b9150610db882610d77565b602082019050919050565b60006020820190508181036000830152610ddc81610da0565b9050919050565b7f4f6e6c792062757965722063616e207061790000000000000000000000000000600082015250565b6000610e19601283610cfa565b9150610e2482610de3565b602082019050919050565b60006020820190508181036000830152610e4881610e0c565b9050919050565b7f416d6f756e74206d757374206265203e20300000000000000000000000000000600082015250565b6000610e85601283610cfa565b9150610e9082610e4f565b602082019050919050565b60006020820190508181036000830152610eb481610e78565b9050919050565b7f4e487b7100000000000000000000000000000000000000000000000000000000600052601160045260246000fd5b6000610ef582610b09565b91507fffffffffffffffffffffffffffffffffffffffffffffffffffffffffffffffff8203610f2757610f26610ebb565b5b600182019050919050565b6000819050919050565b6000819050919050565b6000610f61610f5c610f5784610f32565b610f3c565b610b09565b9050919050565b610f7181610f46565b82525050565b6000608082019050610f8c6000830187610b6c565b610f996020830186610bad565b610fa66040830185610bad565b610fb36060830184610f68565b95945050505050565b7f4f6e6c792062757965722063616e20636f6e6669726d00000000000000000000600082015250565b6000610ff2601683610cfa565b9150610ffd82610fbc565b602082019050919050565b6000602082019050818103600083015261102181610fe5565b905091905056fea2646970667358221220c6e9baa341f1b2168697a1f1b449d23c0d4308fea06aa76711d61a977a2b167064736f6c63430008140033",
  "linkReferences": {},
  "deployedLinkReferences": {}
}