{
  "_format": "hh-sol-artifact-1",
  "contractName": "Escrow",
  "sourceName": "contracts/Escrow.sol",
  "abi": [
    {
      "inputs": [],
      "stateMutability": "nonpayable",
      "type": "constructor"
    },
    {
      "anonymous": false,
      "inputs": [
        {
          "indexed": true,
          "internalType": "uint256",
          "name": "id",
          "type": "uint256"
        },
        {
          "indexed": false,
          "internalType": "uint256",
          "name": "amount",
          "type": "uint256"
        }
      ],
      "name": "PaymentDeposited",
      "type": "event"
    },
    {
      "anonymous": false,
      "inputs": [
        {
          "indexed": true,
          "internalType": "uint256",
          "name": "id",
          "type": "uint256"
        }
      ],
      "name": "PaymentReleased",
      "type": "event"
    },
    {
      "anonymous": false,
      "inputs": [
        {
          "indexed": true,
          "internalType": "uint256",
          "name": "id",
          "type": "uint256"
        }
      ],
      "name": "Refunded",
      "type": "event"
    },
    {
      "anonymous": false,
      "inputs": [
        {
          "indexed": true,
          "internalType": "address",
          "name": "supplyChain",
          "type": "address"
        }
      ],
      "name": "SupplyChainSet",
      "type": "event"
    },
    {
      "anonymous": false,
      "inputs": [
        {
          "indexed": true,
          "internalType": "uint256",
          "name": "id",
          "type": "uint256"
        },
        {
          "indexed": true,
          "internalType": "uint256",
          "name": "productId",
          "type": "uint256"
        },
        {
          "indexed": true,
          "internalType": "address",
          "name": "buyer",
          "type": "address"
        },
        {
          "indexed": false,
          "internalType": "address",
          "name": "seller",
          "type": "address"
        }
      ],
      "name": "TransactionCreated",
      "type": "event"
    },
    {
      "inputs": [
        {
          "internalType": "uint256",
          "name": "_productId",
          "type": "uint256"
        },
        {
          "internalType": "address",
          "name": "_seller",
          "type": "address"
        }
      ],
      "name": "createTransaction",
      "outputs": [],
      "stateMutability": "nonpayable",
      "type": "function"
    },
    {
      "inputs": [
        {
          "internalType": "uint256",
          "name": "_productId",
          "type": "uint256"
        }
      ],
      "name": "depositPayment",
      "outputs": [],
      "stateMutability": "payable",
      "type": "function"
    },
    {
      "inputs": [
        {
          "internalType": "uint256",
          "name": "_productId",
          "type": "uint256"
        }
      ],
      "name": "getTransaction",
      "outputs": [
        {
          "internalType": "uint256",
          "name": "",
          "type": "uint256"
        },
        {
          "internalType": "uint256",
          "name": "",
          "type": "uint256"
        },
        {
          "internalType": "address",
          "name": "",
          "type": "address"
        },
        {
          "internalType": "address",
          "name": "",
          "type": "address"
        },
        {
          "internalType": "uint256",
          "name": "",
          "type": "uint256"
        },
        {
          "internalType": "enum Escrow.Status",
          "name": "",
          "type": "uint8"
        }
      ],
      "stateMutability": "view",
      "type": "function"
    },
    {
      "inputs": [
        {
          "internalType": "uint256",
          "name": "_productId",
          "type": "uint256"
        }
      ],
      "name": "getTransactionIdByProduct",
      "outputs": [
        {
          "internalType": "uint256",
          "name": "",
          "type": "uint256"
        }
      ],
      "stateMutability": "view",
      "type": "function"
    },
    {
      "inputs": [],
      "name": "owner",
      "outputs": [
        {
          "internalType": "address",
          "name": "",
          "type": "address"
        }
      ],
      "stateMutability": "view",
      "type": "function"
    },
    {
      "inputs": [
        {
          "internalType": "uint256",
          "name": "",
          "type": "uint256"
        }
      ],
      "name": "productToTxn",
      "outputs": [
        {
          "internalType": "uint256",
          "name": "",
          "type": "uint256"
        }
      ],
      "stateMutability": "view",
      "type": "function"
    },
    {
      "inputs": [
        {
          "internalType": "uint256",
          "name": "_productId",
          "type": "uint256"
        }
      ],
      "name": "refund",
      "outputs": [],
      "stateMutability": "nonpayable",
      "type": "function"
    },
    {
      "inputs": [
        {
          "internalType": "uint256",
          "name": "_productId",
          "type": "uint256"
        }
      ],
      "name": "releasePayment",
      "outputs": [],
      "stateMutability": "nonpayable",
      "type": "function"
    },
    {
      "inputs": [
        {
          "internalType": "address",
          "name": "_supplyChain",
          "type": "address"
        }
      ],
      "name": "setSupplyChain",
      "outputs": [],
      "stateMutability": "nonpayable",
      "type": "function"
    },
    {
      "inputs": [],
      "name": "supplyChain",
      "outputs": [
        {
          "internalType": "address",
          "name": "",
          "type": "address"
        }
      ],
      "stateMutability": "view",
      "type": "function"
    },
    {
      "inputs": [],
      "name": "transactionCount",
      "outputs": [
        {
          "internalType": "uint256",
          "name": "",
          "type": "uint256"
        }
      ],
      "stateMutability": "view",
      "type": "function"
    },
    {
      "inputs": [
        {
          "internalType": "uint256",
          "name": "",
          "type": "uint256"
        }
      ],
      "name": "transactions",
      "outputs": [
        {
          "internalType": "uint256",
          "name": "id",
          "type": "uint256"
        },
        {
          "internalType": "uint256",
          "name": "productId",
          "type": "uint256"
        },
        {
          "internalType": "address",
          "name": "buyer",
          "type": "address"
        },
        {
          "internalType": "address",
          "name": "seller",
          "type": "address"
        },
        {
          "internalType": "uint256",
          "name": "amount",
          "type": "uint256"
        },
        {
          "internalType": "enum Escrow.Status",
          "name": "status",
          "type": "uint8"
        }
      ],
      "stateMutability": "view",
      "type": "function"
    }
  ],
  "bytecode": "0x608060405234801561001057600080fd5b5033600260006101000a81548173ffffffffffffffffffffffffffffffffffffffff021916908373ffffffffffffffffffffffffffffffffffffffff16021790555061218f806100616000396000f3fe6080604052600436106100a75760003560e01c806388685cd91161006457806388685cd9146101d657806388d84b66146101ff5780638da5cb5b1461022a5780639ace38c214610255578063ad6d313714610297578063b77bf600146102c0576100a7565b806313b23d10146100ac578063278ecde1146100e95780632c32baef1461011257806333ea3dc81461014f5780636b749c47146101915780637cf4c543146101ad575b600080fd5b3480156100b857600080fd5b506100d360048036038101906100ce9190611511565b6102eb565b6040516100e0919061154d565b60405180910390f35b3480156100f557600080fd5b50610110600480360381019061010b9190611511565b610308565b005b34801561011e57600080fd5b5061013960048036038101906101349190611511565b610609565b604051610146919061154d565b60405180910390f35b34801561015b57600080fd5b5061017660048036038101906101719190611511565b610621565b60405161018896959493929190611620565b60405180910390f35b6101ab60048036038101906101a69190611511565b6107e1565b005b3480156101b957600080fd5b506101d460048036038101906101cf91906116ad565b610a5a565b005b3480156101e257600080fd5b506101fd60048036038101906101f89190611511565b610f61565b005b34801561020b57600080fd5b50610214611266565b60405161022191906116ed565b60405180910390f35b34801561023657600080fd5b5061023f61128c565b60405161024c91906116ed565b60405180910390f35b34801561026157600080fd5b5061027c60048036038101906102779190611511565b6112b2565b60405161028e96959493929190611620565b60405180910390f35b3480156102a357600080fd5b506102be60048036038101906102b99190611708565b61133b565b005b3480156102cc57600080fd5b506102d56114c1565b6040516102e2919061154d565b60405180910390f35b600060046000838152602001908152602001600020549050919050565b600260009054906101000a900473ffffffffffffffffffffffffffffffffffffffff1673ffffffffffffffffffffffffffffffffffffffff163373ffffffffffffffffffffffffffffffffffffffff1614610398576040517f08c379a000000000000000000000000000000000000000000000000000000000815260040161038f90611792565b60405180910390fd5b600060046000838152602001908152602001600020549050600081036103f3576040517f08c379a00000000000000000000000000000000000000000000000000000000081526004016103ea906117fe565b60405180910390fd5b60006003600083815260200190815260200160002090506001600381111561041e5761041d6115a9565b5b8160050160009054906101000a900460ff166003811115610442576104416115a9565b5b14610482576040517f08c379a00000000000000000000000000000000000000000000000000000000081526004016104799061186a565b60405180910390fd5b600081600401549050600081116104ce576040517f08c379a00000000000000000000000000000000000000000000000000000000081526004016104c5906118d6565b60405180910390fd5b60038260050160006101000a81548160ff021916908360038111156104f6576104f56115a9565b5b02179055506000826004018190555060008260020160009054906101000a900473ffffffffffffffffffffffffffffffffffffffff1673ffffffffffffffffffffffffffffffffffffffff168260405161054f90611927565b60006040518083038185875af1925050503d806000811461058c576040519150601f19603f3d011682016040523d82523d6000602084013e610591565b606091505b50509050806105d5576040517f08c379a00000000000000000000000000000000000000000000000000000000081526004016105cc90611988565b60405180910390fd5b837f3d2a04f53164bedf9a8a46353305d6b2d2261410406df3b41f99ce6489dc003c60405160405180910390a25050505050565b60046020528060005260406000206000915090505481565b60008060008060008060006004600089815260200190815260200160002054905060008103610685576040517f08c379a000000000000000000000000000000000000000000000000000000000815260040161067c906117fe565b60405180910390fd5b6000600360008381526020019081526020016000206040518060c001604052908160008201548152602001600182015481526020016002820160009054906101000a900473ffffffffffffffffffffffffffffffffffffffff1673ffffffffffffffffffffffffffffffffffffffff1673ffffffffffffffffffffffffffffffffffffffff1681526020016003820160009054906101000a900473ffffffffffffffffffffffffffffffffffffffff1673ffffffffffffffffffffffffffffffffffffffff1673ffffffffffffffffffffffffffffffffffffffff168152602001600482015481526020016005820160009054906101000a900460ff166003811115610794576107936115a9565b5b60038111156107a6576107a56115a9565b5b815250509050806000015181602001518260400151836060015184608001518560a00151975097509750975097509750505091939550919395565b6000600460008381526020019081526020016000205490506000810361083c576040517f08c379a0000000000000000000000000000000000000000000000000000000008152600401610833906117fe565b60405180910390fd5b60006003600083815260200190815260200160002090508060020160009054906101000a900473ffffffffffffffffffffffffffffffffffffffff1673ffffffffffffffffffffffffffffffffffffffff163373ffffffffffffffffffffffffffffffffffffffff16146108e5576040517f08c379a00000000000000000000000000000000000000000000000000000000081526004016108dc906119f4565b60405180910390fd5b600060038111156108f9576108f86115a9565b5b8160050160009054906101000a900460ff16600381111561091d5761091c6115a9565b5b1461095d576040517f08c379a00000000000000000000000000000000000000000000000000000000081526004016109549061186a565b60405180910390fd5b600034116109a0576040517f08c379a000000000000000000000000000000000000000000000000000000000815260040161099790611a60565b60405180910390fd5b60008160040154146109e7576040517f08c379a00000000000000000000000000000000000000000000000000000000081526004016109de90611acc565b60405180910390fd5b34816004018190555060018160050160006101000a81548160ff02191690836003811115610a1857610a176115a9565b5b0217905550817f6a7ac62510e3fd37d671bbf21ff3561ac1ba8b56ab899d4e30790a4ba4324e8534604051610a4d919061154d565b60405180910390a2505050565b600073ffffffffffffffffffffffffffffffffffffffff16600160009054906101000a900473ffffffffffffffffffffffffffffffffffffffff1673ffffffffffffffffffffffffffffffffffffffff1603610aeb576040517f08c379a0000000000000000000000000000000000000000000000000000000008152600401610ae290611b38565b60405180910390fd5b60008211610b2e576040517f08c379a0000000000000000000000000000000000000000000000000000000008152600401610b2590611ba4565b60405180910390fd5b600073ffffffffffffffffffffffffffffffffffffffff168173ffffffffffffffffffffffffffffffffffffffff1603610b9d576040517f08c379a0000000000000000000000000000000000000000000000000000000008152600401610b9490611c10565b60405180910390fd5b6000600460008481526020019081526020016000205414610bf3576040517f08c379a0000000000000000000000000000000000000000000000000000000008152600401610bea90611c7c565b60405180910390fd5b8073ffffffffffffffffffffffffffffffffffffffff163373ffffffffffffffffffffffffffffffffffffffff1603610c61576040517f08c379a0000000000000000000000000000000000000000000000000000000008152600401610c5890611ce8565b60405180910390fd5b6000600160009054906101000a900473ffffffffffffffffffffffffffffffffffffffff1673ffffffffffffffffffffffffffffffffffffffff1663b9db15b4846040518263ffffffff1660e01b8152600401610cbe919061154d565b600060405180830381865afa158015610cdb573d6000803e3d6000fd5b505050506040513d6000823e3d601f19601f82011682018060405250810190610d049190611e93565b93505050508173ffffffffffffffffffffffffffffffffffffffff168173ffffffffffffffffffffffffffffffffffffffff1614610d77576040517f08c379a0000000000000000000000000000000000000000000000000000000008152600401610d6e90611f7e565b60405180910390fd5b600080815480929190610d8990611fcd565b91905055506040518060c0016040528060005481526020018481526020013373ffffffffffffffffffffffffffffffffffffffff1681526020018373ffffffffffffffffffffffffffffffffffffffff1681526020016000815260200160006003811115610dfa57610df96115a9565b5b8152506003600080548152602001908152602001600020600082015181600001556020820151816001015560408201518160020160006101000a81548173ffffffffffffffffffffffffffffffffffffffff021916908373ffffffffffffffffffffffffffffffffffffffff16021790555060608201518160030160006101000a81548173ffffffffffffffffffffffffffffffffffffffff021916908373ffffffffffffffffffffffffffffffffffffffff1602179055506080820151816004015560a08201518160050160006101000a81548160ff02191690836003811115610ee857610ee76115a9565b5b021790555090505060005460046000858152602001908152602001600020819055503373ffffffffffffffffffffffffffffffffffffffff16836000547fcb75c9296484fe6502ce355f95715161189c26f09a8bc8f9c1da7327d06c0dce85604051610f5491906116ed565b60405180910390a4505050565b600160009054906101000a900473ffffffffffffffffffffffffffffffffffffffff1673ffffffffffffffffffffffffffffffffffffffff163373ffffffffffffffffffffffffffffffffffffffff1614610ff1576040517f08c379a0000000000000000000000000000000000000000000000000000000008152600401610fe890612061565b60405180910390fd5b6000600460008381526020019081526020016000205490506000810361104c576040517f08c379a0000000000000000000000000000000000000000000000000000000008152600401611043906117fe565b60405180910390fd5b600060036000838152602001908152602001600020905060016003811115611077576110766115a9565b5b8160050160009054906101000a900460ff16600381111561109b5761109a6115a9565b5b146110db576040517f08c379a00000000000000000000000000000000000000000000000000000000081526004016110d29061186a565b60405180910390fd5b6000816004015411611122576040517f08c379a0000000000000000000000000000000000000000000000000000000008152600401611119906118d6565b60405180910390fd5b60028160050160006101000a81548160ff0219169083600381111561114a576111496115a9565b5b02179055506000816004015490506000826004018190555060008260030160009054906101000a900473ffffffffffffffffffffffffffffffffffffffff1673ffffffffffffffffffffffffffffffffffffffff16826040516111ac90611927565b60006040518083038185875af1925050503d80600081146111e9576040519150601f19603f3d011682016040523d82523d6000602084013e6111ee565b606091505b5050905080611232576040517f08c379a0000000000000000000000000000000000000000000000000000000008152600401611229906120cd565b60405180910390fd5b837f7094d01aa39ef767229e67850ef530b588b0dc1576b827e94f51a1f06300743460405160405180910390a25050505050565b600160009054906101000a900473ffffffffffffffffffffffffffffffffffffffff1681565b600260009054906101000a900473ffffffffffffffffffffffffffffffffffffffff1681565b60036020528060005260406000206000915090508060000154908060010154908060020160009054906101000a900473ffffffffffffffffffffffffffffffffffffffff16908060030160009054906101000a900473ffffffffffffffffffffffffffffffffffffffff16908060040154908060050160009054906101000a900460ff16905086565b600260009054906101000a900473ffffffffffffffffffffffffffffffffffffffff1673ffffffffffffffffffffffffffffffffffffffff163373ffffffffffffffffffffffffffffffffffffffff16146113cb576040517f08c379a00000000000000000000000000000000000000000000000000000000081526004016113c290611792565b60405180910390fd5b600073ffffffffffffffffffffffffffffffffffffffff168173ffffffffffffffffffffffffffffffffffffffff160361143a576040517f08c379a000000000000000000000000000000000000000000000000000000000815260040161143190612139565b60405180910390fd5b80600160006101000a81548173ffffffffffffffffffffffffffffffffffffffff021916908373ffffffffffffffffffffffffffffffffffffffff1602179055508073ffffffffffffffffffffffffffffffffffffffff167ffcd4a59d20f583acd2a724a6dda492d07e9e34a51860a094eb572417f27de70460405160405180910390a250565b60005481565b6000604051905090565b600080fd5b600080fd5b6000819050919050565b6114ee816114db565b81146114f957600080fd5b50565b60008135905061150b816114e5565b92915050565b600060208284031215611527576115266114d1565b5b6000611535848285016114fc565b91505092915050565b611547816114db565b82525050565b6000602082019050611562600083018461153e565b92915050565b600073ffffffffffffffffffffffffffffffffffffffff82169050919050565b600061159382611568565b9050919050565b6115a381611588565b82525050565b7f4e487b7100000000000000000000000000000000000000000000000000000000600052602160045260246000fd5b600481106115e9576115e86115a9565b5b50565b60008190506115fa826115d8565b919050565b600061160a826115ec565b9050919050565b61161a816115ff565b82525050565b600060c082019050611635600083018961153e565b611642602083018861153e565b61164f604083018761159a565b61165c606083018661159a565b611669608083018561153e565b61167660a0830184611611565b979650505050505050565b61168a81611588565b811461169557600080fd5b50565b6000813590506116a781611681565b92915050565b600080604083850312156116c4576116c36114d1565b5b60006116d2858286016114fc565b92505060206116e385828601611698565b9150509250929050565b6000602082019050611702600083018461159a565b92915050565b60006020828403121561171e5761171d6114d1565b5b600061172c84828501611698565b91505092915050565b600082825260208201905092915050565b7f4f6e6c79206f776e657200000000000000000000000000000000000000000000600082015250565b600061177c600a83611735565b915061178782611746565b602082019050919050565b600060208201905081810360008301526117ab8161176f565b9050919050565b7f5472616e73616374696f6e206e6f7420666f756e640000000000000000000000600082015250565b60006117e8601583611735565b91506117f3826117b2565b602082019050919050565b60006020820190508181036000830152611817816117db565b9050919050565b7f496e76616c696420737461746500000000000000000000000000000000000000600082015250565b6000611854600d83611735565b915061185f8261181e565b602082019050919050565b6000602082019050818103600083015261188381611847565b9050919050565b7f4e6f2066756e6473206465706f73697465640000000000000000000000000000600082015250565b60006118c0601283611735565b91506118cb8261188a565b602082019050919050565b600060208201905081810360008301526118ef816118b3565b9050919050565b600081905092915050565b50565b60006119116000836118f6565b915061191c82611901565b600082019050919050565b600061193282611904565b9150819050919050565b7f526566756e64207472616e73666572206661696c656400000000000000000000600082015250565b6000611972601683611735565b915061197d8261193c565b602082019050919050565b600060208201905081810360008301526119a181611965565b9050919050565b7f4f6e6c7920627579657200000000000000000000000000000000000000000000600082015250565b60006119de600a83611735565b91506119e9826119a8565b602082019050919050565b60006020820190508181036000830152611a0d816119d1565b9050919050565b7f416d6f756e74203e203000000000000000000000000000000000000000000000600082015250565b6000611a4a600a83611735565b9150611a5582611a14565b602082019050919050565b60006020820190508181036000830152611a7981611a3d565b9050919050565b7f416c72656164792066756e646564000000000000000000000000000000000000600082015250565b6000611ab6600e83611735565b9150611ac182611a80565b602082019050919050565b60006020820190508181036000830152611ae581611aa9565b9050919050565b7f537570706c79436861696e206e6f742073657400000000000000000000000000600082015250565b6000611b22601383611735565b9150611b2d82611aec565b602082019050919050565b60006020820190508181036000830152611b5181611b15565b9050919050565b7f496e76616c69642070726f647563742049440000000000000000000000000000600082015250565b6000611b8e601283611735565b9150611b9982611b58565b602082019050919050565b60006020820190508181036000830152611bbd81611b81565b9050919050565b7f496e76616c69642073656c6c6572000000000000000000000000000000000000600082015250565b6000611bfa600e83611735565b9150611c0582611bc4565b602082019050919050565b60006020820190508181036000830152611c2981611bed565b9050919050565b7f416c726561647920657869737473000000000000000000000000000000000000600082015250565b6000611c66600e83611735565b9150611c7182611c30565b602082019050919050565b60006020820190508181036000830152611c9581611c59565b9050919050565b7f427579657220616e642073656c6c65722073616d650000000000000000000000600082015250565b6000611cd2601583611735565b9150611cdd82611c9c565b602082019050919050565b60006020820190508181036000830152611d0181611cc5565b9050919050565b600081519050611d17816114e5565b92915050565b600080fd5b600080fd5b6000601f19601f8301169050919050565b7f4e487b7100000000000000000000000000000000000000000000000000000000600052604160045260246000fd5b611d7082611d27565b810181811067ffffffffffffffff82111715611d8f57611d8e611d38565b5b80604052505050565b6000611da26114c7565b9050611dae8282611d67565b919050565b600067ffffffffffffffff821115611dce57611dcd611d38565b5b611dd782611d27565b9050602081019050919050565b60005b83811015611e02578082015181840152602081019050611de7565b60008484015250505050565b6000611e21611e1c84611db3565b611d98565b905082815260208101848484011115611e3d57611e3c611d22565b5b611e48848285611de4565b509392505050565b600082601f830112611e6557611e64611d1d565b5b8151611e75848260208601611e0e565b91505092915050565b600081519050611e8d81611681565b92915050565b60008060008060808587031215611ead57611eac6114d1565b5b6000611ebb87828801611d08565b945050602085015167ffffffffffffffff811115611edc57611edb6114d6565b5b611ee887828801611e50565b935050604085015167ffffffffffffffff811115611f0957611f086114d6565b5b611f1587828801611e50565b9250506060611f2687828801611e7e565b91505092959194509250565b7f53656c6c6572206973206e6f742063757272656e74206f776e65720000000000600082015250565b6000611f68601b83611735565b9150611f7382611f32565b602082019050919050565b60006020820190508181036000830152611f9781611f5b565b9050919050565b7f4e487b7100000000000000000000000000000000000000000000000000000000600052601160045260246000fd5b6000611fd8826114db565b91507fffffffffffffffffffffffffffffffffffffffffffffffffffffffffffffffff820361200a57612009611f9e565b5b600182019050919050565b7f4f6e6c7920537570706c79436861696e00000000000000000000000000000000600082015250565b600061204b601083611735565b915061205682612015565b602082019050919050565b6000602082019050818103600083015261207a8161203e565b9050919050565b7f5061796d656e74207472616e73666572206661696c6564000000000000000000600082015250565b60006120b7601783611735565b91506120c282612081565b602082019050919050565b600060208201905081810360008301526120e6816120aa565b9050919050565b7f496e76616c696420537570706c79436861696e00000000000000000000000000600082015250565b6000612123601383611735565b915061212e826120ed565b602082019050919050565b6000602082019050818103600083015261215281612116565b905091905056fea264697066735822122068fb0f5fb3adb0ab25e8e11b6b13e6be33013a640fc6d6df65211626efc7269b64736f6c63430008140033",
  "linkReferences": {},
  "deployedLinkReferences": {}
}