{
  "_format": "hh-sol-artifact-1",
  "contractName": "SupplyChain",
  "sourceName": "contracts/SupplyChain.sol",
  "abi": [
    {
      "inputs": [],
      "stateMutability": "nonpayable",
      "type": "constructor"
    },
    {
      "inputs": [],
      "name": "AccessControlBadConfirmation",
      "type": "error"
    },
    {
      "inputs": [
        {
          "internalType": "address",
          "name": "account",
          "type": "address"
        },
        {
          "internalType": "bytes32",
          "name": "neededRole",
          "type": "bytes32"
        }
      ],
      "name": "AccessControlUnauthorizedAccount",
      "type": "error"
    },
    {
      "anonymous": false,
      "inputs": [
        {
          "indexed": true,
          "internalType": "address",
          "name": "escrowAddress",
          "type": "address"
        }
      ],
      "name": "EscrowUpdated",
      "type": "event"
    },
    {
      "anonymous": false,
      "inputs": [
        {
          "indexed": true,
          "internalType": "uint256",
          "name": "productId",
          "type": "uint256"
        },
        {
          "indexed": true,
          "internalType": "address",
          "name": "from",
          "type": "address"
        },
        {
          "indexed": true,
          "internalType": "address",
          "name": "to",
          "type": "address"
        }
      ],
      "name": "OwnershipTransferred",
      "type": "event"
    },
    {
      "anonymous": false,
      "inputs": [
        {
          "indexed": true,
          "internalType": "uint256",
          "name": "productId",
          "type": "uint256"
        },
        {
          "indexed": true,
          "internalType": "address",
          "name": "retailer",
          "type": "address"
        }
      ],
      "name": "ProductDelivered",
      "type": "event"
    },
    {
      "anonymous": false,
      "inputs": [
        {
          "indexed": true,
          "internalType": "uint256",
          "name": "productId",
          "type": "uint256"
        },
        {
          "indexed": true,
          "internalType": "address",
          "name": "manufacturer",
          "type": "address"
        }
      ],
      "name": "ProductRegistered",
      "type": "event"
    },
    {
      "anonymous": false,
      "inputs": [
        {
          "indexed": true,
          "internalType": "uint256",
          "name": "productId",
          "type": "uint256"
        },
        {
          "indexed": true,
          "internalType": "address",
          "name": "distributor",
          "type": "address"
        }
      ],
      "name": "ProductShipped",
      "type": "event"
    },
    {
      "anonymous": false,
      "inputs": [
        {
          "indexed": true,
          "internalType": "bytes32",
          "name": "role",
          "type": "bytes32"
        },
        {
          "indexed": true,
          "internalType": "bytes32",
          "name": "previousAdminRole",
          "type": "bytes32"
        },
        {
          "indexed": true,
          "internalType": "bytes32",
          "name": "newAdminRole",
          "type": "bytes32"
        }
      ],
      "name": "RoleAdminChanged",
      "type": "event"
    },
    {
      "anonymous": false,
      "inputs": [
        {
          "indexed": true,
          "internalType": "bytes32",
          "name": "role",
          "type": "bytes32"
        },
        {
          "indexed": true,
          "internalType": "address",
          "name": "account",
          "type": "address"
        },
        {
          "indexed": true,
          "internalType": "address",
          "name": "sender",
          "type": "address"
        }
      ],
      "name": "RoleGranted",
      "type": "event"
    },
    {
      "anonymous": false,
      "inputs": [
        {
          "indexed": true,
          "internalType": "bytes32",
          "name": "role",
          "type": "bytes32"
        },
        {
          "indexed": true,
          "internalType": "address",
          "name": "account",
          "type": "address"
        },
        {
          "indexed": true,
          "internalType": "address",
          "name": "sender",
          "type": "address"
        }
      ],
      "name": "RoleRevoked",
      "type": "event"
    },
    {
      "inputs": [],
      "name": "DEFAULT_ADMIN_ROLE",
      "outputs": [
        {
          "internalType": "bytes32",
          "name": "",
          "type": "bytes32"
        }
      ],
      "stateMutability": "view",
      "type": "function"
    },
    {
      "inputs": [],
      "name": "DISTRIBUTOR_ROLE",
      "outputs": [
        {
          "internalType": "bytes32",
          "name": "",
          "type": "bytes32"
        }
      ],
      "stateMutability": "view",
      "type": "function"
    },
    {
      "inputs": [],
      "name": "MANUFACTURER_ROLE",
      "outputs": [
        {
          "internalType": "bytes32",
          "name": "",
          "type": "bytes32"
        }
      ],
      "stateMutability": "view",
      "type": "function"
    },
    {
      "inputs": [],
      "name": "RETAILER_ROLE",
      "outputs": [
        {
          "internalType": "bytes32",
          "name": "",
          "type": "bytes32"
        }
      ],
      "stateMutability": "view",
      "type": "function"
    },
    {
      "inputs": [],
      "name": "WHOLESALER_ROLE",
      "outputs": [
        {
          "internalType": "bytes32",
          "name": "",
          "type": "bytes32"
        }
      ],
      "stateMutability": "view",
      "type": "function"
    },
    {
      "inputs": [],
      "name": "escrow",
      "outputs": [
        {
          "internalType": "contract IEscrow",
          "name": "",
          "type": "address"
        }
      ],
      "stateMutability": "view",
      "type": "function"
    },
    {
      "inputs": [],
      "name": "escrowAddress",
      "outputs": [
        {
          "internalType": "address",
          "name": "",
          "type": "address"
        }
      ],
      "stateMutability": "view",
      "type": "function"
    },
    {
      "inputs": [
        {
          "internalType": "uint256",
          "name": "_productId",
          "type": "uint256"
        }
      ],
      "name": "getProduct",
      "outputs": [
        {
          "internalType": "uint256",
          "name": "",
          "type": "uint256"
        },
        {
          "internalType": "string",
          "name": "",
          "type": "string"
        },
        {
          "internalType": "string",
          "name": "",
          "type": "string"
        },
        {
          "internalType": "address",
          "name": "",
          "type": "address"
        }
      ],
      "stateMutability": "view",
      "type": "function"
    },
    {
      "inputs": [
        {
          "internalType": "uint256",
          "name": "_productId",
          "type": "uint256"
        }
      ],
      "name": "getProductDetails",
      "outputs": [
        {
          "internalType": "uint256",
          "name": "",
          "type": "uint256"
        },
        {
          "internalType": "string",
          "name": "",
          "type": "string"
        },
        {
          "internalType": "string",
          "name": "",
          "type": "string"
        },
        {
          "internalType": "address",
          "name": "",
          "type": "address"
        },
        {
          "internalType": "bool",
          "name": "",
          "type": "bool"
        },
        {
          "internalType": "bool",
          "name": "",
          "type": "bool"
        }
      ],
      "stateMutability": "view",
      "type": "function"
    },
    {
      "inputs": [
        {
          "internalType": "uint256",
          "name": "_productId",
          "type": "uint256"
        }
      ],
      "name": "getProductEvents",
      "outputs": [
        {
          "components": [
            {
              "internalType": "string",
              "name": "action",
              "type": "string"
            },
            {
              "internalType": "address",
              "name": "actor",
              "type": "address"
            },
            {
              "internalType": "uint256",
              "name": "timestamp",
              "type": "uint256"
            }
          ],
          "internalType": "struct SupplyChain.ProductEvent[]",
          "name": "",
          "type": "tuple[]"
        }
      ],
      "stateMutability": "view",
      "type": "function"
    },
    {
      "inputs": [
        {
          "internalType": "uint256",
          "name": "_productId",
          "type": "uint256"
        }
      ],
      "name": "getProductHistory",
      "outputs": [
        {
          "components": [
            {
              "internalType": "address",
              "name": "owner",
              "type": "address"
            },
            {
              "internalType": "uint256",
              "name": "timestamp",
              "type": "uint256"
            }
          ],
          "internalType": "struct SupplyChain.Ownership[]",
          "name": "",
          "type": "tuple[]"
        }
      ],
      "stateMutability": "view",
      "type": "function"
    },
    {
      "inputs": [
        {
          "internalType": "bytes32",
          "name": "role",
          "type": "bytes32"
        }
      ],
      "name": "getRoleAdmin",
      "outputs": [
        {
          "internalType": "bytes32",
          "name": "",
          "type": "bytes32"
        }
      ],
      "stateMutability": "view",
      "type": "function"
    },
    {
      "inputs": [
        {
          "internalType": "bytes32",
          "name": "role",
          "type": "bytes32"
        },
        {
          "internalType": "address",
          "name": "account",
          "type": "address"
        }
      ],
      "name": "grantRole",
      "outputs": [],
      "stateMutability": "nonpayable",
      "type": "function"
    },
    {
      "inputs": [
        {
          "internalType": "bytes32",
          "name": "role",
          "type": "bytes32"
        },
        {
          "internalType": "address",
          "name": "account",
          "type": "address"
        }
      ],
      "name": "hasRole",
      "outputs": [
        {
          "internalType": "bool",
          "name": "",
          "type": "bool"
        }
      ],
      "stateMutability": "view",
      "type": "function"
    },
    {
      "inputs": [
        {
          "internalType": "uint256",
          "name": "_productId",
          "type": "uint256"
        }
      ],
      "name": "markDelivered",
      "outputs": [],
      "stateMutability": "nonpayable",
      "type": "function"
    },
    {
      "inputs": [
        {
          "internalType": "uint256",
          "name": "_productId",
          "type": "uint256"
        }
      ],
      "name": "markShipped",
      "outputs": [],
      "stateMutability": "nonpayable",
      "type": "function"
    },
    {
      "inputs": [],
      "name": "productCount",
      "outputs": [
        {
          "internalType": "uint256",
          "name": "",
          "type": "uint256"
        }
      ],
      "stateMutability": "view",
      "type": "function"
    },
    {
      "inputs": [
        {
          "internalType": "uint256",
          "name": "",
          "type": "uint256"
        },
        {
          "internalType": "uint256",
          "name": "",
          "type": "uint256"
        }
      ],
      "name": "productEvents",
      "outputs": [
        {
          "internalType": "string",
          "name": "action",
          "type": "string"
        },
        {
          "internalType": "address",
          "name": "actor",
          "type": "address"
        },
        {
          "internalType": "uint256",
          "name": "timestamp",
          "type": "uint256"
        }
      ],
      "stateMutability": "view",
      "type": "function"
    },
    {
      "inputs": [
        {
          "internalType": "uint256",
          "name": "",
          "type": "uint256"
        },
        {
          "internalType": "uint256",
          "name": "",
          "type": "uint256"
        }
      ],
      "name": "productHistory",
      "outputs": [
        {
          "internalType": "address",
          "name": "owner",
          "type": "address"
        },
        {
          "internalType": "uint256",
          "name": "timestamp",
          "type": "uint256"
        }
      ],
      "stateMutability": "view",
      "type": "function"
    },
    {
      "inputs": [
        {
          "internalType": "uint256",
          "name": "",
          "type": "uint256"
        }
      ],
      "name": "products",
      "outputs": [
        {
          "internalType": "uint256",
          "name": "id",
          "type": "uint256"
        },
        {
          "internalType": "string",
          "name": "name",
          "type": "string"
        },
        {
          "internalType": "string",
          "name": "metadataHash",
          "type": "string"
        },
        {
          "internalType": "address",
          "name": "currentOwner",
          "type": "address"
        },
        {
          "internalType": "bool",
          "name": "exists",
          "type": "bool"
        },
        {
          "internalType": "bool",
          "name": "shipped",
          "type": "bool"
        },
        {
          "internalType": "bool",
          "name": "delivered",
          "type": "bool"
        }
      ],
      "stateMutability": "view",
      "type": "function"
    },
    {
      "inputs": [
        {
          "internalType": "string",
          "name": "_name",
          "type": "string"
        },
        {
          "internalType": "string",
          "name": "_metadataHash",
          "type": "string"
        }
      ],
      "name": "registerProduct",
      "outputs": [],
      "stateMutability": "nonpayable",
      "type": "function"
    },
    {
      "inputs": [
        {
          "internalType": "bytes32",
          "name": "role",
          "type": "bytes32"
        },
        {
          "internalType": "address",
          "name": "callerConfirmation",
          "type": "address"
        }
      ],
      "name": "renounceRole",
      "outputs": [],
      "stateMutability": "nonpayable",
      "type": "function"
    },
    {
      "inputs": [
        {
          "internalType": "bytes32",
          "name": "role",
          "type": "bytes32"
        },
        {
          "internalType": "address",
          "name": "account",
          "type": "address"
        }
      ],
      "name": "revokeRole",
      "outputs": [],
      "stateMutability": "nonpayable",
      "type": "function"
    },
    {
      "inputs": [
        {
          "internalType": "address",
          "name": "_escrow",
          "type": "address"
        }
      ],
      "name": "setEscrow",
      "outputs": [],
      "stateMutability": "nonpayable",
      "type": "function"
    },
    {
      "inputs": [
        {
          "internalType": "bytes4",
          "name": "interfaceId",
          "type": "bytes4"
        }
      ],
      "name": "supportsInterface",
      "outputs": [
        {
          "internalType": "bool",
          "name": "",
          "type": "bool"
        }
      ],
      "stateMutability": "view",
      "type": "function"
    },
    {
      "inputs": [
        {
          "internalType": "uint256",
          "name": "_productId",
          "type": "uint256"
        },
        {
          "internalType": "address",
          "name": "_to",
          "type": "address"
        }
      ],
      "name": "transferProduct",
      "outputs": [],
      "stateMutability": "nonpayable",
      "type": "function"
    },
    {
      "inputs": [
        {
          "internalType": "uint256",
          "name": "_productId",
          "type": "uint256"
        },
        {
          "internalType": "string",
          "name": "_metadataHash",
          "type": "string"
        }
      ],
      "name": "verifyProduct",
      "outputs": [
        {
          "internalType": "bool",
          "name": "",
          "type": "bool"
        }
      ],
      "stateMutability": "view",
      "type": "function"
    }
  ],
  "bytecode": "0x60806040523480156200001157600080fd5b50620000276000801b336200006160201b60201c565b506200005a7f6659d833875b88922d2576dad6c137a09ba676496bb2010bf8a72397792167a0336200006160201b60201c565b50620001d6565b60006200007583836200016460201b60201c565b6200015957600160008085815260200190815260200160002060000160008473ffffffffffffffffffffffffffffffffffffffff1673ffffffffffffffffffffffffffffffffffffffff16815260200190815260200160002060006101000a81548160ff021916908315150217905550620000f5620001ce60201b60201c565b73ffffffffffffffffffffffffffffffffffffffff168273ffffffffffffffffffffffffffffffffffffffff16847f2f8788117e7eff1d82e926ec794901d17c78024a50270940304540a733656f0d60405160405180910390a4600190506200015e565b600090505b92915050565b600080600084815260200190815260200160002060000160008373ffffffffffffffffffffffffffffffffffffffff1673ffffffffffffffffffffffffffffffffffffffff16815260200190815260200160002060009054906101000a900460ff16905092915050565b600033905090565b613b9180620001e66000396000f3fe608060405234801561001057600080fd5b50600436106101a95760003560e01c80638fbd0dcf116100f9578063d7cb8d3411610097578063e43059e511610071578063e43059e51461052d578063eb826a5f14610549578063eed90d6b14610565578063f0bd87cc14610581576101a9565b8063d7cb8d34146104d3578063e0f6ef87146104f1578063e2fdcc171461050f576101a9565b8063a217fddf116100d3578063a217fddf1461044a578063b9db15b414610468578063c10c35461461049b578063d547741f146104b7576101a9565b80638fbd0dcf146103e057806391d14854146103fc578063965288b01461042c576101a9565b806336568abe1161016657806357a096a11161014057806357a096a1146103135780635ed059c9146103435780636813b53b146103755780637acc0b20146103aa576101a9565b806336568abe146102965780633a7d2376146102b2578063409a8fcd146102e3576101a9565b806301ffc9a7146101ae5780630d5defa4146101de5780632115e7bf146101fc578063248a9ca31461021a5780632f2ff15d1461024a5780633267721c14610266575b600080fd5b6101c860048036038101906101c39190612692565b61059f565b6040516101d591906126da565b60405180910390f35b6101e6610619565b6040516101f39190612736565b60405180910390f35b610204610643565b604051610211919061276a565b60405180910390f35b610234600480360381019061022f91906127b1565b610667565b604051610241919061276a565b60405180910390f35b610264600480360381019061025f919061280a565b610686565b005b610280600480360381019061027b91906129c6565b6106a8565b60405161028d91906126da565b60405180910390f35b6102b060048036038101906102ab919061280a565b6106ef565b005b6102cc60048036038101906102c79190612a22565b61076a565b6040516102da929190612a71565b60405180910390f35b6102fd60048036038101906102f89190612a9a565b6107cb565b60405161030a9190612c76565b60405180910390f35b61032d60048036038101906103289190612a9a565b610938565b60405161033a9190612d76565b60405180910390f35b61035d60048036038101906103589190612a22565b610a13565b60405161036c93929190612de2565b60405180910390f35b61038f600480360381019061038a9190612a9a565b610b02565b6040516103a196959493929190612e20565b60405180910390f35b6103c460048036038101906103bf9190612a9a565b610d40565b6040516103d79796959493929190612e8f565b60405180910390f35b6103fa60048036038101906103f59190612f0c565b610ed9565b005b6104166004803603810190610411919061280a565b611234565b60405161042391906126da565b60405180910390f35b61043461129e565b604051610441919061276a565b60405180910390f35b6104526112c2565b60405161045f919061276a565b60405180910390f35b610482600480360381019061047d9190612a9a565b6112c9565b6040516104929493929190612f84565b60405180910390f35b6104b560048036038101906104b09190612fd7565b6114f4565b005b6104d160048036038101906104cc919061280a565b6115f8565b005b6104db61161a565b6040516104e8919061276a565b60405180910390f35b6104f961163e565b6040516105069190613004565b60405180910390f35b610517611644565b604051610524919061307e565b60405180910390f35b61054760048036038101906105429190613099565b61166a565b005b610563600480360381019061055e9190612a9a565b611c25565b005b61057f600480360381019061057a9190612a9a565b611fa5565b005b610589612208565b604051610596919061276a565b60405180910390f35b60007f7965db0b000000000000000000000000000000000000000000000000000000007bffffffffffffffffffffffffffffffffffffffffffffffffffffffff1916827bffffffffffffffffffffffffffffffffffffffffffffffffffffffff1916148061061257506106118261222c565b5b9050919050565b6000600160009054906101000a900473ffffffffffffffffffffffffffffffffffffffff16905090565b7f27d5ccc46db01bfa5691ce092fe276221c6cd0aa6d05765b52c3ddecfa70421a81565b6000806000838152602001908152602001600020600101549050919050565b61068f82610667565b61069881612296565b6106a283836122aa565b50505050565b60006106b38361239b565b8180519060200120600360008581526020019081526020016000206002016040516106de91906131dc565b604051809103902014905092915050565b6106f7612401565b73ffffffffffffffffffffffffffffffffffffffff168173ffffffffffffffffffffffffffffffffffffffff161461075b576040517f6697b23200000000000000000000000000000000000000000000000000000000815260040160405180910390fd5b6107658282612409565b505050565b6004602052816000526040600020818154811061078657600080fd5b9060005260206000209060020201600091509150508060000160009054906101000a900473ffffffffffffffffffffffffffffffffffffffff16908060010154905082565b60606107d68261239b565b60056000838152602001908152602001600020805480602002602001604051908101604052809291908181526020016000905b8282101561092d578382906000526020600020906003020160405180606001604052908160008201805461083c90613108565b80601f016020809104026020016040519081016040528092919081815260200182805461086890613108565b80156108b55780601f1061088a576101008083540402835291602001916108b5565b820191906000526020600020905b81548152906001019060200180831161089857829003601f168201915b505050505081526020016001820160009054906101000a900473ffffffffffffffffffffffffffffffffffffffff1673ffffffffffffffffffffffffffffffffffffffff1673ffffffffffffffffffffffffffffffffffffffff16815260200160028201548152505081526020019060010190610809565b505050509050919050565b60606109438261239b565b60046000838152602001908152602001600020805480602002602001604051908101604052809291908181526020016000905b82821015610a0857838290600052602060002090600202016040518060400160405290816000820160009054906101000a900473ffffffffffffffffffffffffffffffffffffffff1673ffffffffffffffffffffffffffffffffffffffff1673ffffffffffffffffffffffffffffffffffffffff16815260200160018201548152505081526020019060010190610976565b505050509050919050565b60056020528160005260406000208181548110610a2f57600080fd5b906000526020600020906003020160009150915050806000018054610a5390613108565b80601f0160208091040260200160405190810160405280929190818152602001828054610a7f90613108565b8015610acc5780601f10610aa157610100808354040283529160200191610acc565b820191906000526020600020905b815481529060010190602001808311610aaf57829003601f168201915b5050505050908060010160009054906101000a900473ffffffffffffffffffffffffffffffffffffffff16908060020154905083565b60006060806000806000610b158761239b565b6000600360008981526020019081526020016000206040518060e001604052908160008201548152602001600182018054610b4f90613108565b80601f0160208091040260200160405190810160405280929190818152602001828054610b7b90613108565b8015610bc85780601f10610b9d57610100808354040283529160200191610bc8565b820191906000526020600020905b815481529060010190602001808311610bab57829003601f168201915b50505050508152602001600282018054610be190613108565b80601f0160208091040260200160405190810160405280929190818152602001828054610c0d90613108565b8015610c5a5780601f10610c2f57610100808354040283529160200191610c5a565b820191906000526020600020905b815481529060010190602001808311610c3d57829003601f168201915b505050505081526020016003820160009054906101000a900473ffffffffffffffffffffffffffffffffffffffff1673ffffffffffffffffffffffffffffffffffffffff1673ffffffffffffffffffffffffffffffffffffffff1681526020016003820160149054906101000a900460ff161515151581526020016003820160159054906101000a900460ff161515151581526020016003820160169054906101000a900460ff161515151581525050905080600001518160200151826040015183606001518460a001518560c001519650965096509650965096505091939550919395565b6003602052806000526040600020600091509050806000015490806001018054610d6990613108565b80601f0160208091040260200160405190810160405280929190818152602001828054610d9590613108565b8015610de25780601f10610db757610100808354040283529160200191610de2565b820191906000526020600020905b815481529060010190602001808311610dc557829003601f168201915b505050505090806002018054610df790613108565b80601f0160208091040260200160405190810160405280929190818152602001828054610e2390613108565b8015610e705780601f10610e4557610100808354040283529160200191610e70565b820191906000526020600020905b815481529060010190602001808311610e5357829003601f168201915b5050505050908060030160009054906101000a900473ffffffffffffffffffffffffffffffffffffffff16908060030160149054906101000a900460ff16908060030160159054906101000a900460ff16908060030160169054906101000a900460ff16905087565b7f6659d833875b88922d2576dad6c137a09ba676496bb2010bf8a72397792167a0610f0381612296565b6000835111610f47576040517f08c379a0000000000000000000000000000000000000000000000000000000008152600401610f3e9061323f565b60405180910390fd5b6000825111610f8b576040517f08c379a0000000000000000000000000000000000000000000000000000000008152600401610f82906132ab565b60405180910390fd5b60026000815480929190610f9e906132fa565b91905055506040518060e0016040528060025481526020018481526020018381526020013373ffffffffffffffffffffffffffffffffffffffff1681526020016001151581526020016000151581526020016000151581525060036000600254815260200190815260200160002060008201518160000155602082015181600101908161102b91906134e4565b50604082015181600201908161104191906134e4565b5060608201518160030160006101000a81548173ffffffffffffffffffffffffffffffffffffffff021916908373ffffffffffffffffffffffffffffffffffffffff16021790555060808201518160030160146101000a81548160ff02191690831515021790555060a08201518160030160156101000a81548160ff02191690831515021790555060c08201518160030160166101000a81548160ff02191690831515021790555090505060046000600254815260200190815260200160002060405180604001604052803373ffffffffffffffffffffffffffffffffffffffff16815260200142815250908060018154018082558091505060019003906000526020600020906002020160009091909190915060008201518160000160006101000a81548173ffffffffffffffffffffffffffffffffffffffff021916908373ffffffffffffffffffffffffffffffffffffffff1602179055506020820151816001015550506111e96002546040518060400160405280601f81526020017f50726f647563742043726561746564206279204d616e756661637475726572008152506124fb565b3373ffffffffffffffffffffffffffffffffffffffff166002547f73e014c0a076665d9511a27e878fadccb6d7171f5754ba1167a670023760b01560405160405180910390a3505050565b600080600084815260200190815260200160002060000160008373ffffffffffffffffffffffffffffffffffffffff1673ffffffffffffffffffffffffffffffffffffffff16815260200190815260200160002060009054906101000a900460ff16905092915050565b7f6659d833875b88922d2576dad6c137a09ba676496bb2010bf8a72397792167a081565b6000801b81565b600060608060006112d98561239b565b6000600360008781526020019081526020016000206040518060e00160405290816000820154815260200160018201805461131390613108565b80601f016020809104026020016040519081016040528092919081815260200182805461133f90613108565b801561138c5780601f106113615761010080835404028352916020019161138c565b820191906000526020600020905b81548152906001019060200180831161136f57829003601f168201915b505050505081526020016002820180546113a590613108565b80601f01602080910402602001604051908101604052809291908181526020018280546113d190613108565b801561141e5780601f106113f35761010080835404028352916020019161141e565b820191906000526020600020905b81548152906001019060200180831161140157829003601f168201915b505050505081526020016003820160009054906101000a900473ffffffffffffffffffffffffffffffffffffffff1673ffffffffffffffffffffffffffffffffffffffff1673ffffffffffffffffffffffffffffffffffffffff1681526020016003820160149054906101000a900460ff161515151581526020016003820160159054906101000a900460ff161515151581526020016003820160169054906101000a900460ff161515151581525050905080600001518160200151826040015183606001519450945094509450509193509193565b6000801b61150181612296565b600073ffffffffffffffffffffffffffffffffffffffff168273ffffffffffffffffffffffffffffffffffffffff1603611570576040517f08c379a000000000000000000000000000000000000000000000000000000000815260040161156790613602565b60405180910390fd5b81600160006101000a81548173ffffffffffffffffffffffffffffffffffffffff021916908373ffffffffffffffffffffffffffffffffffffffff1602179055508173ffffffffffffffffffffffffffffffffffffffff167f43ab431641dd45dd0661cad4b820e826d7c526af92e3121e1242d721f82ab3ad60405160405180910390a25050565b61160182610667565b61160a81612296565b6116148383612409565b50505050565b7f9d536f5f629a80fe6940f79b96b33c48ff97a31d5e6a548587bc178ef34b0ae481565b60025481565b600160009054906101000a900473ffffffffffffffffffffffffffffffffffffffff1681565b6116738261239b565b600073ffffffffffffffffffffffffffffffffffffffff168173ffffffffffffffffffffffffffffffffffffffff16036116e2576040517f08c379a00000000000000000000000000000000000000000000000000000000081526004016116d99061366e565b60405180910390fd5b60006003600084815260200190815260200160002090503373ffffffffffffffffffffffffffffffffffffffff168160030160009054906101000a900473ffffffffffffffffffffffffffffffffffffffff1673ffffffffffffffffffffffffffffffffffffffff161461178b576040517f08c379a0000000000000000000000000000000000000000000000000000000008152600401611782906136da565b60405180910390fd5b8060030160169054906101000a900460ff16156117dd576040517f08c379a00000000000000000000000000000000000000000000000000000000081526004016117d490613746565b60405180910390fd5b8173ffffffffffffffffffffffffffffffffffffffff163373ffffffffffffffffffffffffffffffffffffffff160361184b576040517f08c379a0000000000000000000000000000000000000000000000000000000008152600401611842906137b2565b60405180910390fd5b6118757f6659d833875b88922d2576dad6c137a09ba676496bb2010bf8a72397792167a033611234565b156118e8576118a47f85faced7bde13e1a7dad704b895f006e704f207617d68166b31ba2d79624862d83611234565b6118e3576040517f08c379a00000000000000000000000000000000000000000000000000000000081526004016118da9061381e565b60405180910390fd5b611a5f565b6119127f85faced7bde13e1a7dad704b895f006e704f207617d68166b31ba2d79624862d33611234565b15611985576119417f9d536f5f629a80fe6940f79b96b33c48ff97a31d5e6a548587bc178ef34b0ae483611234565b611980576040517f08c379a00000000000000000000000000000000000000000000000000000000081526004016119779061388a565b60405180910390fd5b611a5e565b6119af7f9d536f5f629a80fe6940f79b96b33c48ff97a31d5e6a548587bc178ef34b0ae433611234565b15611a22576119de7f27d5ccc46db01bfa5691ce092fe276221c6cd0aa6d05765b52c3ddecfa70421a83611234565b611a1d576040517f08c379a0000000000000000000000000000000000000000000000000000000008152600401611a14906138f6565b60405180910390fd5b611a5d565b6040517f08c379a0000000000000000000000000000000000000000000000000000000008152600401611a5490613962565b60405180910390fd5b5b5b60008160030160009054906101000a900473ffffffffffffffffffffffffffffffffffffffff169050828260030160006101000a81548173ffffffffffffffffffffffffffffffffffffffff021916908373ffffffffffffffffffffffffffffffffffffffff1602179055506004600085815260200190815260200160002060405180604001604052808573ffffffffffffffffffffffffffffffffffffffff16815260200142815250908060018154018082558091505060019003906000526020600020906002020160009091909190915060008201518160000160006101000a81548173ffffffffffffffffffffffffffffffffffffffff021916908373ffffffffffffffffffffffffffffffffffffffff160217905550602082015181600101555050611bc4846040518060400160405280601581526020017f4f776e657273686970205472616e7366657272656400000000000000000000008152506124fb565b8273ffffffffffffffffffffffffffffffffffffffff168173ffffffffffffffffffffffffffffffffffffffff16857f16b85f49bf01212961345d3016c9a531894accf62eb7680f2045d79185cc0ec060405160405180910390a450505050565b611c2e8161239b565b60006003600083815260200190815260200160002090503373ffffffffffffffffffffffffffffffffffffffff168160030160009054906101000a900473ffffffffffffffffffffffffffffffffffffffff1673ffffffffffffffffffffffffffffffffffffffff1614611cd7576040517f08c379a0000000000000000000000000000000000000000000000000000000008152600401611cce906136da565b60405180910390fd5b611d017f27d5ccc46db01bfa5691ce092fe276221c6cd0aa6d05765b52c3ddecfa70421a33611234565b611d40576040517f08c379a0000000000000000000000000000000000000000000000000000000008152600401611d37906138f6565b60405180910390fd5b8060030160159054906101000a900460ff16611d91576040517f08c379a0000000000000000000000000000000000000000000000000000000008152600401611d88906139ce565b60405180910390fd5b8060030160169054906101000a900460ff1615611de3576040517f08c379a0000000000000000000000000000000000000000000000000000000008152600401611dda90613746565b60405180910390fd5b600073ffffffffffffffffffffffffffffffffffffffff16600160009054906101000a900473ffffffffffffffffffffffffffffffffffffffff1673ffffffffffffffffffffffffffffffffffffffff1603611e74576040517f08c379a0000000000000000000000000000000000000000000000000000000008152600401611e6b90613a3a565b60405180910390fd5b60018160030160166101000a81548160ff021916908315150217905550611ed0826040518060400160405280601181526020017f50726f647563742044656c6976657265640000000000000000000000000000008152506124fb565b3373ffffffffffffffffffffffffffffffffffffffff16827f3b9a2bc92f86b656bcb1ebf7bae17a2692a817afab798105a68a61b76220b76e60405160405180910390a3600160009054906101000a900473ffffffffffffffffffffffffffffffffffffffff1673ffffffffffffffffffffffffffffffffffffffff166388685cd9836040518263ffffffff1660e01b8152600401611f6f9190613004565b600060405180830381600087803b158015611f8957600080fd5b505af1158015611f9d573d6000803e3d6000fd5b505050505050565b611fae8161239b565b60006003600083815260200190815260200160002090503373ffffffffffffffffffffffffffffffffffffffff168160030160009054906101000a900473ffffffffffffffffffffffffffffffffffffffff1673ffffffffffffffffffffffffffffffffffffffff1614612057576040517f08c379a000000000000000000000000000000000000000000000000000000000815260040161204e906136da565b60405180910390fd5b6120817f85faced7bde13e1a7dad704b895f006e704f207617d68166b31ba2d79624862d33611234565b6120c0576040517f08c379a00000000000000000000000000000000000000000000000000000000081526004016120b79061381e565b60405180910390fd5b8060030160159054906101000a900460ff1615612112576040517f08c379a000000000000000000000000000000000000000000000000000000000815260040161210990613aa6565b60405180910390fd5b8060030160169054906101000a900460ff1615612164576040517f08c379a000000000000000000000000000000000000000000000000000000000815260040161215b90613746565b60405180910390fd5b60018160030160156101000a81548160ff0219169083151502179055506121c0826040518060400160405280600f81526020017f50726f64756374205368697070656400000000000000000000000000000000008152506124fb565b3373ffffffffffffffffffffffffffffffffffffffff16827f8e4a7d4c074e0429c8218617269577bebe92d664dba0a99330d36a7460b5a62460405160405180910390a35050565b7f85faced7bde13e1a7dad704b895f006e704f207617d68166b31ba2d79624862d81565b60007f01ffc9a7000000000000000000000000000000000000000000000000000000007bffffffffffffffffffffffffffffffffffffffffffffffffffffffff1916827bffffffffffffffffffffffffffffffffffffffffffffffffffffffff1916149050919050565b6122a7816122a2612401565b6125d5565b50565b60006122b68383611234565b61239057600160008085815260200190815260200160002060000160008473ffffffffffffffffffffffffffffffffffffffff1673ffffffffffffffffffffffffffffffffffffffff16815260200190815260200160002060006101000a81548160ff02191690831515021790555061232d612401565b73ffffffffffffffffffffffffffffffffffffffff168273ffffffffffffffffffffffffffffffffffffffff16847f2f8788117e7eff1d82e926ec794901d17c78024a50270940304540a733656f0d60405160405180910390a460019050612395565b600090505b92915050565b6003600082815260200190815260200160002060030160149054906101000a900460ff166123fe576040517f08c379a00000000000000000000000000000000000000000000000000000000081526004016123f590613b12565b60405180910390fd5b50565b600033905090565b60006124158383611234565b156124f057600080600085815260200190815260200160002060000160008473ffffffffffffffffffffffffffffffffffffffff1673ffffffffffffffffffffffffffffffffffffffff16815260200190815260200160002060006101000a81548160ff02191690831515021790555061248d612401565b73ffffffffffffffffffffffffffffffffffffffff168273ffffffffffffffffffffffffffffffffffffffff16847ff6391f5c32d9c69d2a47ea670b442974b53935d1edc7fd64eb21e047a839171b60405160405180910390a4600190506124f5565b600090505b92915050565b6005600083815260200190815260200160002060405180606001604052808381526020013373ffffffffffffffffffffffffffffffffffffffff168152602001428152509080600181540180825580915050600190039060005260206000209060030201600090919091909150600082015181600001908161257d91906134e4565b5060208201518160010160006101000a81548173ffffffffffffffffffffffffffffffffffffffff021916908373ffffffffffffffffffffffffffffffffffffffff1602179055506040820151816002015550505050565b6125df8282611234565b6126225780826040517fe2517d3f000000000000000000000000000000000000000000000000000000008152600401612619929190613b32565b60405180910390fd5b5050565b6000604051905090565b600080fd5b600080fd5b60007fffffffff0000000000000000000000000000000000000000000000000000000082169050919050565b61266f8161263a565b811461267a57600080fd5b50565b60008135905061268c81612666565b92915050565b6000602082840312156126a8576126a7612630565b5b60006126b68482850161267d565b91505092915050565b60008115159050919050565b6126d4816126bf565b82525050565b60006020820190506126ef60008301846126cb565b92915050565b600073ffffffffffffffffffffffffffffffffffffffff82169050919050565b6000612720826126f5565b9050919050565b61273081612715565b82525050565b600060208201905061274b6000830184612727565b92915050565b6000819050919050565b61276481612751565b82525050565b600060208201905061277f600083018461275b565b92915050565b61278e81612751565b811461279957600080fd5b50565b6000813590506127ab81612785565b92915050565b6000602082840312156127c7576127c6612630565b5b60006127d58482850161279c565b91505092915050565b6127e781612715565b81146127f257600080fd5b50565b600081359050612804816127de565b92915050565b6000806040838503121561282157612820612630565b5b600061282f8582860161279c565b9250506020612840858286016127f5565b9150509250929050565b6000819050919050565b61285d8161284a565b811461286857600080fd5b50565b60008135905061287a81612854565b92915050565b600080fd5b600080fd5b6000601f19601f8301169050919050565b7f4e487b7100000000000000000000000000000000000000000000000000000000600052604160045260246000fd5b6128d38261288a565b810181811067ffffffffffffffff821117156128f2576128f161289b565b5b80604052505050565b6000612905612626565b905061291182826128ca565b919050565b600067ffffffffffffffff8211156129315761293061289b565b5b61293a8261288a565b9050602081019050919050565b82818337600083830152505050565b600061296961296484612916565b6128fb565b90508281526020810184848401111561298557612984612885565b5b612990848285612947565b509392505050565b600082601f8301126129ad576129ac612880565b5b81356129bd848260208601612956565b91505092915050565b600080604083850312156129dd576129dc612630565b5b60006129eb8582860161286b565b925050602083013567ffffffffffffffff811115612a0c57612a0b612635565b5b612a1885828601612998565b9150509250929050565b60008060408385031215612a3957612a38612630565b5b6000612a478582860161286b565b9250506020612a588582860161286b565b9150509250929050565b612a6b8161284a565b82525050565b6000604082019050612a866000830185612727565b612a936020830184612a62565b9392505050565b600060208284031215612ab057612aaf612630565b5b6000612abe8482850161286b565b91505092915050565b600081519050919050565b600082825260208201905092915050565b6000819050602082019050919050565b600081519050919050565b600082825260208201905092915050565b60005b83811015612b2d578082015181840152602081019050612b12565b60008484015250505050565b6000612b4482612af3565b612b4e8185612afe565b9350612b5e818560208601612b0f565b612b678161288a565b840191505092915050565b612b7b81612715565b82525050565b612b8a8161284a565b82525050565b60006060830160008301518482036000860152612bad8282612b39565b9150506020830151612bc26020860182612b72565b506040830151612bd56040860182612b81565b508091505092915050565b6000612bec8383612b90565b905092915050565b6000602082019050919050565b6000612c0c82612ac7565b612c168185612ad2565b935083602082028501612c2885612ae3565b8060005b85811015612c645784840389528151612c458582612be0565b9450612c5083612bf4565b925060208a01995050600181019050612c2c565b50829750879550505050505092915050565b60006020820190508181036000830152612c908184612c01565b905092915050565b600081519050919050565b600082825260208201905092915050565b6000819050602082019050919050565b604082016000820151612cda6000850182612b72565b506020820151612ced6020850182612b81565b50505050565b6000612cff8383612cc4565b60408301905092915050565b6000602082019050919050565b6000612d2382612c98565b612d2d8185612ca3565b9350612d3883612cb4565b8060005b83811015612d69578151612d508882612cf3565b9750612d5b83612d0b565b925050600181019050612d3c565b5085935050505092915050565b60006020820190508181036000830152612d908184612d18565b905092915050565b600082825260208201905092915050565b6000612db482612af3565b612dbe8185612d98565b9350612dce818560208601612b0f565b612dd78161288a565b840191505092915050565b60006060820190508181036000830152612dfc8186612da9565b9050612e0b6020830185612727565b612e186040830184612a62565b949350505050565b600060c082019050612e356000830189612a62565b8181036020830152612e478188612da9565b90508181036040830152612e5b8187612da9565b9050612e6a6060830186612727565b612e7760808301856126cb565b612e8460a08301846126cb565b979650505050505050565b600060e082019050612ea4600083018a612a62565b8181036020830152612eb68189612da9565b90508181036040830152612eca8188612da9565b9050612ed96060830187612727565b612ee660808301866126cb565b612ef360a08301856126cb565b612f0060c08301846126cb565b98975050505050505050565b60008060408385031215612f2357612f22612630565b5b600083013567ffffffffffffffff811115612f4157612f40612635565b5b612f4d85828601612998565b925050602083013567ffffffffffffffff811115612f6e57612f6d612635565b5b612f7a85828601612998565b9150509250929050565b6000608082019050612f996000830187612a62565b8181036020830152612fab8186612da9565b90508181036040830152612fbf8185612da9565b9050612fce6060830184612727565b95945050505050565b600060208284031215612fed57612fec612630565b5b6000612ffb848285016127f5565b91505092915050565b60006020820190506130196000830184612a62565b92915050565b6000819050919050565b600061304461303f61303a846126f5565b61301f565b6126f5565b9050919050565b600061305682613029565b9050919050565b60006130688261304b565b9050919050565b6130788161305d565b82525050565b6000602082019050613093600083018461306f565b92915050565b600080604083850312156130b0576130af612630565b5b60006130be8582860161286b565b92505060206130cf858286016127f5565b9150509250929050565b7f4e487b7100000000000000000000000000000000000000000000000000000000600052602260045260246000fd5b6000600282049050600182168061312057607f821691505b602082108103613133576131326130d9565b5b50919050565b600081905092915050565b60008190508160005260206000209050919050565b6000815461316681613108565b6131708186613139565b9450600182166000811461318b57600181146131a0576131d3565b60ff19831686528115158202860193506131d3565b6131a985613144565b60005b838110156131cb578154818901526001820191506020810190506131ac565b838801955050505b50505092915050565b60006131e88284613159565b915081905092915050565b7f4e616d6520726571756972656400000000000000000000000000000000000000600082015250565b6000613229600d83612d98565b9150613234826131f3565b602082019050919050565b600060208201905081810360008301526132588161321c565b9050919050565b7f4d65746164617461207265717569726564000000000000000000000000000000600082015250565b6000613295601183612d98565b91506132a08261325f565b602082019050919050565b600060208201905081810360008301526132c481613288565b9050919050565b7f4e487b7100000000000000000000000000000000000000000000000000000000600052601160045260246000fd5b60006133058261284a565b91507fffffffffffffffffffffffffffffffffffffffffffffffffffffffffffffffff8203613337576133366132cb565b5b600182019050919050565b60008190508160005260206000209050919050565b60006020601f8301049050919050565b600082821b905092915050565b6000600883026133a47fffffffffffffffffffffffffffffffffffffffffffffffffffffffffffffffff82613367565b6133ae8683613367565b95508019841693508086168417925050509392505050565b60006133e16133dc6133d78461284a565b61301f565b61284a565b9050919050565b6000819050919050565b6133fb836133c6565b61340f613407826133e8565b848454613374565b825550505050565b600090565b613424613417565b61342f8184846133f2565b505050565b5b818110156134535761344860008261341c565b600181019050613435565b5050565b601f8211156134985761346981613342565b61347284613357565b81016020851015613481578190505b61349561348d85613357565b830182613434565b50505b505050565b600082821c905092915050565b60006134bb6000198460080261349d565b1980831691505092915050565b60006134d483836134aa565b9150826002028217905092915050565b6134ed82612af3565b67ffffffffffffffff8111156135065761350561289b565b5b6135108254613108565b61351b828285613457565b600060209050601f83116001811461354e576000841561353c578287015190505b61354685826134c8565b8655506135ae565b601f19841661355c86613342565b60005b828110156135845784890151825560018201915060208501945060208101905061355f565b868310156135a1578489015161359d601f8916826134aa565b8355505b6001600288020188555050505b505050505050565b7f496e76616c696420657363726f77206164647265737300000000000000000000600082015250565b60006135ec601683612d98565b91506135f7826135b6565b602082019050919050565b6000602082019050818103600083015261361b816135df565b9050919050565b7f496e76616c696420726563697069656e74000000000000000000000000000000600082015250565b6000613658601183612d98565b915061366382613622565b602082019050919050565b600060208201905081810360008301526136878161364b565b9050919050565b7f4e6f74206f776e65720000000000000000000000000000000000000000000000600082015250565b60006136c4600983612d98565b91506136cf8261368e565b602082019050919050565b600060208201905081810360008301526136f3816136b7565b9050919050565b7f416c72656164792064656c697665726564000000000000000000000000000000600082015250565b6000613730601183612d98565b915061373b826136fa565b602082019050919050565b6000602082019050818103600083015261375f81613723565b9050919050565b7f43616e6e6f74207472616e7366657220746f2073656c66000000000000000000600082015250565b600061379c601783612d98565b91506137a782613766565b602082019050919050565b600060208201905081810360008301526137cb8161378f565b9050919050565b7f4f6e6c79204469737472696275746f7200000000000000000000000000000000600082015250565b6000613808601083612d98565b9150613813826137d2565b602082019050919050565b60006020820190508181036000830152613837816137fb565b9050919050565b7f4f6e6c792057686f6c6573616c65720000000000000000000000000000000000600082015250565b6000613874600f83612d98565b915061387f8261383e565b602082019050919050565b600060208201905081810360008301526138a381613867565b9050919050565b7f4f6e6c792052657461696c657200000000000000000000000000000000000000600082015250565b60006138e0600d83612d98565b91506138eb826138aa565b602082019050919050565b6000602082019050818103600083015261390f816138d3565b9050919050565b7f556e617574686f72697a6564207472616e7366657220726f6c65000000000000600082015250565b600061394c601a83612d98565b915061395782613916565b602082019050919050565b6000602082019050818103600083015261397b8161393f565b9050919050565b7f50726f64756374206e6f74207368697070656400000000000000000000000000600082015250565b60006139b8601383612d98565b91506139c382613982565b602082019050919050565b600060208201905081810360008301526139e7816139ab565b9050919050565b7f457363726f77206e6f7420736574000000000000000000000000000000000000600082015250565b6000613a24600e83612d98565b9150613a2f826139ee565b602082019050919050565b60006020820190508181036000830152613a5381613a17565b9050919050565b7f416c726561647920736869707065640000000000000000000000000000000000600082015250565b6000613a90600f83612d98565b9150613a9b82613a5a565b602082019050919050565b60006020820190508181036000830152613abf81613a83565b9050919050565b7f50726f6475637420646f6573206e6f7420657869737400000000000000000000600082015250565b6000613afc601683612d98565b9150613b0782613ac6565b602082019050919050565b60006020820190508181036000830152613b2b81613aef565b9050919050565b6000604082019050613b476000830185612727565b613b54602083018461275b565b939250505056fea264697066735822122090eb6b66d0cc2abaa28b863c83d8645fea7ee7617de04a377222d52dd36a967464736f6c63430008140033",
  "linkReferences": {},
  "deployedLinkReferences": {}
}