{
  "_format": "hh-sol-artifact-1",
  "contractName": "SupplyChain",
  "sourceName": "contracts/SupplyChain.sol",
  "abi": [
    {
      "inputs": [],
      "stateMutability": "nonpayable",
      "type": "constructor"
    },
    {
      "inputs": [],
      "name": "AccessControlBadConfirmation",
      "type": "error"
    },
    {
      "inputs": [
        {
          "internalType": "address",
          "name": "account",
          "type": "address"
        },
        {
          "internalType": "bytes32",
          "name": "neededRole",
          "type": "bytes32"
        }
      ],
      "name": "AccessControlUnauthorizedAccount",
      "type": "error"
    },
    {
      "anonymous": false,
      "inputs": [
        {
          "indexed": true,
          "internalType": "address",
          "name": "escrowAddress",
          "type": "address"
        }
      ],
      "name": "EscrowUpdated",
      "type": "event"
    },
    {
      "anonymous": false,
      "inputs": [
        {
          "indexed": true,
          "internalType": "uint256",
          "name": "productId",
          "type": "uint256"
        },
        {
          "indexed": true,
          "internalType": "address",
          "name": "from",
          "type": "address"
        },
        {
          "indexed": true,
          "internalType": "address",
          "name": "to",
          "type": "address"
        }
      ],
      "name": "OwnershipTransferred",
      "type": "event"
    },
    {
      "anonymous": false,
      "inputs": [
        {
          "indexed": true,
          "internalType": "uint256",
          "name": "productId",
          "type": "uint256"
        },
        {
          "indexed": true,
          "internalType": "address",
          "name": "retailer",
          "type": "address"
        }
      ],
      "name": "ProductDelivered",
      "type": "event"
    },
    {
      "anonymous": false,
      "inputs": [
        {
          "indexed": true,
          "internalType": "uint256",
          "name": "productId",
          "type": "uint256"
        },
        {
          "indexed": true,
          "internalType": "address",
          "name": "manufacturer",
          "type": "address"
        }
      ],
      "name": "ProductRegistered",
      "type": "event"
    },
    {
      "anonymous": false,
      "inputs": [
        {
          "indexed": true,
          "internalType": "uint256",
          "name": "productId",
          "type": "uint256"
        },
        {
          "indexed": true,
          "internalType": "address",
          "name": "distributor",
          "type": "address"
        }
      ],
      "name": "ProductShipped",
      "type": "event"
    },
    {
      "anonymous": false,
      "inputs": [
        {
          "indexed": true,
          "internalType": "bytes32",
          "name": "role",
          "type": "bytes32"
        },
        {
          "indexed": true,
          "internalType": "bytes32",
          "name": "previousAdminRole",
          "type": "bytes32"
        },
        {
          "indexed": true,
          "internalType": "bytes32",
          "name": "newAdminRole",
          "type": "bytes32"
        }
      ],
      "name": "RoleAdminChanged",
      "type": "event"
    },
    {
      "anonymous": false,
      "inputs": [
        {
          "indexed": true,
          "internalType": "bytes32",
          "name": "role",
          "type": "bytes32"
        },
        {
          "indexed": true,
          "internalType": "address",
          "name": "account",
          "type": "address"
        },
        {
          "indexed": true,
          "internalType": "address",
          "name": "sender",
          "type": "address"
        }
      ],
      "name": "RoleGranted",
      "type": "event"
    },
    {
      "anonymous": false,
      "inputs": [
        {
          "indexed": true,
          "internalType": "bytes32",
          "name": "role",
          "type": "bytes32"
        },
        {
          "indexed": true,
          "internalType": "address",
          "name": "account",
          "type": "address"
        },
        {
          "indexed": true,
          "internalType": "address",
          "name": "sender",
          "type": "address"
        }
      ],
      "name": "RoleRevoked",
      "type": "event"
    },
    {
      "inputs": [],
      "name": "DEFAULT_ADMIN_ROLE",
      "outputs": [
        {
          "internalType": "bytes32",
          "name": "",
          "type": "bytes32"
        }
      ],
      "stateMutability": "view",
      "type": "function"
    },
    {
      "inputs": [],
      "name": "DISTRIBUTOR_ROLE",
      "outputs": [
        {
          "internalType": "bytes32",
          "name": "",
          "type": "bytes32"
        }
      ],
      "stateMutability": "view",
      "type": "function"
    },
    {
      "inputs": [],
      "name": "MANUFACTURER_ROLE",
      "outputs": [
        {
          "internalType": "bytes32",
          "name": "",
          "type": "bytes32"
        }
      ],
      "stateMutability": "view",
      "type": "function"
    },
    {
      "inputs": [],
      "name": "RETAILER_ROLE",
      "outputs": [
        {
          "internalType": "bytes32",
          "name": "",
          "type": "bytes32"
        }
      ],
      "stateMutability": "view",
      "type": "function"
    },
    {
      "inputs": [],
      "name": "WHOLESALER_ROLE",
      "outputs": [
        {
          "internalType": "bytes32",
          "name": "",
          "type": "bytes32"
        }
      ],
      "stateMutability": "view",
      "type": "function"
    },
    {
      "inputs": [],
      "name": "escrow",
      "outputs": [
        {
          "internalType": "contract IEscrow",
          "name": "",
          "type": "address"
        }
      ],
      "stateMutability": "view",
      "type": "function"
    },
    {
      "inputs": [],
      "name": "escrowAddress",
      "outputs": [
        {
          "internalType": "address",
          "name": "",
          "type": "address"
        }
      ],
      "stateMutability": "view",
      "type": "function"
    },
    {
      "inputs": [
        {
          "internalType": "uint256",
          "name": "_productId",
          "type": "uint256"
        }
      ],
      "name": "getProduct",
      "outputs": [
        {
          "internalType": "uint256",
          "name": "",
          "type": "uint256"
        },
        {
          "internalType": "string",
          "name": "",
          "type": "string"
        },
        {
          "internalType": "string",
          "name": "",
          "type": "string"
        },
        {
          "internalType": "address",
          "name": "",
          "type": "address"
        }
      ],
      "stateMutability": "view",
      "type": "function"
    },
    {
      "inputs": [
        {
          "internalType": "uint256",
          "name": "_productId",
          "type": "uint256"
        }
      ],
      "name": "getProductDetails",
      "outputs": [
        {
          "internalType": "uint256",
          "name": "",
          "type": "uint256"
        },
        {
          "internalType": "string",
          "name": "",
          "type": "string"
        },
        {
          "internalType": "string",
          "name": "",
          "type": "string"
        },
        {
          "internalType": "address",
          "name": "",
          "type": "address"
        },
        {
          "internalType": "bool",
          "name": "",
          "type": "bool"
        },
        {
          "internalType": "bool",
          "name": "",
          "type": "bool"
        }
      ],
      "stateMutability": "view",
      "type": "function"
    },
    {
      "inputs": [
        {
          "internalType": "uint256",
          "name": "_productId",
          "type": "uint256"
        }
      ],
      "name": "getProductEvents",
      "outputs": [
        {
          "components": [
            {
              "internalType": "string",
              "name": "action",
              "type": "string"
            },
            {
              "internalType": "address",
              "name": "actor",
              "type": "address"
            },
            {
              "internalType": "uint256",
              "name": "timestamp",
              "type": "uint256"
            }
          ],
          "internalType": "struct SupplyChain.ProductEvent[]",
          "name": "",
          "type": "tuple[]"
        }
      ],
      "stateMutability": "view",
      "type": "function"
    },
    {
      "inputs": [
        {
          "internalType": "uint256",
          "name": "_productId",
          "type": "uint256"
        }
      ],
      "name": "getProductHistory",
      "outputs": [
        {
          "components": [
            {
              "internalType": "address",
              "name": "owner",
              "type": "address"
            },
            {
              "internalType": "uint256",
              "name": "timestamp",
              "type": "uint256"
            }
          ],
          "internalType": "struct SupplyChain.Ownership[]",
          "name": "",
          "type": "tuple[]"
        }
      ],
      "stateMutability": "view",
      "type": "function"
    },
    {
      "inputs": [
        {
          "internalType": "bytes32",
          "name": "role",
          "type": "bytes32"
        }
      ],
      "name": "getRoleAdmin",
      "outputs": [
        {
          "internalType": "bytes32",
          "name": "",
          "type": "bytes32"
        }
      ],
      "stateMutability": "view",
      "type": "function"
    },
    {
      "inputs": [
        {
          "internalType": "bytes32",
          "name": "role",
          "type": "bytes32"
        },
        {
          "internalType": "address",
          "name": "account",
          "type": "address"
        }
      ],
      "name": "grantRole",
      "outputs": [],
      "stateMutability": "nonpayable",
      "type": "function"
    },
    {
      "inputs": [
        {
          "internalType": "bytes32",
          "name": "role",
          "type": "bytes32"
        },
        {
          "internalType": "address",
          "name": "account",
          "type": "address"
        }
      ],
      "name": "hasRole",
      "outputs": [
        {
          "internalType": "bool",
          "name": "",
          "type": "bool"
        }
      ],
      "stateMutability": "view",
      "type": "function"
    },
    {
      "inputs": [
        {
          "internalType": "uint256",
          "name": "_productId",
          "type": "uint256"
        }
      ],
      "name": "markDelivered",
      "outputs": [],
      "stateMutability": "nonpayable",
      "type": "function"
    },
    {
      "inputs": [
        {
          "internalType": "uint256",
          "name": "_productId",
          "type": "uint256"
        }
      ],
      "name": "markShipped",
      "outputs": [],
      "stateMutability": "nonpayable",
      "type": "function"
    },
    {
      "inputs": [],
      "name": "productCount",
      "outputs": [
        {
          "internalType": "uint256",
          "name": "",
          "type": "uint256"
        }
      ],
      "stateMutability": "view",
      "type": "function"
    },
    {
      "inputs": [
        {
          "internalType": "uint256",
          "name": "",
          "type": "uint256"
        },
        {
          "internalType": "uint256",
          "name": "",
          "type": "uint256"
        }
      ],
      "name": "productEvents",
      "outputs": [
        {
          "internalType": "string",
          "name": "action",
          "type": "string"
        },
        {
          "internalType": "address",
          "name": "actor",
          "type": "address"
        },
        {
          "internalType": "uint256",
          "name": "timestamp",
          "type": "uint256"
        }
      ],
      "stateMutability": "view",
      "type": "function"
    },
    {
      "inputs": [
        {
          "internalType": "uint256",
          "name": "",
          "type": "uint256"
        },
        {
          "internalType": "uint256",
          "name": "",
          "type": "uint256"
        }
      ],
      "name": "productHistory",
      "outputs": [
        {
          "internalType": "address",
          "name": "owner",
          "type": "address"
        },
        {
          "internalType": "uint256",
          "name": "timestamp",
          "type": "uint256"
        }
      ],
      "stateMutability": "view",
      "type": "function"
    },
    {
      "inputs": [
        {
          "internalType": "uint256",
          "name": "",
          "type": "uint256"
        }
      ],
      "name": "products",
      "outputs": [
        {
          "internalType": "uint256",
          "name": "id",
          "type": "uint256"
        },
        {
          "internalType": "string",
          "name": "name",
          "type": "string"
        },
        {
          "internalType": "string",
          "name": "metadataHash",
          "type": "string"
        },
        {
          "internalType": "address",
          "name": "currentOwner",
          "type": "address"
        },
        {
          "internalType": "bool",
          "name": "exists",
          "type": "bool"
        },
        {
          "internalType": "bool",
          "name": "shipped",
          "type": "bool"
        },
        {
          "internalType": "bool",
          "name": "delivered",
          "type": "bool"
        }
      ],
      "stateMutability": "view",
      "type": "function"
    },
    {
      "inputs": [
        {
          "internalType": "string",
          "name": "_name",
          "type": "string"
        },
        {
          "internalType": "string",
          "name": "_metadataHash",
          "type": "string"
        }
      ],
      "name": "registerProduct",
      "outputs": [],
      "stateMutability": "nonpayable",
      "type": "function"
    },
    {
      "inputs": [
        {
          "internalType": "bytes32",
          "name": "role",
          "type": "bytes32"
        },
        {
          "internalType": "address",
          "name": "callerConfirmation",
          "type": "address"
        }
      ],
      "name": "renounceRole",
      "outputs": [],
      "stateMutability": "nonpayable",
      "type": "function"
    },
    {
      "inputs": [
        {
          "internalType": "bytes32",
          "name": "role",
          "type": "bytes32"
        },
        {
          "internalType": "address",
          "name": "account",
          "type": "address"
        }
      ],
      "name": "revokeRole",
      "outputs": [],
      "stateMutability": "nonpayable",
      "type": "function"
    },
    {
      "inputs": [
        {
          "internalType": "address",
          "name": "_escrow",
          "type": "address"
        }
      ],
      "name": "setEscrow",
      "outputs": [],
      "stateMutability": "nonpayable",
      "type": "function"
    },
    {
      "inputs": [
        {
          "internalType": "bytes4",
          "name": "interfaceId",
          "type": "bytes4"
        }
      ],
      "name": "supportsInterface",
      "outputs": [
        {
          "internalType": "bool",
          "name": "",
          "type": "bool"
        }
      ],
      "stateMutability": "view",
      "type": "function"
    },
    {
      "inputs": [
        {
          "internalType": "uint256",
          "name": "_productId",
          "type": "uint256"
        },
        {
          "internalType": "address",
          "name": "_to",
          "type": "address"
        }
      ],
      "name": "transferProduct",
      "outputs": [],
      "stateMutability": "nonpayable",
      "type": "function"
    },
    {
      "inputs": [
        {
          "internalType": "uint256",
          "name": "_productId",
          "type": "uint256"
        },
        {
          "internalType": "string",
          "name": "_metadataHash",
          "type": "string"
        }
      ],
      "name": "verifyProduct",
      "outputs": [
        {
          "internalType": "bool",
          "name": "",
          "type": "bool"
        }
      ],
      "stateMutability": "view",
      "type": "function"
    }
  ],
  "bytecode": "0x60806040523480156200001157600080fd5b50620000276000801b336200006160201b60201c565b506200005a7f6659d833875b88922d2576dad6c137a09ba676496bb2010bf8a72397792167a0336200006160201b60201c565b50620001d6565b60006200007583836200016460201b60201c565b6200015957600160008085815260200190815260200160002060000160008473ffffffffffffffffffffffffffffffffffffffff1673ffffffffffffffffffffffffffffffffffffffff16815260200190815260200160002060006101000a81548160ff021916908315150217905550620000f5620001ce60201b60201c565b73ffffffffffffffffffffffffffffffffffffffff168273ffffffffffffffffffffffffffffffffffffffff16847f2f8788117e7eff1d82e926ec794901d17c78024a50270940304540a733656f0d60405160405180910390a4600190506200015e565b600090505b92915050565b600080600084815260200190815260200160002060000160008373ffffffffffffffffffffffffffffffffffffffff1673ffffffffffffffffffffffffffffffffffffffff16815260200190815260200160002060009054906101000a900460ff16905092915050565b600033905090565b613ad480620001e66000396000f3fe608060405234801561001057600080fd5b50600436106101a95760003560e01c80638fbd0dcf116100f9578063d7cb8d3411610097578063e43059e511610071578063e43059e51461052d578063eb826a5f14610549578063eed90d6b14610565578063f0bd87cc14610581576101a9565b8063d7cb8d34146104d3578063e0f6ef87146104f1578063e2fdcc171461050f576101a9565b8063a217fddf116100d3578063a217fddf1461044a578063b9db15b414610468578063c10c35461461049b578063d547741f146104b7576101a9565b80638fbd0dcf146103e057806391d14854146103fc578063965288b01461042c576101a9565b806336568abe1161016657806357a096a11161014057806357a096a1146103135780635ed059c9146103435780636813b53b146103755780637acc0b20146103aa576101a9565b806336568abe146102965780633a7d2376146102b2578063409a8fcd146102e3576101a9565b806301ffc9a7146101ae5780630d5defa4146101de5780632115e7bf146101fc578063248a9ca31461021a5780632f2ff15d1461024a5780633267721c14610266575b600080fd5b6101c860048036038101906101c39190612641565b61059f565b6040516101d59190612689565b60405180910390f35b6101e6610619565b6040516101f391906126e5565b60405180910390f35b610204610643565b6040516102119190612719565b60405180910390f35b610234600480360381019061022f9190612760565b610667565b6040516102419190612719565b60405180910390f35b610264600480360381019061025f91906127b9565b610686565b005b610280600480360381019061027b9190612975565b6106a8565b60405161028d9190612689565b60405180910390f35b6102b060048036038101906102ab91906127b9565b6106ef565b005b6102cc60048036038101906102c791906129d1565b61076a565b6040516102da929190612a20565b60405180910390f35b6102fd60048036038101906102f89190612a49565b6107cb565b60405161030a9190612c25565b60405180910390f35b61032d60048036038101906103289190612a49565b610938565b60405161033a9190612d25565b60405180910390f35b61035d600480360381019061035891906129d1565b610a13565b60405161036c93929190612d91565b60405180910390f35b61038f600480360381019061038a9190612a49565b610b02565b6040516103a196959493929190612dcf565b60405180910390f35b6103c460048036038101906103bf9190612a49565b610d40565b6040516103d79796959493929190612e3e565b60405180910390f35b6103fa60048036038101906103f59190612ebb565b610ed9565b005b610416600480360381019061041191906127b9565b611234565b6040516104239190612689565b60405180910390f35b61043461129e565b6040516104419190612719565b60405180910390f35b6104526112c2565b60405161045f9190612719565b60405180910390f35b610482600480360381019061047d9190612a49565b6112c9565b6040516104929493929190612f33565b60405180910390f35b6104b560048036038101906104b09190612f86565b6114f4565b005b6104d160048036038101906104cc91906127b9565b6115f8565b005b6104db61161a565b6040516104e89190612719565b60405180910390f35b6104f961163e565b6040516105069190612fb3565b60405180910390f35b610517611644565b604051610524919061302d565b60405180910390f35b61054760048036038101906105429190613048565b61166a565b005b610563600480360381019061055e9190612a49565b611c25565b005b61057f600480360381019061057a9190612a49565b611f54565b005b6105896121b7565b6040516105969190612719565b60405180910390f35b60007f7965db0b000000000000000000000000000000000000000000000000000000007bffffffffffffffffffffffffffffffffffffffffffffffffffffffff1916827bffffffffffffffffffffffffffffffffffffffffffffffffffffffff191614806106125750610611826121db565b5b9050919050565b6000600160009054906101000a900473ffffffffffffffffffffffffffffffffffffffff16905090565b7f27d5ccc46db01bfa5691ce092fe276221c6cd0aa6d05765b52c3ddecfa70421a81565b6000806000838152602001908152602001600020600101549050919050565b61068f82610667565b61069881612245565b6106a28383612259565b50505050565b60006106b38361234a565b8180519060200120600360008581526020019081526020016000206002016040516106de919061318b565b604051809103902014905092915050565b6106f76123b0565b73ffffffffffffffffffffffffffffffffffffffff168173ffffffffffffffffffffffffffffffffffffffff161461075b576040517f6697b23200000000000000000000000000000000000000000000000000000000815260040160405180910390fd5b61076582826123b8565b505050565b6004602052816000526040600020818154811061078657600080fd5b9060005260206000209060020201600091509150508060000160009054906101000a900473ffffffffffffffffffffffffffffffffffffffff16908060010154905082565b60606107d68261234a565b60056000838152602001908152602001600020805480602002602001604051908101604052809291908181526020016000905b8282101561092d578382906000526020600020906003020160405180606001604052908160008201805461083c906130b7565b80601f0160208091040260200160405190810160405280929190818152602001828054610868906130b7565b80156108b55780601f1061088a576101008083540402835291602001916108b5565b820191906000526020600020905b81548152906001019060200180831161089857829003601f168201915b505050505081526020016001820160009054906101000a900473ffffffffffffffffffffffffffffffffffffffff1673ffffffffffffffffffffffffffffffffffffffff1673ffffffffffffffffffffffffffffffffffffffff16815260200160028201548152505081526020019060010190610809565b505050509050919050565b60606109438261234a565b60046000838152602001908152602001600020805480602002602001604051908101604052809291908181526020016000905b82821015610a0857838290600052602060002090600202016040518060400160405290816000820160009054906101000a900473ffffffffffffffffffffffffffffffffffffffff1673ffffffffffffffffffffffffffffffffffffffff1673ffffffffffffffffffffffffffffffffffffffff16815260200160018201548152505081526020019060010190610976565b505050509050919050565b60056020528160005260406000208181548110610a2f57600080fd5b906000526020600020906003020160009150915050806000018054610a53906130b7565b80601f0160208091040260200160405190810160405280929190818152602001828054610a7f906130b7565b8015610acc5780601f10610aa157610100808354040283529160200191610acc565b820191906000526020600020905b815481529060010190602001808311610aaf57829003601f168201915b5050505050908060010160009054906101000a900473ffffffffffffffffffffffffffffffffffffffff16908060020154905083565b60006060806000806000610b158761234a565b6000600360008981526020019081526020016000206040518060e001604052908160008201548152602001600182018054610b4f906130b7565b80601f0160208091040260200160405190810160405280929190818152602001828054610b7b906130b7565b8015610bc85780601f10610b9d57610100808354040283529160200191610bc8565b820191906000526020600020905b815481529060010190602001808311610bab57829003601f168201915b50505050508152602001600282018054610be1906130b7565b80601f0160208091040260200160405190810160405280929190818152602001828054610c0d906130b7565b8015610c5a5780601f10610c2f57610100808354040283529160200191610c5a565b820191906000526020600020905b815481529060010190602001808311610c3d57829003601f168201915b505050505081526020016003820160009054906101000a900473ffffffffffffffffffffffffffffffffffffffff1673ffffffffffffffffffffffffffffffffffffffff1673ffffffffffffffffffffffffffffffffffffffff1681526020016003820160149054906101000a900460ff161515151581526020016003820160159054906101000a900460ff161515151581526020016003820160169054906101000a900460ff161515151581525050905080600001518160200151826040015183606001518460a001518560c001519650965096509650965096505091939550919395565b6003602052806000526040600020600091509050806000015490806001018054610d69906130b7565b80601f0160208091040260200160405190810160405280929190818152602001828054610d95906130b7565b8015610de25780601f10610db757610100808354040283529160200191610de2565b820191906000526020600020905b815481529060010190602001808311610dc557829003601f168201915b505050505090806002018054610df7906130b7565b80601f0160208091040260200160405190810160405280929190818152602001828054610e23906130b7565b8015610e705780601f10610e4557610100808354040283529160200191610e70565b820191906000526020600020905b815481529060010190602001808311610e5357829003601f168201915b5050505050908060030160009054906101000a900473ffffffffffffffffffffffffffffffffffffffff16908060030160149054906101000a900460ff16908060030160159054906101000a900460ff16908060030160169054906101000a900460ff16905087565b7f6659d833875b88922d2576dad6c137a09ba676496bb2010bf8a72397792167a0610f0381612245565b6000835111610f47576040517f08c379a0000000000000000000000000000000000000000000000000000000008152600401610f3e906131ee565b60405180910390fd5b6000825111610f8b576040517f08c379a0000000000000000000000000000000000000000000000000000000008152600401610f829061325a565b60405180910390fd5b60026000815480929190610f9e906132a9565b91905055506040518060e0016040528060025481526020018481526020018381526020013373ffffffffffffffffffffffffffffffffffffffff1681526020016001151581526020016000151581526020016000151581525060036000600254815260200190815260200160002060008201518160000155602082015181600101908161102b9190613493565b5060408201518160020190816110419190613493565b5060608201518160030160006101000a81548173ffffffffffffffffffffffffffffffffffffffff021916908373ffffffffffffffffffffffffffffffffffffffff16021790555060808201518160030160146101000a81548160ff02191690831515021790555060a08201518160030160156101000a81548160ff02191690831515021790555060c08201518160030160166101000a81548160ff02191690831515021790555090505060046000600254815260200190815260200160002060405180604001604052803373ffffffffffffffffffffffffffffffffffffffff16815260200142815250908060018154018082558091505060019003906000526020600020906002020160009091909190915060008201518160000160006101000a81548173ffffffffffffffffffffffffffffffffffffffff021916908373ffffffffffffffffffffffffffffffffffffffff1602179055506020820151816001015550506111e96002546040518060400160405280601f81526020017f50726f647563742043726561746564206279204d616e756661637475726572008152506124aa565b3373ffffffffffffffffffffffffffffffffffffffff166002547f73e014c0a076665d9511a27e878fadccb6d7171f5754ba1167a670023760b01560405160405180910390a3505050565b600080600084815260200190815260200160002060000160008373ffffffffffffffffffffffffffffffffffffffff1673ffffffffffffffffffffffffffffffffffffffff16815260200190815260200160002060009054906101000a900460ff16905092915050565b7f6659d833875b88922d2576dad6c137a09ba676496bb2010bf8a72397792167a081565b6000801b81565b600060608060006112d98561234a565b6000600360008781526020019081526020016000206040518060e001604052908160008201548152602001600182018054611313906130b7565b80601f016020809104026020016040519081016040528092919081815260200182805461133f906130b7565b801561138c5780601f106113615761010080835404028352916020019161138c565b820191906000526020600020905b81548152906001019060200180831161136f57829003601f168201915b505050505081526020016002820180546113a5906130b7565b80601f01602080910402602001604051908101604052809291908181526020018280546113d1906130b7565b801561141e5780601f106113f35761010080835404028352916020019161141e565b820191906000526020600020905b81548152906001019060200180831161140157829003601f168201915b505050505081526020016003820160009054906101000a900473ffffffffffffffffffffffffffffffffffffffff1673ffffffffffffffffffffffffffffffffffffffff1673ffffffffffffffffffffffffffffffffffffffff1681526020016003820160149054906101000a900460ff161515151581526020016003820160159054906101000a900460ff161515151581526020016003820160169054906101000a900460ff161515151581525050905080600001518160200151826040015183606001519450945094509450509193509193565b6000801b61150181612245565b600073ffffffffffffffffffffffffffffffffffffffff168273ffffffffffffffffffffffffffffffffffffffff1603611570576040517f08c379a0000000000000000000000000000000000000000000000000000000008152600401611567906135b1565b60405180910390fd5b81600160006101000a81548173ffffffffffffffffffffffffffffffffffffffff021916908373ffffffffffffffffffffffffffffffffffffffff1602179055508173ffffffffffffffffffffffffffffffffffffffff167f43ab431641dd45dd0661cad4b820e826d7c526af92e3121e1242d721f82ab3ad60405160405180910390a25050565b61160182610667565b61160a81612245565b61161483836123b8565b50505050565b7f9d536f5f629a80fe6940f79b96b33c48ff97a31d5e6a548587bc178ef34b0ae481565b60025481565b600160009054906101000a900473ffffffffffffffffffffffffffffffffffffffff1681565b6116738261234a565b600073ffffffffffffffffffffffffffffffffffffffff168173ffffffffffffffffffffffffffffffffffffffff16036116e2576040517f08c379a00000000000000000000000000000000000000000000000000000000081526004016116d99061361d565b60405180910390fd5b60006003600084815260200190815260200160002090503373ffffffffffffffffffffffffffffffffffffffff168160030160009054906101000a900473ffffffffffffffffffffffffffffffffffffffff1673ffffffffffffffffffffffffffffffffffffffff161461178b576040517f08c379a000000000000000000000000000000000000000000000000000000000815260040161178290613689565b60405180910390fd5b8060030160169054906101000a900460ff16156117dd576040517f08c379a00000000000000000000000000000000000000000000000000000000081526004016117d4906136f5565b60405180910390fd5b8173ffffffffffffffffffffffffffffffffffffffff163373ffffffffffffffffffffffffffffffffffffffff160361184b576040517f08c379a000000000000000000000000000000000000000000000000000000000815260040161184290613761565b60405180910390fd5b6118757f6659d833875b88922d2576dad6c137a09ba676496bb2010bf8a72397792167a033611234565b156118e8576118a47f85faced7bde13e1a7dad704b895f006e704f207617d68166b31ba2d79624862d83611234565b6118e3576040517f08c379a00000000000000000000000000000000000000000000000000000000081526004016118da906137cd565b60405180910390fd5b611a5f565b6119127f85faced7bde13e1a7dad704b895f006e704f207617d68166b31ba2d79624862d33611234565b15611985576119417f9d536f5f629a80fe6940f79b96b33c48ff97a31d5e6a548587bc178ef34b0ae483611234565b611980576040517f08c379a000000000000000000000000000000000000000000000000000000000815260040161197790613839565b60405180910390fd5b611a5e565b6119af7f9d536f5f629a80fe6940f79b96b33c48ff97a31d5e6a548587bc178ef34b0ae433611234565b15611a22576119de7f27d5ccc46db01bfa5691ce092fe276221c6cd0aa6d05765b52c3ddecfa70421a83611234565b611a1d576040517f08c379a0000000000000000000000000000000000000000000000000000000008152600401611a14906138a5565b60405180910390fd5b611a5d565b6040517f08c379a0000000000000000000000000000000000000000000000000000000008152600401611a5490613911565b60405180910390fd5b5b5b60008160030160009054906101000a900473ffffffffffffffffffffffffffffffffffffffff169050828260030160006101000a81548173ffffffffffffffffffffffffffffffffffffffff021916908373ffffffffffffffffffffffffffffffffffffffff1602179055506004600085815260200190815260200160002060405180604001604052808573ffffffffffffffffffffffffffffffffffffffff16815260200142815250908060018154018082558091505060019003906000526020600020906002020160009091909190915060008201518160000160006101000a81548173ffffffffffffffffffffffffffffffffffffffff021916908373ffffffffffffffffffffffffffffffffffffffff160217905550602082015181600101555050611bc4846040518060400160405280601581526020017f4f776e657273686970205472616e7366657272656400000000000000000000008152506124aa565b8273ffffffffffffffffffffffffffffffffffffffff168173ffffffffffffffffffffffffffffffffffffffff16857f16b85f49bf01212961345d3016c9a531894accf62eb7680f2045d79185cc0ec060405160405180910390a450505050565b611c2e8161234a565b60006003600083815260200190815260200160002090503373ffffffffffffffffffffffffffffffffffffffff168160030160009054906101000a900473ffffffffffffffffffffffffffffffffffffffff1673ffffffffffffffffffffffffffffffffffffffff1614611cd7576040517f08c379a0000000000000000000000000000000000000000000000000000000008152600401611cce90613689565b60405180910390fd5b611d017f27d5ccc46db01bfa5691ce092fe276221c6cd0aa6d05765b52c3ddecfa70421a33611234565b611d40576040517f08c379a0000000000000000000000000000000000000000000000000000000008152600401611d37906138a5565b60405180910390fd5b8060030160169054906101000a900460ff1615611d92576040517f08c379a0000000000000000000000000000000000000000000000000000000008152600401611d89906136f5565b60405180910390fd5b60018160030160166101000a81548160ff021916908315150217905550611dee826040518060400160405280601181526020017f50726f647563742044656c6976657265640000000000000000000000000000008152506124aa565b3373ffffffffffffffffffffffffffffffffffffffff16827f3b9a2bc92f86b656bcb1ebf7bae17a2692a817afab798105a68a61b76220b76e60405160405180910390a3600073ffffffffffffffffffffffffffffffffffffffff16600160009054906101000a900473ffffffffffffffffffffffffffffffffffffffff1673ffffffffffffffffffffffffffffffffffffffff1603611ec3576040517f08c379a0000000000000000000000000000000000000000000000000000000008152600401611eba9061397d565b60405180910390fd5b600160009054906101000a900473ffffffffffffffffffffffffffffffffffffffff1673ffffffffffffffffffffffffffffffffffffffff166388685cd9836040518263ffffffff1660e01b8152600401611f1e9190612fb3565b600060405180830381600087803b158015611f3857600080fd5b505af1158015611f4c573d6000803e3d6000fd5b505050505050565b611f5d8161234a565b60006003600083815260200190815260200160002090503373ffffffffffffffffffffffffffffffffffffffff168160030160009054906101000a900473ffffffffffffffffffffffffffffffffffffffff1673ffffffffffffffffffffffffffffffffffffffff1614612006576040517f08c379a0000000000000000000000000000000000000000000000000000000008152600401611ffd90613689565b60405180910390fd5b6120307f85faced7bde13e1a7dad704b895f006e704f207617d68166b31ba2d79624862d33611234565b61206f576040517f08c379a0000000000000000000000000000000000000000000000000000000008152600401612066906137cd565b60405180910390fd5b8060030160159054906101000a900460ff16156120c1576040517f08c379a00000000000000000000000000000000000000000000000000000000081526004016120b8906139e9565b60405180910390fd5b8060030160169054906101000a900460ff1615612113576040517f08c379a000000000000000000000000000000000000000000000000000000000815260040161210a906136f5565b60405180910390fd5b60018160030160156101000a81548160ff02191690831515021790555061216f826040518060400160405280600f81526020017f50726f64756374205368697070656400000000000000000000000000000000008152506124aa565b3373ffffffffffffffffffffffffffffffffffffffff16827f8e4a7d4c074e0429c8218617269577bebe92d664dba0a99330d36a7460b5a62460405160405180910390a35050565b7f85faced7bde13e1a7dad704b895f006e704f207617d68166b31ba2d79624862d81565b60007f01ffc9a7000000000000000000000000000000000000000000000000000000007bffffffffffffffffffffffffffffffffffffffffffffffffffffffff1916827bffffffffffffffffffffffffffffffffffffffffffffffffffffffff1916149050919050565b612256816122516123b0565b612584565b50565b60006122658383611234565b61233f57600160008085815260200190815260200160002060000160008473ffffffffffffffffffffffffffffffffffffffff1673ffffffffffffffffffffffffffffffffffffffff16815260200190815260200160002060006101000a81548160ff0219169083151502179055506122dc6123b0565b73ffffffffffffffffffffffffffffffffffffffff168273ffffffffffffffffffffffffffffffffffffffff16847f2f8788117e7eff1d82e926ec794901d17c78024a50270940304540a733656f0d60405160405180910390a460019050612344565b600090505b92915050565b6003600082815260200190815260200160002060030160149054906101000a900460ff166123ad576040517f08c379a00000000000000000000000000000000000000000000000000000000081526004016123a490613a55565b60405180910390fd5b50565b600033905090565b60006123c48383611234565b1561249f57600080600085815260200190815260200160002060000160008473ffffffffffffffffffffffffffffffffffffffff1673ffffffffffffffffffffffffffffffffffffffff16815260200190815260200160002060006101000a81548160ff02191690831515021790555061243c6123b0565b73ffffffffffffffffffffffffffffffffffffffff168273ffffffffffffffffffffffffffffffffffffffff16847ff6391f5c32d9c69d2a47ea670b442974b53935d1edc7fd64eb21e047a839171b60405160405180910390a4600190506124a4565b600090505b92915050565b6005600083815260200190815260200160002060405180606001604052808381526020013373ffffffffffffffffffffffffffffffffffffffff168152602001428152509080600181540180825580915050600190039060005260206000209060030201600090919091909150600082015181600001908161252c9190613493565b5060208201518160010160006101000a81548173ffffffffffffffffffffffffffffffffffffffff021916908373ffffffffffffffffffffffffffffffffffffffff1602179055506040820151816002015550505050565b61258e8282611234565b6125d15780826040517fe2517d3f0000000000000000000000000000000000000000000000000000000081526004016125c8929190613a75565b60405180910390fd5b5050565b6000604051905090565b600080fd5b600080fd5b60007fffffffff0000000000000000000000000000000000000000000000000000000082169050919050565b61261e816125e9565b811461262957600080fd5b50565b60008135905061263b81612615565b92915050565b600060208284031215612657576126566125df565b5b60006126658482850161262c565b91505092915050565b60008115159050919050565b6126838161266e565b82525050565b600060208201905061269e600083018461267a565b92915050565b600073ffffffffffffffffffffffffffffffffffffffff82169050919050565b60006126cf826126a4565b9050919050565b6126df816126c4565b82525050565b60006020820190506126fa60008301846126d6565b92915050565b6000819050919050565b61271381612700565b82525050565b600060208201905061272e600083018461270a565b92915050565b61273d81612700565b811461274857600080fd5b50565b60008135905061275a81612734565b92915050565b600060208284031215612776576127756125df565b5b60006127848482850161274b565b91505092915050565b612796816126c4565b81146127a157600080fd5b50565b6000813590506127b38161278d565b92915050565b600080604083850312156127d0576127cf6125df565b5b60006127de8582860161274b565b92505060206127ef858286016127a4565b9150509250929050565b6000819050919050565b61280c816127f9565b811461281757600080fd5b50565b60008135905061282981612803565b92915050565b600080fd5b600080fd5b6000601f19601f8301169050919050565b7f4e487b7100000000000000000000000000000000000000000000000000000000600052604160045260246000fd5b61288282612839565b810181811067ffffffffffffffff821117156128a1576128a061284a565b5b80604052505050565b60006128b46125d5565b90506128c08282612879565b919050565b600067ffffffffffffffff8211156128e0576128df61284a565b5b6128e982612839565b9050602081019050919050565b82818337600083830152505050565b6000612918612913846128c5565b6128aa565b90508281526020810184848401111561293457612933612834565b5b61293f8482856128f6565b509392505050565b600082601f83011261295c5761295b61282f565b5b813561296c848260208601612905565b91505092915050565b6000806040838503121561298c5761298b6125df565b5b600061299a8582860161281a565b925050602083013567ffffffffffffffff8111156129bb576129ba6125e4565b5b6129c785828601612947565b9150509250929050565b600080604083850312156129e8576129e76125df565b5b60006129f68582860161281a565b9250506020612a078582860161281a565b9150509250929050565b612a1a816127f9565b82525050565b6000604082019050612a3560008301856126d6565b612a426020830184612a11565b9392505050565b600060208284031215612a5f57612a5e6125df565b5b6000612a6d8482850161281a565b91505092915050565b600081519050919050565b600082825260208201905092915050565b6000819050602082019050919050565b600081519050919050565b600082825260208201905092915050565b60005b83811015612adc578082015181840152602081019050612ac1565b60008484015250505050565b6000612af382612aa2565b612afd8185612aad565b9350612b0d818560208601612abe565b612b1681612839565b840191505092915050565b612b2a816126c4565b82525050565b612b39816127f9565b82525050565b60006060830160008301518482036000860152612b5c8282612ae8565b9150506020830151612b716020860182612b21565b506040830151612b846040860182612b30565b508091505092915050565b6000612b9b8383612b3f565b905092915050565b6000602082019050919050565b6000612bbb82612a76565b612bc58185612a81565b935083602082028501612bd785612a92565b8060005b85811015612c135784840389528151612bf48582612b8f565b9450612bff83612ba3565b925060208a01995050600181019050612bdb565b50829750879550505050505092915050565b60006020820190508181036000830152612c3f8184612bb0565b905092915050565b600081519050919050565b600082825260208201905092915050565b6000819050602082019050919050565b604082016000820151612c896000850182612b21565b506020820151612c9c6020850182612b30565b50505050565b6000612cae8383612c73565b60408301905092915050565b6000602082019050919050565b6000612cd282612c47565b612cdc8185612c52565b9350612ce783612c63565b8060005b83811015612d18578151612cff8882612ca2565b9750612d0a83612cba565b925050600181019050612ceb565b5085935050505092915050565b60006020820190508181036000830152612d3f8184612cc7565b905092915050565b600082825260208201905092915050565b6000612d6382612aa2565b612d6d8185612d47565b9350612d7d818560208601612abe565b612d8681612839565b840191505092915050565b60006060820190508181036000830152612dab8186612d58565b9050612dba60208301856126d6565b612dc76040830184612a11565b949350505050565b600060c082019050612de46000830189612a11565b8181036020830152612df68188612d58565b90508181036040830152612e0a8187612d58565b9050612e1960608301866126d6565b612e26608083018561267a565b612e3360a083018461267a565b979650505050505050565b600060e082019050612e53600083018a612a11565b8181036020830152612e658189612d58565b90508181036040830152612e798188612d58565b9050612e8860608301876126d6565b612e95608083018661267a565b612ea260a083018561267a565b612eaf60c083018461267a565b98975050505050505050565b60008060408385031215612ed257612ed16125df565b5b600083013567ffffffffffffffff811115612ef057612eef6125e4565b5b612efc85828601612947565b925050602083013567ffffffffffffffff811115612f1d57612f1c6125e4565b5b612f2985828601612947565b9150509250929050565b6000608082019050612f486000830187612a11565b8181036020830152612f5a8186612d58565b90508181036040830152612f6e8185612d58565b9050612f7d60608301846126d6565b95945050505050565b600060208284031215612f9c57612f9b6125df565b5b6000612faa848285016127a4565b91505092915050565b6000602082019050612fc86000830184612a11565b92915050565b6000819050919050565b6000612ff3612fee612fe9846126a4565b612fce565b6126a4565b9050919050565b600061300582612fd8565b9050919050565b600061301782612ffa565b9050919050565b6130278161300c565b82525050565b6000602082019050613042600083018461301e565b92915050565b6000806040838503121561305f5761305e6125df565b5b600061306d8582860161281a565b925050602061307e858286016127a4565b9150509250929050565b7f4e487b7100000000000000000000000000000000000000000000000000000000600052602260045260246000fd5b600060028204905060018216806130cf57607f821691505b6020821081036130e2576130e1613088565b5b50919050565b600081905092915050565b60008190508160005260206000209050919050565b60008154613115816130b7565b61311f81866130e8565b9450600182166000811461313a576001811461314f57613182565b60ff1983168652811515820286019350613182565b613158856130f3565b60005b8381101561317a5781548189015260018201915060208101905061315b565b838801955050505b50505092915050565b60006131978284613108565b915081905092915050565b7f4e616d6520726571756972656400000000000000000000000000000000000000600082015250565b60006131d8600d83612d47565b91506131e3826131a2565b602082019050919050565b60006020820190508181036000830152613207816131cb565b9050919050565b7f4d65746164617461207265717569726564000000000000000000000000000000600082015250565b6000613244601183612d47565b915061324f8261320e565b602082019050919050565b6000602082019050818103600083015261327381613237565b9050919050565b7f4e487b7100000000000000000000000000000000000000000000000000000000600052601160045260246000fd5b60006132b4826127f9565b91507fffffffffffffffffffffffffffffffffffffffffffffffffffffffffffffffff82036132e6576132e561327a565b5b600182019050919050565b60008190508160005260206000209050919050565b60006020601f8301049050919050565b600082821b905092915050565b6000600883026133537fffffffffffffffffffffffffffffffffffffffffffffffffffffffffffffffff82613316565b61335d8683613316565b95508019841693508086168417925050509392505050565b600061339061338b613386846127f9565b612fce565b6127f9565b9050919050565b6000819050919050565b6133aa83613375565b6133be6133b682613397565b848454613323565b825550505050565b600090565b6133d36133c6565b6133de8184846133a1565b505050565b5b81811015613402576133f76000826133cb565b6001810190506133e4565b5050565b601f82111561344757613418816132f1565b61342184613306565b81016020851015613430578190505b61344461343c85613306565b8301826133e3565b50505b505050565b600082821c905092915050565b600061346a6000198460080261344c565b1980831691505092915050565b60006134838383613459565b9150826002028217905092915050565b61349c82612aa2565b67ffffffffffffffff8111156134b5576134b461284a565b5b6134bf82546130b7565b6134ca828285613406565b600060209050601f8311600181146134fd57600084156134eb578287015190505b6134f58582613477565b86555061355d565b601f19841661350b866132f1565b60005b828110156135335784890151825560018201915060208501945060208101905061350e565b86831015613550578489015161354c601f891682613459565b8355505b6001600288020188555050505b505050505050565b7f496e76616c696420657363726f77206164647265737300000000000000000000600082015250565b600061359b601683612d47565b91506135a682613565565b602082019050919050565b600060208201905081810360008301526135ca8161358e565b9050919050565b7f496e76616c696420726563697069656e74000000000000000000000000000000600082015250565b6000613607601183612d47565b9150613612826135d1565b602082019050919050565b60006020820190508181036000830152613636816135fa565b9050919050565b7f4e6f74206f776e65720000000000000000000000000000000000000000000000600082015250565b6000613673600983612d47565b915061367e8261363d565b602082019050919050565b600060208201905081810360008301526136a281613666565b9050919050565b7f416c72656164792064656c697665726564000000000000000000000000000000600082015250565b60006136df601183612d47565b91506136ea826136a9565b602082019050919050565b6000602082019050818103600083015261370e816136d2565b9050919050565b7f43616e6e6f74207472616e7366657220746f2073656c66000000000000000000600082015250565b600061374b601783612d47565b915061375682613715565b602082019050919050565b6000602082019050818103600083015261377a8161373e565b9050919050565b7f4f6e6c79204469737472696275746f7200000000000000000000000000000000600082015250565b60006137b7601083612d47565b91506137c282613781565b602082019050919050565b600060208201905081810360008301526137e6816137aa565b9050919050565b7f4f6e6c792057686f6c6573616c65720000000000000000000000000000000000600082015250565b6000613823600f83612d47565b915061382e826137ed565b602082019050919050565b6000602082019050818103600083015261385281613816565b9050919050565b7f4f6e6c792052657461696c657200000000000000000000000000000000000000600082015250565b600061388f600d83612d47565b915061389a82613859565b602082019050919050565b600060208201905081810360008301526138be81613882565b9050919050565b7f556e617574686f72697a6564207472616e7366657220726f6c65000000000000600082015250565b60006138fb601a83612d47565b9150613906826138c5565b602082019050919050565b6000602082019050818103600083015261392a816138ee565b9050919050565b7f457363726f77206e6f7420736574000000000000000000000000000000000000600082015250565b6000613967600e83612d47565b915061397282613931565b602082019050919050565b600060208201905081810360008301526139968161395a565b9050919050565b7f416c726561647920736869707065640000000000000000000000000000000000600082015250565b60006139d3600f83612d47565b91506139de8261399d565b602082019050919050565b60006020820190508181036000830152613a02816139c6565b9050919050565b7f50726f6475637420646f6573206e6f7420657869737400000000000000000000600082015250565b6000613a3f601683612d47565b9150613a4a82613a09565b602082019050919050565b60006020820190508181036000830152613a6e81613a32565b9050919050565b6000604082019050613a8a60008301856126d6565b613a97602083018461270a565b939250505056fea2646970667358221220ed9590bc19c3197af6034281de187228807de0d7d0c19185c6c041439268cb4e64736f6c63430008140033",
  "linkReferences": {},
  "deployedLinkReferences": {}
}