{
  "_format": "hh-sol-artifact-1",
  "contractName": "SupplyChain",
  "sourceName": "contracts/SupplyChain.sol",
  "abi": [
    {
      "inputs": [],
      "stateMutability": "nonpayable",
      "type": "constructor"
    },
    {
      "inputs": [],
      "name": "AccessControlBadConfirmation",
      "type": "error"
    },
    {
      "inputs": [
        {
          "internalType": "address",
          "name": "account",
          "type": "address"
        },
        {
          "internalType": "bytes32",
          "name": "neededRole",
          "type": "bytes32"
        }
      ],
      "name": "AccessControlUnauthorizedAccount",
      "type": "error"
    },
    {
      "anonymous": false,
      "inputs": [
        {
          "indexed": false,
          "internalType": "uint256",
          "name": "productId",
          "type": "uint256"
        },
        {
          "indexed": false,
          "internalType": "address",
          "name": "from",
          "type": "address"
        },
        {
          "indexed": false,
          "internalType": "address",
          "name": "to",
          "type": "address"
        }
      ],
      "name": "OwnershipTransferred",
      "type": "event"
    },
    {
      "anonymous": false,
      "inputs": [
        {
          "indexed": false,
          "internalType": "uint256",
          "name": "productId",
          "type": "uint256"
        },
        {
          "indexed": false,
          "internalType": "address",
          "name": "manufacturer",
          "type": "address"
        }
      ],
      "name": "ProductRegistered",
      "type": "event"
    },
    {
      "anonymous": false,
      "inputs": [
        {
          "indexed": true,
          "internalType": "bytes32",
          "name": "role",
          "type": "bytes32"
        },
        {
          "indexed": true,
          "internalType": "bytes32",
          "name": "previousAdminRole",
          "type": "bytes32"
        },
        {
          "indexed": true,
          "internalType": "bytes32",
          "name": "newAdminRole",
          "type": "bytes32"
        }
      ],
      "name": "RoleAdminChanged",
      "type": "event"
    },
    {
      "anonymous": false,
      "inputs": [
        {
          "indexed": true,
          "internalType": "bytes32",
          "name": "role",
          "type": "bytes32"
        },
        {
          "indexed": true,
          "internalType": "address",
          "name": "account",
          "type": "address"
        },
        {
          "indexed": true,
          "internalType": "address",
          "name": "sender",
          "type": "address"
        }
      ],
      "name": "RoleGranted",
      "type": "event"
    },
    {
      "anonymous": false,
      "inputs": [
        {
          "indexed": true,
          "internalType": "bytes32",
          "name": "role",
          "type": "bytes32"
        },
        {
          "indexed": true,
          "internalType": "address",
          "name": "account",
          "type": "address"
        },
        {
          "indexed": true,
          "internalType": "address",
          "name": "sender",
          "type": "address"
        }
      ],
      "name": "RoleRevoked",
      "type": "event"
    },
    {
      "inputs": [],
      "name": "DEFAULT_ADMIN_ROLE",
      "outputs": [
        {
          "internalType": "bytes32",
          "name": "",
          "type": "bytes32"
        }
      ],
      "stateMutability": "view",
      "type": "function"
    },
    {
      "inputs": [],
      "name": "DISTRIBUTOR_ROLE",
      "outputs": [
        {
          "internalType": "bytes32",
          "name": "",
          "type": "bytes32"
        }
      ],
      "stateMutability": "view",
      "type": "function"
    },
    {
      "inputs": [],
      "name": "MANUFACTURER_ROLE",
      "outputs": [
        {
          "internalType": "bytes32",
          "name": "",
          "type": "bytes32"
        }
      ],
      "stateMutability": "view",
      "type": "function"
    },
    {
      "inputs": [],
      "name": "RETAILER_ROLE",
      "outputs": [
        {
          "internalType": "bytes32",
          "name": "",
          "type": "bytes32"
        }
      ],
      "stateMutability": "view",
      "type": "function"
    },
    {
      "inputs": [],
      "name": "WHOLESALER_ROLE",
      "outputs": [
        {
          "internalType": "bytes32",
          "name": "",
          "type": "bytes32"
        }
      ],
      "stateMutability": "view",
      "type": "function"
    },
    {
      "inputs": [],
      "name": "escrow",
      "outputs": [
        {
          "internalType": "contract IEscrow",
          "name": "",
          "type": "address"
        }
      ],
      "stateMutability": "view",
      "type": "function"
    },
    {
      "inputs": [
        {
          "internalType": "uint256",
          "name": "_productId",
          "type": "uint256"
        }
      ],
      "name": "getProduct",
      "outputs": [
        {
          "internalType": "uint256",
          "name": "",
          "type": "uint256"
        },
        {
          "internalType": "string",
          "name": "",
          "type": "string"
        },
        {
          "internalType": "string",
          "name": "",
          "type": "string"
        },
        {
          "internalType": "address",
          "name": "",
          "type": "address"
        }
      ],
      "stateMutability": "view",
      "type": "function"
    },
    {
      "inputs": [
        {
          "internalType": "uint256",
          "name": "_productId",
          "type": "uint256"
        }
      ],
      "name": "getProductEvents",
      "outputs": [
        {
          "components": [
            {
              "internalType": "string",
              "name": "action",
              "type": "string"
            },
            {
              "internalType": "address",
              "name": "actor",
              "type": "address"
            },
            {
              "internalType": "uint256",
              "name": "timestamp",
              "type": "uint256"
            }
          ],
          "internalType": "struct SupplyChain.ProductEvent[]",
          "name": "",
          "type": "tuple[]"
        }
      ],
      "stateMutability": "view",
      "type": "function"
    },
    {
      "inputs": [
        {
          "internalType": "uint256",
          "name": "_productId",
          "type": "uint256"
        }
      ],
      "name": "getProductHistory",
      "outputs": [
        {
          "components": [
            {
              "internalType": "address",
              "name": "owner",
              "type": "address"
            },
            {
              "internalType": "uint256",
              "name": "timestamp",
              "type": "uint256"
            }
          ],
          "internalType": "struct SupplyChain.Ownership[]",
          "name": "",
          "type": "tuple[]"
        }
      ],
      "stateMutability": "view",
      "type": "function"
    },
    {
      "inputs": [
        {
          "internalType": "bytes32",
          "name": "role",
          "type": "bytes32"
        }
      ],
      "name": "getRoleAdmin",
      "outputs": [
        {
          "internalType": "bytes32",
          "name": "",
          "type": "bytes32"
        }
      ],
      "stateMutability": "view",
      "type": "function"
    },
    {
      "inputs": [
        {
          "internalType": "bytes32",
          "name": "role",
          "type": "bytes32"
        },
        {
          "internalType": "address",
          "name": "account",
          "type": "address"
        }
      ],
      "name": "grantRole",
      "outputs": [],
      "stateMutability": "nonpayable",
      "type": "function"
    },
    {
      "inputs": [
        {
          "internalType": "bytes32",
          "name": "role",
          "type": "bytes32"
        },
        {
          "internalType": "address",
          "name": "account",
          "type": "address"
        }
      ],
      "name": "hasRole",
      "outputs": [
        {
          "internalType": "bool",
          "name": "",
          "type": "bool"
        }
      ],
      "stateMutability": "view",
      "type": "function"
    },
    {
      "inputs": [
        {
          "internalType": "uint256",
          "name": "_productId",
          "type": "uint256"
        }
      ],
      "name": "markDelivered",
      "outputs": [],
      "stateMutability": "nonpayable",
      "type": "function"
    },
    {
      "inputs": [
        {
          "internalType": "uint256",
          "name": "_productId",
          "type": "uint256"
        }
      ],
      "name": "markShipped",
      "outputs": [],
      "stateMutability": "nonpayable",
      "type": "function"
    },
    {
      "inputs": [],
      "name": "productCount",
      "outputs": [
        {
          "internalType": "uint256",
          "name": "",
          "type": "uint256"
        }
      ],
      "stateMutability": "view",
      "type": "function"
    },
    {
      "inputs": [
        {
          "internalType": "uint256",
          "name": "",
          "type": "uint256"
        },
        {
          "internalType": "uint256",
          "name": "",
          "type": "uint256"
        }
      ],
      "name": "productEvents",
      "outputs": [
        {
          "internalType": "string",
          "name": "action",
          "type": "string"
        },
        {
          "internalType": "address",
          "name": "actor",
          "type": "address"
        },
        {
          "internalType": "uint256",
          "name": "timestamp",
          "type": "uint256"
        }
      ],
      "stateMutability": "view",
      "type": "function"
    },
    {
      "inputs": [
        {
          "internalType": "uint256",
          "name": "",
          "type": "uint256"
        },
        {
          "internalType": "uint256",
          "name": "",
          "type": "uint256"
        }
      ],
      "name": "productHistory",
      "outputs": [
        {
          "internalType": "address",
          "name": "owner",
          "type": "address"
        },
        {
          "internalType": "uint256",
          "name": "timestamp",
          "type": "uint256"
        }
      ],
      "stateMutability": "view",
      "type": "function"
    },
    {
      "inputs": [
        {
          "internalType": "uint256",
          "name": "",
          "type": "uint256"
        }
      ],
      "name": "products",
      "outputs": [
        {
          "internalType": "uint256",
          "name": "id",
          "type": "uint256"
        },
        {
          "internalType": "string",
          "name": "name",
          "type": "string"
        },
        {
          "internalType": "string",
          "name": "metadataHash",
          "type": "string"
        },
        {
          "internalType": "address",
          "name": "currentOwner",
          "type": "address"
        },
        {
          "internalType": "bool",
          "name": "exists",
          "type": "bool"
        }
      ],
      "stateMutability": "view",
      "type": "function"
    },
    {
      "inputs": [
        {
          "internalType": "string",
          "name": "_name",
          "type": "string"
        },
        {
          "internalType": "string",
          "name": "_metadataHash",
          "type": "string"
        }
      ],
      "name": "registerProduct",
      "outputs": [],
      "stateMutability": "nonpayable",
      "type": "function"
    },
    {
      "inputs": [
        {
          "internalType": "bytes32",
          "name": "role",
          "type": "bytes32"
        },
        {
          "internalType": "address",
          "name": "callerConfirmation",
          "type": "address"
        }
      ],
      "name": "renounceRole",
      "outputs": [],
      "stateMutability": "nonpayable",
      "type": "function"
    },
    {
      "inputs": [
        {
          "internalType": "bytes32",
          "name": "role",
          "type": "bytes32"
        },
        {
          "internalType": "address",
          "name": "account",
          "type": "address"
        }
      ],
      "name": "revokeRole",
      "outputs": [],
      "stateMutability": "nonpayable",
      "type": "function"
    },
    {
      "inputs": [
        {
          "internalType": "address",
          "name": "_escrow",
          "type": "address"
        }
      ],
      "name": "setEscrow",
      "outputs": [],
      "stateMutability": "nonpayable",
      "type": "function"
    },
    {
      "inputs": [
        {
          "internalType": "bytes4",
          "name": "interfaceId",
          "type": "bytes4"
        }
      ],
      "name": "supportsInterface",
      "outputs": [
        {
          "internalType": "bool",
          "name": "",
          "type": "bool"
        }
      ],
      "stateMutability": "view",
      "type": "function"
    },
    {
      "inputs": [
        {
          "internalType": "uint256",
          "name": "_productId",
          "type": "uint256"
        },
        {
          "internalType": "address",
          "name": "_to",
          "type": "address"
        }
      ],
      "name": "transferProduct",
      "outputs": [],
      "stateMutability": "nonpayable",
      "type": "function"
    },
    {
      "inputs": [
        {
          "internalType": "uint256",
          "name": "_productId",
          "type": "uint256"
        },
        {
          "internalType": "string",
          "name": "_metadataHash",
          "type": "string"
        }
      ],
      "name": "verifyProduct",
      "outputs": [
        {
          "internalType": "bool",
          "name": "",
          "type": "bool"
        }
      ],
      "stateMutability": "view",
      "type": "function"
    }
  ],
  "bytecode": "0x60806040523480156200001157600080fd5b50620000276000801b336200006160201b60201c565b506200005a7f6659d833875b88922d2576dad6c137a09ba676496bb2010bf8a72397792167a0336200006160201b60201c565b50620001d6565b60006200007583836200016460201b60201c565b6200015957600160008085815260200190815260200160002060000160008473ffffffffffffffffffffffffffffffffffffffff1673ffffffffffffffffffffffffffffffffffffffff16815260200190815260200160002060006101000a81548160ff021916908315150217905550620000f5620001ce60201b60201c565b73ffffffffffffffffffffffffffffffffffffffff168273ffffffffffffffffffffffffffffffffffffffff16847f2f8788117e7eff1d82e926ec794901d17c78024a50270940304540a733656f0d60405160405180910390a4600190506200015e565b600090505b92915050565b600080600084815260200190815260200160002060000160008373ffffffffffffffffffffffffffffffffffffffff1673ffffffffffffffffffffffffffffffffffffffff16815260200190815260200160002060009054906101000a900460ff16905092915050565b600033905090565b612fb880620001e66000396000f3fe608060405234801561001057600080fd5b50600436106101735760003560e01c806391d14854116100de578063d7cb8d3411610097578063e43059e511610071578063e43059e5146104a2578063eb826a5f146104be578063eed90d6b146104da578063f0bd87cc146104f657610173565b8063d7cb8d3414610448578063e0f6ef8714610466578063e2fdcc171461048457610173565b806391d1485414610371578063965288b0146103a1578063a217fddf146103bf578063b9db15b4146103dd578063c10c354614610410578063d547741f1461042c57610173565b80633a7d2376116101305780633a7d23761461025e578063409a8fcd1461028f57806357a096a1146102bf5780635ed059c9146102ef5780637acc0b20146103215780638fbd0dcf1461035557610173565b806301ffc9a7146101785780632115e7bf146101a8578063248a9ca3146101c65780632f2ff15d146101f65780633267721c1461021257806336568abe14610242575b600080fd5b610192600480360381019061018d9190611f37565b610514565b60405161019f9190611f7f565b60405180910390f35b6101b061058e565b6040516101bd9190611fb3565b60405180910390f35b6101e060048036038101906101db9190611ffa565b6105b2565b6040516101ed9190611fb3565b60405180910390f35b610210600480360381019061020b9190612085565b6105d1565b005b61022c60048036038101906102279190612241565b6105f3565b6040516102399190611f7f565b60405180910390f35b61025c60048036038101906102579190612085565b610694565b005b6102786004803603810190610273919061229d565b61070f565b6040516102869291906122fb565b60405180910390f35b6102a960048036038101906102a49190612324565b610770565b6040516102b69190612500565b60405180910390f35b6102d960048036038101906102d49190612324565b6108d4565b6040516102e69190612600565b60405180910390f35b6103096004803603810190610304919061229d565b6109a6565b6040516103189392919061266c565b60405180910390f35b61033b60048036038101906103369190612324565b610a95565b60405161034c9594939291906126aa565b60405180910390f35b61036f600480360381019061036a919061270b565b610c08565b005b61038b60048036038101906103869190612085565b610e7e565b6040516103989190611f7f565b60405180910390f35b6103a9610ee8565b6040516103b69190611fb3565b60405180910390f35b6103c7610f0c565b6040516103d49190611fb3565b60405180910390f35b6103f760048036038101906103f29190612324565b610f13565b6040516104079493929190612783565b60405180910390f35b61042a600480360381019061042591906127d6565b611162565b005b61044660048036038101906104419190612085565b6111b4565b005b6104506111d6565b60405161045d9190611fb3565b60405180910390f35b61046e6111fa565b60405161047b9190612803565b60405180910390f35b61048c611200565b604051610499919061287d565b60405180910390f35b6104bc60048036038101906104b79190612898565b611226565b005b6104d860048036038101906104d39190612324565b6116cb565b005b6104f460048036038101906104ef9190612324565b611961565b005b6104fe611b13565b60405161050b9190611fb3565b60405180910390f35b60007f7965db0b000000000000000000000000000000000000000000000000000000007bffffffffffffffffffffffffffffffffffffffffffffffffffffffff1916827bffffffffffffffffffffffffffffffffffffffffffffffffffffffff19161480610587575061058682611b37565b5b9050919050565b7f27d5ccc46db01bfa5691ce092fe276221c6cd0aa6d05765b52c3ddecfa70421a81565b6000806000838152602001908152602001600020600101549050919050565b6105da826105b2565b6105e381611ba1565b6105ed8383611bb5565b50505050565b60006003600084815260200190815260200160002060030160149054906101000a900460ff16610658576040517f08c379a000000000000000000000000000000000000000000000000000000000815260040161064f90612924565b60405180910390fd5b8180519060200120600360008581526020019081526020016000206002016040516106839190612a47565b604051809103902014905092915050565b61069c611ca6565b73ffffffffffffffffffffffffffffffffffffffff168173ffffffffffffffffffffffffffffffffffffffff1614610700576040517f6697b23200000000000000000000000000000000000000000000000000000000815260040160405180910390fd5b61070a8282611cae565b505050565b6004602052816000526040600020818154811061072b57600080fd5b9060005260206000209060020201600091509150508060000160009054906101000a900473ffffffffffffffffffffffffffffffffffffffff16908060010154905082565b606060056000838152602001908152602001600020805480602002602001604051908101604052809291908181526020016000905b828210156108c957838290600052602060002090600302016040518060600160405290816000820180546107d890612973565b80601f016020809104026020016040519081016040528092919081815260200182805461080490612973565b80156108515780601f1061082657610100808354040283529160200191610851565b820191906000526020600020905b81548152906001019060200180831161083457829003601f168201915b505050505081526020016001820160009054906101000a900473ffffffffffffffffffffffffffffffffffffffff1673ffffffffffffffffffffffffffffffffffffffff1673ffffffffffffffffffffffffffffffffffffffff168152602001600282015481525050815260200190600101906107a5565b505050509050919050565b606060046000838152602001908152602001600020805480602002602001604051908101604052809291908181526020016000905b8282101561099b57838290600052602060002090600202016040518060400160405290816000820160009054906101000a900473ffffffffffffffffffffffffffffffffffffffff1673ffffffffffffffffffffffffffffffffffffffff1673ffffffffffffffffffffffffffffffffffffffff16815260200160018201548152505081526020019060010190610909565b505050509050919050565b600560205281600052604060002081815481106109c257600080fd5b9060005260206000209060030201600091509150508060000180546109e690612973565b80601f0160208091040260200160405190810160405280929190818152602001828054610a1290612973565b8015610a5f5780601f10610a3457610100808354040283529160200191610a5f565b820191906000526020600020905b815481529060010190602001808311610a4257829003601f168201915b5050505050908060010160009054906101000a900473ffffffffffffffffffffffffffffffffffffffff16908060020154905083565b6003602052806000526040600020600091509050806000015490806001018054610abe90612973565b80601f0160208091040260200160405190810160405280929190818152602001828054610aea90612973565b8015610b375780601f10610b0c57610100808354040283529160200191610b37565b820191906000526020600020905b815481529060010190602001808311610b1a57829003601f168201915b505050505090806002018054610b4c90612973565b80601f0160208091040260200160405190810160405280929190818152602001828054610b7890612973565b8015610bc55780601f10610b9a57610100808354040283529160200191610bc5565b820191906000526020600020905b815481529060010190602001808311610ba857829003601f168201915b5050505050908060030160009054906101000a900473ffffffffffffffffffffffffffffffffffffffff16908060030160149054906101000a900460ff16905085565b7f6659d833875b88922d2576dad6c137a09ba676496bb2010bf8a72397792167a0610c3281611ba1565b60026000815480929190610c4590612a8d565b91905055506040518060a0016040528060025481526020018481526020018381526020013373ffffffffffffffffffffffffffffffffffffffff16815260200160011515815250600360006002548152602001908152602001600020600082015181600001556020820151816001019081610cc09190612c77565b506040820151816002019081610cd69190612c77565b5060608201518160030160006101000a81548173ffffffffffffffffffffffffffffffffffffffff021916908373ffffffffffffffffffffffffffffffffffffffff16021790555060808201518160030160146101000a81548160ff02191690831515021790555090505060046000600254815260200190815260200160002060405180604001604052803373ffffffffffffffffffffffffffffffffffffffff16815260200142815250908060018154018082558091505060019003906000526020600020906002020160009091909190915060008201518160000160006101000a81548173ffffffffffffffffffffffffffffffffffffffff021916908373ffffffffffffffffffffffffffffffffffffffff160217905550602082015181600101555050610e3e6002546040518060400160405280601f81526020017f50726f647563742043726561746564206279204d616e75666163747572657200815250611da0565b7f73e014c0a076665d9511a27e878fadccb6d7171f5754ba1167a670023760b01560025433604051610e71929190612d49565b60405180910390a1505050565b600080600084815260200190815260200160002060000160008373ffffffffffffffffffffffffffffffffffffffff1673ffffffffffffffffffffffffffffffffffffffff16815260200190815260200160002060009054906101000a900460ff16905092915050565b7f6659d833875b88922d2576dad6c137a09ba676496bb2010bf8a72397792167a081565b6000801b81565b600060608060006003600086815260200190815260200160002060030160149054906101000a900460ff16610f7d576040517f08c379a0000000000000000000000000000000000000000000000000000000008152600401610f7490612924565b60405180910390fd5b6000600360008781526020019081526020016000206040518060a001604052908160008201548152602001600182018054610fb790612973565b80601f0160208091040260200160405190810160405280929190818152602001828054610fe390612973565b80156110305780601f1061100557610100808354040283529160200191611030565b820191906000526020600020905b81548152906001019060200180831161101357829003601f168201915b5050505050815260200160028201805461104990612973565b80601f016020809104026020016040519081016040528092919081815260200182805461107590612973565b80156110c25780601f10611097576101008083540402835291602001916110c2565b820191906000526020600020905b8154815290600101906020018083116110a557829003601f168201915b505050505081526020016003820160009054906101000a900473ffffffffffffffffffffffffffffffffffffffff1673ffffffffffffffffffffffffffffffffffffffff1673ffffffffffffffffffffffffffffffffffffffff1681526020016003820160149054906101000a900460ff161515151581525050905080600001518160200151826040015183606001519450945094509450509193509193565b6000801b61116f81611ba1565b81600160006101000a81548173ffffffffffffffffffffffffffffffffffffffff021916908373ffffffffffffffffffffffffffffffffffffffff1602179055505050565b6111bd826105b2565b6111c681611ba1565b6111d08383611cae565b50505050565b7f9d536f5f629a80fe6940f79b96b33c48ff97a31d5e6a548587bc178ef34b0ae481565b60025481565b600160009054906101000a900473ffffffffffffffffffffffffffffffffffffffff1681565b6003600083815260200190815260200160002060030160149054906101000a900460ff16611289576040517f08c379a000000000000000000000000000000000000000000000000000000000815260040161128090612924565b60405180910390fd5b3373ffffffffffffffffffffffffffffffffffffffff166003600084815260200190815260200160002060030160009054906101000a900473ffffffffffffffffffffffffffffffffffffffff1673ffffffffffffffffffffffffffffffffffffffff161461132d576040517f08c379a000000000000000000000000000000000000000000000000000000000815260040161132490612dbe565b60405180910390fd5b6113577f6659d833875b88922d2576dad6c137a09ba676496bb2010bf8a72397792167a033610e7e565b156113ca576113867f85faced7bde13e1a7dad704b895f006e704f207617d68166b31ba2d79624862d82610e7e565b6113c5576040517f08c379a00000000000000000000000000000000000000000000000000000000081526004016113bc90612e2a565b60405180910390fd5b611502565b6113f47f85faced7bde13e1a7dad704b895f006e704f207617d68166b31ba2d79624862d33610e7e565b15611467576114237f9d536f5f629a80fe6940f79b96b33c48ff97a31d5e6a548587bc178ef34b0ae482610e7e565b611462576040517f08c379a000000000000000000000000000000000000000000000000000000000815260040161145990612e96565b60405180910390fd5b611501565b6114917f9d536f5f629a80fe6940f79b96b33c48ff97a31d5e6a548587bc178ef34b0ae433610e7e565b15611500576114c07f27d5ccc46db01bfa5691ce092fe276221c6cd0aa6d05765b52c3ddecfa70421a82610e7e565b6114ff576040517f08c379a00000000000000000000000000000000000000000000000000000000081526004016114f690612f02565b60405180910390fd5b5b5b5b60006003600084815260200190815260200160002060030160009054906101000a900473ffffffffffffffffffffffffffffffffffffffff169050816003600085815260200190815260200160002060030160006101000a81548173ffffffffffffffffffffffffffffffffffffffff021916908373ffffffffffffffffffffffffffffffffffffffff1602179055506004600084815260200190815260200160002060405180604001604052808473ffffffffffffffffffffffffffffffffffffffff16815260200142815250908060018154018082558091505060019003906000526020600020906002020160009091909190915060008201518160000160006101000a81548173ffffffffffffffffffffffffffffffffffffffff021916908373ffffffffffffffffffffffffffffffffffffffff16021790555060208201518160010155505061168b836040518060400160405280601581526020017f4f776e657273686970205472616e736665727265640000000000000000000000815250611da0565b7f16b85f49bf01212961345d3016c9a531894accf62eb7680f2045d79185cc0ec08382846040516116be93929190612f22565b60405180910390a1505050565b6003600082815260200190815260200160002060030160149054906101000a900460ff1661172e576040517f08c379a000000000000000000000000000000000000000000000000000000000815260040161172590612924565b60405180910390fd5b3373ffffffffffffffffffffffffffffffffffffffff166003600083815260200190815260200160002060030160009054906101000a900473ffffffffffffffffffffffffffffffffffffffff1673ffffffffffffffffffffffffffffffffffffffff16146117d2576040517f08c379a00000000000000000000000000000000000000000000000000000000081526004016117c990612dbe565b60405180910390fd5b6117fc7f27d5ccc46db01bfa5691ce092fe276221c6cd0aa6d05765b52c3ddecfa70421a33610e7e565b61183b576040517f08c379a000000000000000000000000000000000000000000000000000000000815260040161183290612f02565b60405180910390fd5b61187a816040518060400160405280601181526020017f50726f647563742044656c697665726564000000000000000000000000000000815250611da0565b600073ffffffffffffffffffffffffffffffffffffffff16600160009054906101000a900473ffffffffffffffffffffffffffffffffffffffff1673ffffffffffffffffffffffffffffffffffffffff161461195e57600160009054906101000a900473ffffffffffffffffffffffffffffffffffffffff1673ffffffffffffffffffffffffffffffffffffffff166388685cd9826040518263ffffffff1660e01b815260040161192b9190612803565b600060405180830381600087803b15801561194557600080fd5b505af1158015611959573d6000803e3d6000fd5b505050505b50565b6003600082815260200190815260200160002060030160149054906101000a900460ff166119c4576040517f08c379a00000000000000000000000000000000000000000000000000000000081526004016119bb90612924565b60405180910390fd5b3373ffffffffffffffffffffffffffffffffffffffff166003600083815260200190815260200160002060030160009054906101000a900473ffffffffffffffffffffffffffffffffffffffff1673ffffffffffffffffffffffffffffffffffffffff1614611a68576040517f08c379a0000000000000000000000000000000000000000000000000000000008152600401611a5f90612dbe565b60405180910390fd5b611a927f85faced7bde13e1a7dad704b895f006e704f207617d68166b31ba2d79624862d33610e7e565b611ad1576040517f08c379a0000000000000000000000000000000000000000000000000000000008152600401611ac890612e2a565b60405180910390fd5b611b10816040518060400160405280600f81526020017f50726f6475637420536869707065640000000000000000000000000000000000815250611da0565b50565b7f85faced7bde13e1a7dad704b895f006e704f207617d68166b31ba2d79624862d81565b60007f01ffc9a7000000000000000000000000000000000000000000000000000000007bffffffffffffffffffffffffffffffffffffffffffffffffffffffff1916827bffffffffffffffffffffffffffffffffffffffffffffffffffffffff1916149050919050565b611bb281611bad611ca6565b611e7a565b50565b6000611bc18383610e7e565b611c9b57600160008085815260200190815260200160002060000160008473ffffffffffffffffffffffffffffffffffffffff1673ffffffffffffffffffffffffffffffffffffffff16815260200190815260200160002060006101000a81548160ff021916908315150217905550611c38611ca6565b73ffffffffffffffffffffffffffffffffffffffff168273ffffffffffffffffffffffffffffffffffffffff16847f2f8788117e7eff1d82e926ec794901d17c78024a50270940304540a733656f0d60405160405180910390a460019050611ca0565b600090505b92915050565b600033905090565b6000611cba8383610e7e565b15611d9557600080600085815260200190815260200160002060000160008473ffffffffffffffffffffffffffffffffffffffff1673ffffffffffffffffffffffffffffffffffffffff16815260200190815260200160002060006101000a81548160ff021916908315150217905550611d32611ca6565b73ffffffffffffffffffffffffffffffffffffffff168273ffffffffffffffffffffffffffffffffffffffff16847ff6391f5c32d9c69d2a47ea670b442974b53935d1edc7fd64eb21e047a839171b60405160405180910390a460019050611d9a565b600090505b92915050565b6005600083815260200190815260200160002060405180606001604052808381526020013373ffffffffffffffffffffffffffffffffffffffff1681526020014281525090806001815401808255809150506001900390600052602060002090600302016000909190919091506000820151816000019081611e229190612c77565b5060208201518160010160006101000a81548173ffffffffffffffffffffffffffffffffffffffff021916908373ffffffffffffffffffffffffffffffffffffffff1602179055506040820151816002015550505050565b611e848282610e7e565b611ec75780826040517fe2517d3f000000000000000000000000000000000000000000000000000000008152600401611ebe929190612f59565b60405180910390fd5b5050565b6000604051905090565b600080fd5b600080fd5b60007fffffffff0000000000000000000000000000000000000000000000000000000082169050919050565b611f1481611edf565b8114611f1f57600080fd5b50565b600081359050611f3181611f0b565b92915050565b600060208284031215611f4d57611f4c611ed5565b5b6000611f5b84828501611f22565b91505092915050565b60008115159050919050565b611f7981611f64565b82525050565b6000602082019050611f946000830184611f70565b92915050565b6000819050919050565b611fad81611f9a565b82525050565b6000602082019050611fc86000830184611fa4565b92915050565b611fd781611f9a565b8114611fe257600080fd5b50565b600081359050611ff481611fce565b92915050565b6000602082840312156120105761200f611ed5565b5b600061201e84828501611fe5565b91505092915050565b600073ffffffffffffffffffffffffffffffffffffffff82169050919050565b600061205282612027565b9050919050565b61206281612047565b811461206d57600080fd5b50565b60008135905061207f81612059565b92915050565b6000806040838503121561209c5761209b611ed5565b5b60006120aa85828601611fe5565b92505060206120bb85828601612070565b9150509250929050565b6000819050919050565b6120d8816120c5565b81146120e357600080fd5b50565b6000813590506120f5816120cf565b92915050565b600080fd5b600080fd5b6000601f19601f8301169050919050565b7f4e487b7100000000000000000000000000000000000000000000000000000000600052604160045260246000fd5b61214e82612105565b810181811067ffffffffffffffff8211171561216d5761216c612116565b5b80604052505050565b6000612180611ecb565b905061218c8282612145565b919050565b600067ffffffffffffffff8211156121ac576121ab612116565b5b6121b582612105565b9050602081019050919050565b82818337600083830152505050565b60006121e46121df84612191565b612176565b905082815260208101848484011115612200576121ff612100565b5b61220b8482856121c2565b509392505050565b600082601f830112612228576122276120fb565b5b81356122388482602086016121d1565b91505092915050565b6000806040838503121561225857612257611ed5565b5b6000612266858286016120e6565b925050602083013567ffffffffffffffff81111561228757612286611eda565b5b61229385828601612213565b9150509250929050565b600080604083850312156122b4576122b3611ed5565b5b60006122c2858286016120e6565b92505060206122d3858286016120e6565b9150509250929050565b6122e681612047565b82525050565b6122f5816120c5565b82525050565b600060408201905061231060008301856122dd565b61231d60208301846122ec565b9392505050565b60006020828403121561233a57612339611ed5565b5b6000612348848285016120e6565b91505092915050565b600081519050919050565b600082825260208201905092915050565b6000819050602082019050919050565b600081519050919050565b600082825260208201905092915050565b60005b838110156123b757808201518184015260208101905061239c565b60008484015250505050565b60006123ce8261237d565b6123d88185612388565b93506123e8818560208601612399565b6123f181612105565b840191505092915050565b61240581612047565b82525050565b612414816120c5565b82525050565b6000606083016000830151848203600086015261243782826123c3565b915050602083015161244c60208601826123fc565b50604083015161245f604086018261240b565b508091505092915050565b6000612476838361241a565b905092915050565b6000602082019050919050565b600061249682612351565b6124a0818561235c565b9350836020820285016124b28561236d565b8060005b858110156124ee57848403895281516124cf858261246a565b94506124da8361247e565b925060208a019950506001810190506124b6565b50829750879550505050505092915050565b6000602082019050818103600083015261251a818461248b565b905092915050565b600081519050919050565b600082825260208201905092915050565b6000819050602082019050919050565b60408201600082015161256460008501826123fc565b506020820151612577602085018261240b565b50505050565b6000612589838361254e565b60408301905092915050565b6000602082019050919050565b60006125ad82612522565b6125b7818561252d565b93506125c28361253e565b8060005b838110156125f35781516125da888261257d565b97506125e583612595565b9250506001810190506125c6565b5085935050505092915050565b6000602082019050818103600083015261261a81846125a2565b905092915050565b600082825260208201905092915050565b600061263e8261237d565b6126488185612622565b9350612658818560208601612399565b61266181612105565b840191505092915050565b600060608201905081810360008301526126868186612633565b905061269560208301856122dd565b6126a260408301846122ec565b949350505050565b600060a0820190506126bf60008301886122ec565b81810360208301526126d18187612633565b905081810360408301526126e58186612633565b90506126f460608301856122dd565b6127016080830184611f70565b9695505050505050565b6000806040838503121561272257612721611ed5565b5b600083013567ffffffffffffffff8111156127405761273f611eda565b5b61274c85828601612213565b925050602083013567ffffffffffffffff81111561276d5761276c611eda565b5b61277985828601612213565b9150509250929050565b600060808201905061279860008301876122ec565b81810360208301526127aa8186612633565b905081810360408301526127be8185612633565b90506127cd60608301846122dd565b95945050505050565b6000602082840312156127ec576127eb611ed5565b5b60006127fa84828501612070565b91505092915050565b600060208201905061281860008301846122ec565b92915050565b6000819050919050565b600061284361283e61283984612027565b61281e565b612027565b9050919050565b600061285582612828565b9050919050565b60006128678261284a565b9050919050565b6128778161285c565b82525050565b6000602082019050612892600083018461286e565b92915050565b600080604083850312156128af576128ae611ed5565b5b60006128bd858286016120e6565b92505060206128ce85828601612070565b9150509250929050565b7f50726f6475637420646f6573206e6f7420657869737400000000000000000000600082015250565b600061290e601683612622565b9150612919826128d8565b602082019050919050565b6000602082019050818103600083015261293d81612901565b9050919050565b7f4e487b7100000000000000000000000000000000000000000000000000000000600052602260045260246000fd5b6000600282049050600182168061298b57607f821691505b60208210810361299e5761299d612944565b5b50919050565b600081905092915050565b60008190508160005260206000209050919050565b600081546129d181612973565b6129db81866129a4565b945060018216600081146129f65760018114612a0b57612a3e565b60ff1983168652811515820286019350612a3e565b612a14856129af565b60005b83811015612a3657815481890152600182019150602081019050612a17565b838801955050505b50505092915050565b6000612a5382846129c4565b915081905092915050565b7f4e487b7100000000000000000000000000000000000000000000000000000000600052601160045260246000fd5b6000612a98826120c5565b91507fffffffffffffffffffffffffffffffffffffffffffffffffffffffffffffffff8203612aca57612ac9612a5e565b5b600182019050919050565b60008190508160005260206000209050919050565b60006020601f8301049050919050565b600082821b905092915050565b600060088302612b377fffffffffffffffffffffffffffffffffffffffffffffffffffffffffffffffff82612afa565b612b418683612afa565b95508019841693508086168417925050509392505050565b6000612b74612b6f612b6a846120c5565b61281e565b6120c5565b9050919050565b6000819050919050565b612b8e83612b59565b612ba2612b9a82612b7b565b848454612b07565b825550505050565b600090565b612bb7612baa565b612bc2818484612b85565b505050565b5b81811015612be657612bdb600082612baf565b600181019050612bc8565b5050565b601f821115612c2b57612bfc81612ad5565b612c0584612aea565b81016020851015612c14578190505b612c28612c2085612aea565b830182612bc7565b50505b505050565b600082821c905092915050565b6000612c4e60001984600802612c30565b1980831691505092915050565b6000612c678383612c3d565b9150826002028217905092915050565b612c808261237d565b67ffffffffffffffff811115612c9957612c98612116565b5b612ca38254612973565b612cae828285612bea565b600060209050601f831160018114612ce15760008415612ccf578287015190505b612cd98582612c5b565b865550612d41565b601f198416612cef86612ad5565b60005b82811015612d1757848901518255600182019150602085019450602081019050612cf2565b86831015612d345784890151612d30601f891682612c3d565b8355505b6001600288020188555050505b505050505050565b6000604082019050612d5e60008301856122ec565b612d6b60208301846122dd565b9392505050565b7f4e6f74206f776e65720000000000000000000000000000000000000000000000600082015250565b6000612da8600983612622565b9150612db382612d72565b602082019050919050565b60006020820190508181036000830152612dd781612d9b565b9050919050565b7f4f6e6c79204469737472696275746f7200000000000000000000000000000000600082015250565b6000612e14601083612622565b9150612e1f82612dde565b602082019050919050565b60006020820190508181036000830152612e4381612e07565b9050919050565b7f4f6e6c792057686f6c6573616c65720000000000000000000000000000000000600082015250565b6000612e80600f83612622565b9150612e8b82612e4a565b602082019050919050565b60006020820190508181036000830152612eaf81612e73565b9050919050565b7f4f6e6c792052657461696c657200000000000000000000000000000000000000600082015250565b6000612eec600d83612622565b9150612ef782612eb6565b602082019050919050565b60006020820190508181036000830152612f1b81612edf565b9050919050565b6000606082019050612f3760008301866122ec565b612f4460208301856122dd565b612f5160408301846122dd565b949350505050565b6000604082019050612f6e60008301856122dd565b612f7b6020830184611fa4565b939250505056fea26469706673582212209ebde5290ae3dae37bc5ae487f7140b72d6eb92af94cc133551979306254415a64736f6c63430008140033",
  "linkReferences": {},
  "deployedLinkReferences": {}
}