{
  "_format": "hh-sol-artifact-1",
  "contractName": "SupplyChain",
  "sourceName": "contracts/SupplyChain.sol",
  "abi": [
    {
      "inputs": [],
      "stateMutability": "nonpayable",
      "type": "constructor"
    },
    {
      "inputs": [],
      "name": "AccessControlBadConfirmation",
      "type": "error"
    },
    {
      "inputs": [
        {
          "internalType": "address",
          "name": "account",
          "type": "address"
        },
        {
          "internalType": "bytes32",
          "name": "neededRole",
          "type": "bytes32"
        }
      ],
      "name": "AccessControlUnauthorizedAccount",
      "type": "error"
    },
    {
      "anonymous": false,
      "inputs": [
        {
          "indexed": false,
          "internalType": "uint256",
          "name": "productId",
          "type": "uint256"
        },
        {
          "indexed": false,
          "internalType": "address",
          "name": "from",
          "type": "address"
        },
        {
          "indexed": false,
          "internalType": "address",
          "name": "to",
          "type": "address"
        }
      ],
      "name": "OwnershipTransferred",
      "type": "event"
    },
    {
      "anonymous": false,
      "inputs": [
        {
          "indexed": false,
          "internalType": "uint256",
          "name": "productId",
          "type": "uint256"
        },
        {
          "indexed": false,
          "internalType": "address",
          "name": "manufacturer",
          "type": "address"
        }
      ],
      "name": "ProductRegistered",
      "type": "event"
    },
    {
      "anonymous": false,
      "inputs": [
        {
          "indexed": true,
          "internalType": "bytes32",
          "name": "role",
          "type": "bytes32"
        },
        {
          "indexed": true,
          "internalType": "bytes32",
          "name": "previousAdminRole",
          "type": "bytes32"
        },
        {
          "indexed": true,
          "internalType": "bytes32",
          "name": "newAdminRole",
          "type": "bytes32"
        }
      ],
      "name": "RoleAdminChanged",
      "type": "event"
    },
    {
      "anonymous": false,
      "inputs": [
        {
          "indexed": true,
          "internalType": "bytes32",
          "name": "role",
          "type": "bytes32"
        },
        {
          "indexed": true,
          "internalType": "address",
          "name": "account",
          "type": "address"
        },
        {
          "indexed": true,
          "internalType": "address",
          "name": "sender",
          "type": "address"
        }
      ],
      "name": "RoleGranted",
      "type": "event"
    },
    {
      "anonymous": false,
      "inputs": [
        {
          "indexed": true,
          "internalType": "bytes32",
          "name": "role",
          "type": "bytes32"
        },
        {
          "indexed": true,
          "internalType": "address",
          "name": "account",
          "type": "address"
        },
        {
          "indexed": true,
          "internalType": "address",
          "name": "sender",
          "type": "address"
        }
      ],
      "name": "RoleRevoked",
      "type": "event"
    },
    {
      "inputs": [],
      "name": "DEFAULT_ADMIN_ROLE",
      "outputs": [
        {
          "internalType": "bytes32",
          "name": "",
          "type": "bytes32"
        }
      ],
      "stateMutability": "view",
      "type": "function"
    },
    {
      "inputs": [],
      "name": "DISTRIBUTOR_ROLE",
      "outputs": [
        {
          "internalType": "bytes32",
          "name": "",
          "type": "bytes32"
        }
      ],
      "stateMutability": "view",
      "type": "function"
    },
    {
      "inputs": [],
      "name": "MANUFACTURER_ROLE",
      "outputs": [
        {
          "internalType": "bytes32",
          "name": "",
          "type": "bytes32"
        }
      ],
      "stateMutability": "view",
      "type": "function"
    },
    {
      "inputs": [],
      "name": "RETAILER_ROLE",
      "outputs": [
        {
          "internalType": "bytes32",
          "name": "",
          "type": "bytes32"
        }
      ],
      "stateMutability": "view",
      "type": "function"
    },
    {
      "inputs": [
        {
          "internalType": "uint256",
          "name": "_productId",
          "type": "uint256"
        }
      ],
      "name": "getProduct",
      "outputs": [
        {
          "internalType": "uint256",
          "name": "",
          "type": "uint256"
        },
        {
          "internalType": "string",
          "name": "",
          "type": "string"
        },
        {
          "internalType": "string",
          "name": "",
          "type": "string"
        },
        {
          "internalType": "address",
          "name": "",
          "type": "address"
        }
      ],
      "stateMutability": "view",
      "type": "function"
    },
    {
      "inputs": [
        {
          "internalType": "uint256",
          "name": "_productId",
          "type": "uint256"
        }
      ],
      "name": "getProductHistory",
      "outputs": [
        {
          "components": [
            {
              "internalType": "address",
              "name": "owner",
              "type": "address"
            },
            {
              "internalType": "uint256",
              "name": "timestamp",
              "type": "uint256"
            }
          ],
          "internalType": "struct SupplyChain.Ownership[]",
          "name": "",
          "type": "tuple[]"
        }
      ],
      "stateMutability": "view",
      "type": "function"
    },
    {
      "inputs": [
        {
          "internalType": "bytes32",
          "name": "role",
          "type": "bytes32"
        }
      ],
      "name": "getRoleAdmin",
      "outputs": [
        {
          "internalType": "bytes32",
          "name": "",
          "type": "bytes32"
        }
      ],
      "stateMutability": "view",
      "type": "function"
    },
    {
      "inputs": [
        {
          "internalType": "bytes32",
          "name": "role",
          "type": "bytes32"
        },
        {
          "internalType": "address",
          "name": "account",
          "type": "address"
        }
      ],
      "name": "grantRole",
      "outputs": [],
      "stateMutability": "nonpayable",
      "type": "function"
    },
    {
      "inputs": [
        {
          "internalType": "bytes32",
          "name": "role",
          "type": "bytes32"
        },
        {
          "internalType": "address",
          "name": "account",
          "type": "address"
        }
      ],
      "name": "hasRole",
      "outputs": [
        {
          "internalType": "bool",
          "name": "",
          "type": "bool"
        }
      ],
      "stateMutability": "view",
      "type": "function"
    },
    {
      "inputs": [],
      "name": "productCount",
      "outputs": [
        {
          "internalType": "uint256",
          "name": "",
          "type": "uint256"
        }
      ],
      "stateMutability": "view",
      "type": "function"
    },
    {
      "inputs": [
        {
          "internalType": "uint256",
          "name": "",
          "type": "uint256"
        },
        {
          "internalType": "uint256",
          "name": "",
          "type": "uint256"
        }
      ],
      "name": "productHistory",
      "outputs": [
        {
          "internalType": "address",
          "name": "owner",
          "type": "address"
        },
        {
          "internalType": "uint256",
          "name": "timestamp",
          "type": "uint256"
        }
      ],
      "stateMutability": "view",
      "type": "function"
    },
    {
      "inputs": [
        {
          "internalType": "uint256",
          "name": "",
          "type": "uint256"
        }
      ],
      "name": "products",
      "outputs": [
        {
          "internalType": "uint256",
          "name": "id",
          "type": "uint256"
        },
        {
          "internalType": "string",
          "name": "name",
          "type": "string"
        },
        {
          "internalType": "string",
          "name": "metadataHash",
          "type": "string"
        },
        {
          "internalType": "address",
          "name": "currentOwner",
          "type": "address"
        },
        {
          "internalType": "bool",
          "name": "exists",
          "type": "bool"
        }
      ],
      "stateMutability": "view",
      "type": "function"
    },
    {
      "inputs": [
        {
          "internalType": "string",
          "name": "_name",
          "type": "string"
        },
        {
          "internalType": "string",
          "name": "_metadataHash",
          "type": "string"
        }
      ],
      "name": "registerProduct",
      "outputs": [],
      "stateMutability": "nonpayable",
      "type": "function"
    },
    {
      "inputs": [
        {
          "internalType": "bytes32",
          "name": "role",
          "type": "bytes32"
        },
        {
          "internalType": "address",
          "name": "callerConfirmation",
          "type": "address"
        }
      ],
      "name": "renounceRole",
      "outputs": [],
      "stateMutability": "nonpayable",
      "type": "function"
    },
    {
      "inputs": [
        {
          "internalType": "bytes32",
          "name": "role",
          "type": "bytes32"
        },
        {
          "internalType": "address",
          "name": "account",
          "type": "address"
        }
      ],
      "name": "revokeRole",
      "outputs": [],
      "stateMutability": "nonpayable",
      "type": "function"
    },
    {
      "inputs": [
        {
          "internalType": "bytes4",
          "name": "interfaceId",
          "type": "bytes4"
        }
      ],
      "name": "supportsInterface",
      "outputs": [
        {
          "internalType": "bool",
          "name": "",
          "type": "bool"
        }
      ],
      "stateMutability": "view",
      "type": "function"
    },
    {
      "inputs": [
        {
          "internalType": "uint256",
          "name": "_productId",
          "type": "uint256"
        },
        {
          "internalType": "address",
          "name": "_to",
          "type": "address"
        }
      ],
      "name": "transferProduct",
      "outputs": [],
      "stateMutability": "nonpayable",
      "type": "function"
    },
    {
      "inputs": [
        {
          "internalType": "uint256",
          "name": "_productId",
          "type": "uint256"
        },
        {
          "internalType": "string",
          "name": "_metadataHash",
          "type": "string"
        }
      ],
      "name": "verifyProduct",
      "outputs": [
        {
          "internalType": "bool",
          "name": "",
          "type": "bool"
        }
      ],
      "stateMutability": "view",
      "type": "function"
    }
  ],
  "bytecode": "0x60806040523480156200001157600080fd5b50620000276000801b336200006160201b60201c565b506200005a7f6659d833875b88922d2576dad6c137a09ba676496bb2010bf8a72397792167a0336200006160201b60201c565b50620001d6565b60006200007583836200016460201b60201c565b6200015957600160008085815260200190815260200160002060000160008473ffffffffffffffffffffffffffffffffffffffff1673ffffffffffffffffffffffffffffffffffffffff16815260200190815260200160002060006101000a81548160ff021916908315150217905550620000f5620001ce60201b60201c565b73ffffffffffffffffffffffffffffffffffffffff168273ffffffffffffffffffffffffffffffffffffffff16847f2f8788117e7eff1d82e926ec794901d17c78024a50270940304540a733656f0d60405160405180910390a4600190506200015e565b600090505b92915050565b600080600084815260200190815260200160002060000160008373ffffffffffffffffffffffffffffffffffffffff1673ffffffffffffffffffffffffffffffffffffffff16815260200190815260200160002060009054906101000a900460ff16905092915050565b600033905090565b61206680620001e66000396000f3fe608060405234801561001057600080fd5b50600436106101165760003560e01c80638fbd0dcf116100a2578063b9db15b411610071578063b9db15b41461031e578063d547741f14610351578063e0f6ef871461036d578063e43059e51461038b578063f0bd87cc146103a757610116565b80638fbd0dcf1461029657806391d14854146102b2578063965288b0146102e2578063a217fddf1461030057610116565b80633267721c116100e95780633267721c146101b557806336568abe146101e55780633a7d23761461020157806357a096a1146102325780637acc0b201461026257610116565b806301ffc9a71461011b5780632115e7bf1461014b578063248a9ca3146101695780632f2ff15d14610199575b600080fd5b61013560048036038101906101309190611382565b6103c5565b60405161014291906113ca565b60405180910390f35b61015361043f565b60405161016091906113fe565b60405180910390f35b610183600480360381019061017e9190611445565b610463565b60405161019091906113fe565b60405180910390f35b6101b360048036038101906101ae91906114d0565b610482565b005b6101cf60048036038101906101ca919061168c565b6104a4565b6040516101dc91906113ca565b60405180910390f35b6101ff60048036038101906101fa91906114d0565b610545565b005b61021b600480360381019061021691906116e8565b6105c0565b604051610229929190611746565b60405180910390f35b61024c6004803603810190610247919061176f565b610621565b6040516102599190611898565b60405180910390f35b61027c6004803603810190610277919061176f565b6106f3565b60405161028d959493929190611939565b60405180910390f35b6102b060048036038101906102ab919061199a565b610866565b005b6102cc60048036038101906102c791906114d0565b610a9b565b6040516102d991906113ca565b60405180910390f35b6102ea610b05565b6040516102f791906113fe565b60405180910390f35b610308610b29565b60405161031591906113fe565b60405180910390f35b6103386004803603810190610333919061176f565b610b30565b6040516103489493929190611a12565b60405180910390f35b61036b600480360381019061036691906114d0565b610d7f565b005b610375610da1565b6040516103829190611a65565b60405180910390f35b6103a560048036038101906103a09190611a80565b610da7565b005b6103af611038565b6040516103bc91906113fe565b60405180910390f35b60007f7965db0b000000000000000000000000000000000000000000000000000000007bffffffffffffffffffffffffffffffffffffffffffffffffffffffff1916827bffffffffffffffffffffffffffffffffffffffffffffffffffffffff1916148061043857506104378261105c565b5b9050919050565b7f27d5ccc46db01bfa5691ce092fe276221c6cd0aa6d05765b52c3ddecfa70421a81565b6000806000838152602001908152602001600020600101549050919050565b61048b82610463565b610494816110c6565b61049e83836110da565b50505050565b60006002600084815260200190815260200160002060030160149054906101000a900460ff16610509576040517f08c379a000000000000000000000000000000000000000000000000000000000815260040161050090611b0c565b60405180910390fd5b8180519060200120600260008581526020019081526020016000206002016040516105349190611c2f565b604051809103902014905092915050565b61054d6111cb565b73ffffffffffffffffffffffffffffffffffffffff168173ffffffffffffffffffffffffffffffffffffffff16146105b1576040517f6697b23200000000000000000000000000000000000000000000000000000000815260040160405180910390fd5b6105bb82826111d3565b505050565b600360205281600052604060002081815481106105dc57600080fd5b9060005260206000209060020201600091509150508060000160009054906101000a900473ffffffffffffffffffffffffffffffffffffffff16908060010154905082565b606060036000838152602001908152602001600020805480602002602001604051908101604052809291908181526020016000905b828210156106e857838290600052602060002090600202016040518060400160405290816000820160009054906101000a900473ffffffffffffffffffffffffffffffffffffffff1673ffffffffffffffffffffffffffffffffffffffff1673ffffffffffffffffffffffffffffffffffffffff16815260200160018201548152505081526020019060010190610656565b505050509050919050565b600260205280600052604060002060009150905080600001549080600101805461071c90611b5b565b80601f016020809104026020016040519081016040528092919081815260200182805461074890611b5b565b80156107955780601f1061076a57610100808354040283529160200191610795565b820191906000526020600020905b81548152906001019060200180831161077857829003601f168201915b5050505050908060020180546107aa90611b5b565b80601f01602080910402602001604051908101604052809291908181526020018280546107d690611b5b565b80156108235780601f106107f857610100808354040283529160200191610823565b820191906000526020600020905b81548152906001019060200180831161080657829003601f168201915b5050505050908060030160009054906101000a900473ffffffffffffffffffffffffffffffffffffffff16908060030160149054906101000a900460ff16905085565b7f6659d833875b88922d2576dad6c137a09ba676496bb2010bf8a72397792167a0610890816110c6565b600160008154809291906108a390611c75565b91905055506040518060a0016040528060015481526020018481526020018381526020013373ffffffffffffffffffffffffffffffffffffffff1681526020016001151581525060026000600154815260200190815260200160002060008201518160000155602082015181600101908161091e9190611e69565b5060408201518160020190816109349190611e69565b5060608201518160030160006101000a81548173ffffffffffffffffffffffffffffffffffffffff021916908373ffffffffffffffffffffffffffffffffffffffff16021790555060808201518160030160146101000a81548160ff02191690831515021790555090505060036000600154815260200190815260200160002060405180604001604052803373ffffffffffffffffffffffffffffffffffffffff16815260200142815250908060018154018082558091505060019003906000526020600020906002020160009091909190915060008201518160000160006101000a81548173ffffffffffffffffffffffffffffffffffffffff021916908373ffffffffffffffffffffffffffffffffffffffff1602179055506020820151816001015550507f73e014c0a076665d9511a27e878fadccb6d7171f5754ba1167a670023760b01560015433604051610a8e929190611f3b565b60405180910390a1505050565b600080600084815260200190815260200160002060000160008373ffffffffffffffffffffffffffffffffffffffff1673ffffffffffffffffffffffffffffffffffffffff16815260200190815260200160002060009054906101000a900460ff16905092915050565b7f6659d833875b88922d2576dad6c137a09ba676496bb2010bf8a72397792167a081565b6000801b81565b600060608060006002600086815260200190815260200160002060030160149054906101000a900460ff16610b9a576040517f08c379a0000000000000000000000000000000000000000000000000000000008152600401610b9190611b0c565b60405180910390fd5b6000600260008781526020019081526020016000206040518060a001604052908160008201548152602001600182018054610bd490611b5b565b80601f0160208091040260200160405190810160405280929190818152602001828054610c0090611b5b565b8015610c4d5780601f10610c2257610100808354040283529160200191610c4d565b820191906000526020600020905b815481529060010190602001808311610c3057829003601f168201915b50505050508152602001600282018054610c6690611b5b565b80601f0160208091040260200160405190810160405280929190818152602001828054610c9290611b5b565b8015610cdf5780601f10610cb457610100808354040283529160200191610cdf565b820191906000526020600020905b815481529060010190602001808311610cc257829003601f168201915b505050505081526020016003820160009054906101000a900473ffffffffffffffffffffffffffffffffffffffff1673ffffffffffffffffffffffffffffffffffffffff1673ffffffffffffffffffffffffffffffffffffffff1681526020016003820160149054906101000a900460ff161515151581525050905080600001518160200151826040015183606001519450945094509450509193509193565b610d8882610463565b610d91816110c6565b610d9b83836111d3565b50505050565b60015481565b6002600083815260200190815260200160002060030160149054906101000a900460ff16610e0a576040517f08c379a0000000000000000000000000000000000000000000000000000000008152600401610e0190611b0c565b60405180910390fd5b3373ffffffffffffffffffffffffffffffffffffffff166002600084815260200190815260200160002060030160009054906101000a900473ffffffffffffffffffffffffffffffffffffffff1673ffffffffffffffffffffffffffffffffffffffff1614610eae576040517f08c379a0000000000000000000000000000000000000000000000000000000008152600401610ea590611fb0565b60405180910390fd5b60006002600084815260200190815260200160002060030160009054906101000a900473ffffffffffffffffffffffffffffffffffffffff169050816002600085815260200190815260200160002060030160006101000a81548173ffffffffffffffffffffffffffffffffffffffff021916908373ffffffffffffffffffffffffffffffffffffffff1602179055506003600084815260200190815260200160002060405180604001604052808473ffffffffffffffffffffffffffffffffffffffff16815260200142815250908060018154018082558091505060019003906000526020600020906002020160009091909190915060008201518160000160006101000a81548173ffffffffffffffffffffffffffffffffffffffff021916908373ffffffffffffffffffffffffffffffffffffffff1602179055506020820151816001015550507f16b85f49bf01212961345d3016c9a531894accf62eb7680f2045d79185cc0ec083828460405161102b93929190611fd0565b60405180910390a1505050565b7f85faced7bde13e1a7dad704b895f006e704f207617d68166b31ba2d79624862d81565b60007f01ffc9a7000000000000000000000000000000000000000000000000000000007bffffffffffffffffffffffffffffffffffffffffffffffffffffffff1916827bffffffffffffffffffffffffffffffffffffffffffffffffffffffff1916149050919050565b6110d7816110d26111cb565b6112c5565b50565b60006110e68383610a9b565b6111c057600160008085815260200190815260200160002060000160008473ffffffffffffffffffffffffffffffffffffffff1673ffffffffffffffffffffffffffffffffffffffff16815260200190815260200160002060006101000a81548160ff02191690831515021790555061115d6111cb565b73ffffffffffffffffffffffffffffffffffffffff168273ffffffffffffffffffffffffffffffffffffffff16847f2f8788117e7eff1d82e926ec794901d17c78024a50270940304540a733656f0d60405160405180910390a4600190506111c5565b600090505b92915050565b600033905090565b60006111df8383610a9b565b156112ba57600080600085815260200190815260200160002060000160008473ffffffffffffffffffffffffffffffffffffffff1673ffffffffffffffffffffffffffffffffffffffff16815260200190815260200160002060006101000a81548160ff0219169083151502179055506112576111cb565b73ffffffffffffffffffffffffffffffffffffffff168273ffffffffffffffffffffffffffffffffffffffff16847ff6391f5c32d9c69d2a47ea670b442974b53935d1edc7fd64eb21e047a839171b60405160405180910390a4600190506112bf565b600090505b92915050565b6112cf8282610a9b565b6113125780826040517fe2517d3f000000000000000000000000000000000000000000000000000000008152600401611309929190612007565b60405180910390fd5b5050565b6000604051905090565b600080fd5b600080fd5b60007fffffffff0000000000000000000000000000000000000000000000000000000082169050919050565b61135f8161132a565b811461136a57600080fd5b50565b60008135905061137c81611356565b92915050565b60006020828403121561139857611397611320565b5b60006113a68482850161136d565b91505092915050565b60008115159050919050565b6113c4816113af565b82525050565b60006020820190506113df60008301846113bb565b92915050565b6000819050919050565b6113f8816113e5565b82525050565b600060208201905061141360008301846113ef565b92915050565b611422816113e5565b811461142d57600080fd5b50565b60008135905061143f81611419565b92915050565b60006020828403121561145b5761145a611320565b5b600061146984828501611430565b91505092915050565b600073ffffffffffffffffffffffffffffffffffffffff82169050919050565b600061149d82611472565b9050919050565b6114ad81611492565b81146114b857600080fd5b50565b6000813590506114ca816114a4565b92915050565b600080604083850312156114e7576114e6611320565b5b60006114f585828601611430565b9250506020611506858286016114bb565b9150509250929050565b6000819050919050565b61152381611510565b811461152e57600080fd5b50565b6000813590506115408161151a565b92915050565b600080fd5b600080fd5b6000601f19601f8301169050919050565b7f4e487b7100000000000000000000000000000000000000000000000000000000600052604160045260246000fd5b61159982611550565b810181811067ffffffffffffffff821117156115b8576115b7611561565b5b80604052505050565b60006115cb611316565b90506115d78282611590565b919050565b600067ffffffffffffffff8211156115f7576115f6611561565b5b61160082611550565b9050602081019050919050565b82818337600083830152505050565b600061162f61162a846115dc565b6115c1565b90508281526020810184848401111561164b5761164a61154b565b5b61165684828561160d565b509392505050565b600082601f83011261167357611672611546565b5b813561168384826020860161161c565b91505092915050565b600080604083850312156116a3576116a2611320565b5b60006116b185828601611531565b925050602083013567ffffffffffffffff8111156116d2576116d1611325565b5b6116de8582860161165e565b9150509250929050565b600080604083850312156116ff576116fe611320565b5b600061170d85828601611531565b925050602061171e85828601611531565b9150509250929050565b61173181611492565b82525050565b61174081611510565b82525050565b600060408201905061175b6000830185611728565b6117686020830184611737565b9392505050565b60006020828403121561178557611784611320565b5b600061179384828501611531565b91505092915050565b600081519050919050565b600082825260208201905092915050565b6000819050602082019050919050565b6117d181611492565b82525050565b6117e081611510565b82525050565b6040820160008201516117fc60008501826117c8565b50602082015161180f60208501826117d7565b50505050565b600061182183836117e6565b60408301905092915050565b6000602082019050919050565b60006118458261179c565b61184f81856117a7565b935061185a836117b8565b8060005b8381101561188b5781516118728882611815565b975061187d8361182d565b92505060018101905061185e565b5085935050505092915050565b600060208201905081810360008301526118b2818461183a565b905092915050565b600081519050919050565b600082825260208201905092915050565b60005b838110156118f45780820151818401526020810190506118d9565b60008484015250505050565b600061190b826118ba565b61191581856118c5565b93506119258185602086016118d6565b61192e81611550565b840191505092915050565b600060a08201905061194e6000830188611737565b81810360208301526119608187611900565b905081810360408301526119748186611900565b90506119836060830185611728565b61199060808301846113bb565b9695505050505050565b600080604083850312156119b1576119b0611320565b5b600083013567ffffffffffffffff8111156119cf576119ce611325565b5b6119db8582860161165e565b925050602083013567ffffffffffffffff8111156119fc576119fb611325565b5b611a088582860161165e565b9150509250929050565b6000608082019050611a276000830187611737565b8181036020830152611a398186611900565b90508181036040830152611a4d8185611900565b9050611a5c6060830184611728565b95945050505050565b6000602082019050611a7a6000830184611737565b92915050565b60008060408385031215611a9757611a96611320565b5b6000611aa585828601611531565b9250506020611ab6858286016114bb565b9150509250929050565b7f50726f6475637420646f6573206e6f7420657869737400000000000000000000600082015250565b6000611af66016836118c5565b9150611b0182611ac0565b602082019050919050565b60006020820190508181036000830152611b2581611ae9565b9050919050565b7f4e487b7100000000000000000000000000000000000000000000000000000000600052602260045260246000fd5b60006002820490506001821680611b7357607f821691505b602082108103611b8657611b85611b2c565b5b50919050565b600081905092915050565b60008190508160005260206000209050919050565b60008154611bb981611b5b565b611bc38186611b8c565b94506001821660008114611bde5760018114611bf357611c26565b60ff1983168652811515820286019350611c26565b611bfc85611b97565b60005b83811015611c1e57815481890152600182019150602081019050611bff565b838801955050505b50505092915050565b6000611c3b8284611bac565b915081905092915050565b7f4e487b7100000000000000000000000000000000000000000000000000000000600052601160045260246000fd5b6000611c8082611510565b91507fffffffffffffffffffffffffffffffffffffffffffffffffffffffffffffffff8203611cb257611cb1611c46565b5b600182019050919050565b60008190508160005260206000209050919050565b60006020601f8301049050919050565b600082821b905092915050565b600060088302611d1f7fffffffffffffffffffffffffffffffffffffffffffffffffffffffffffffffff82611ce2565b611d298683611ce2565b95508019841693508086168417925050509392505050565b6000819050919050565b6000611d66611d61611d5c84611510565b611d41565b611510565b9050919050565b6000819050919050565b611d8083611d4b565b611d94611d8c82611d6d565b848454611cef565b825550505050565b600090565b611da9611d9c565b611db4818484611d77565b505050565b5b81811015611dd857611dcd600082611da1565b600181019050611dba565b5050565b601f821115611e1d57611dee81611cbd565b611df784611cd2565b81016020851015611e06578190505b611e1a611e1285611cd2565b830182611db9565b50505b505050565b600082821c905092915050565b6000611e4060001984600802611e22565b1980831691505092915050565b6000611e598383611e2f565b9150826002028217905092915050565b611e72826118ba565b67ffffffffffffffff811115611e8b57611e8a611561565b5b611e958254611b5b565b611ea0828285611ddc565b600060209050601f831160018114611ed35760008415611ec1578287015190505b611ecb8582611e4d565b865550611f33565b601f198416611ee186611cbd565b60005b82811015611f0957848901518255600182019150602085019450602081019050611ee4565b86831015611f265784890151611f22601f891682611e2f565b8355505b6001600288020188555050505b505050505050565b6000604082019050611f506000830185611737565b611f5d6020830184611728565b9392505050565b7f4e6f74206f776e65720000000000000000000000000000000000000000000000600082015250565b6000611f9a6009836118c5565b9150611fa582611f64565b602082019050919050565b60006020820190508181036000830152611fc981611f8d565b9050919050565b6000606082019050611fe56000830186611737565b611ff26020830185611728565b611fff6040830184611728565b949350505050565b600060408201905061201c6000830185611728565b61202960208301846113ef565b939250505056fea264697066735822122021af2c6dc46545829cf141d928f2b2be3046905d3c62fbf87d617055e2dfe5f964736f6c63430008140033",
  "linkReferences": {},
  "deployedLinkReferences": {}
}